{
  "address": "0xe7f1725E7734CE288F8367e1Bb143E90bb3F0512",
  "abi": [
    {
      "inputs": [
        {
          "internalType": "address",
          "name": "_creator_address",
          "type": "address"
        },
        {
          "internalType": "address",
          "name": "_interep_address",
          "type": "address"
        }
      ],
      "stateMutability": "nonpayable",
      "type": "constructor"
    },
    {
      "anonymous": false,
      "inputs": [
        {
          "indexed": false,
          "internalType": "uint256",
          "name": "marketId",
          "type": "uint256"
        },
        {
          "indexed": false,
          "internalType": "address",
          "name": "recipient",
          "type": "address"
        }
      ],
      "name": "MarketInitiated",
      "type": "event"
    },
    {
      "inputs": [
        {
          "internalType": "uint256",
          "name": "marketId",
          "type": "uint256"
        }
      ],
      "name": "_getValidators",
      "outputs": [],
      "stateMutability": "nonpayable",
      "type": "function"
    },
    {
      "inputs": [
        {
          "internalType": "address",
          "name": "",
          "type": "address"
        }
      ],
      "name": "ad_to_id",
      "outputs": [
        {
          "internalType": "uint256",
          "name": "",
          "type": "uint256"
        }
      ],
      "stateMutability": "view",
      "type": "function"
    },
    {
      "inputs": [
        {
          "internalType": "uint256",
          "name": "_marketId",
          "type": "uint256"
        },
        {
          "internalType": "address",
          "name": "_tokenAddress",
          "type": "address"
        },
        {
          "internalType": "uint256",
          "name": "_tokenId",
          "type": "uint256"
        },
        {
          "internalType": "uint256",
          "name": "_maxAmount",
          "type": "uint256"
        },
        {
          "internalType": "uint256",
          "name": "_borrowAmount",
          "type": "uint256"
        },
        {
          "internalType": "bool",
          "name": "_isERC20",
          "type": "bool"
        }
      ],
      "name": "addAcceptedCollateral",
      "outputs": [],
      "stateMutability": "nonpayable",
      "type": "function"
    },
    {
      "inputs": [
        {
          "internalType": "uint256",
          "name": "marketId",
          "type": "uint256"
        }
      ],
      "name": "approvalCondition",
      "outputs": [
        {
          "internalType": "bool",
          "name": "",
          "type": "bool"
        }
      ],
      "stateMutability": "view",
      "type": "function"
    },
    {
      "inputs": [
        {
          "internalType": "uint256",
          "name": "marketId",
          "type": "uint256"
        }
      ],
      "name": "beforeResolve",
      "outputs": [],
      "stateMutability": "nonpayable",
      "type": "function"
    },
    {
      "inputs": [
        {
          "internalType": "uint256",
          "name": "bondAmount",
          "type": "uint256"
        },
        {
          "internalType": "uint256",
          "name": "collateral_amount",
          "type": "uint256"
        },
        {
          "internalType": "uint256",
          "name": "budget",
          "type": "uint256"
        }
      ],
      "name": "calcImpliedProbability",
      "outputs": [
        {
          "internalType": "uint256",
          "name": "",
          "type": "uint256"
        }
      ],
      "stateMutability": "pure",
      "type": "function"
    },
    {
      "inputs": [
        {
          "internalType": "address",
          "name": "underlying",
          "type": "address"
        },
        {
          "internalType": "bool",
          "name": "_onlyVerified",
          "type": "bool"
        },
        {
          "internalType": "uint256",
          "name": "_r",
          "type": "uint256"
        },
        {
          "internalType": "uint256",
          "name": "_asset_limit",
          "type": "uint256"
        },
        {
          "internalType": "uint256",
          "name": "_total_asset_limit",
          "type": "uint256"
        },
        {
          "components": [
            {
              "internalType": "uint256",
              "name": "N",
              "type": "uint256"
            },
            {
              "internalType": "uint256",
              "name": "sigma",
              "type": "uint256"
            },
            {
              "internalType": "uint256",
              "name": "alpha",
              "type": "uint256"
            },
            {
              "internalType": "uint256",
              "name": "omega",
              "type": "uint256"
            },
            {
              "internalType": "uint256",
              "name": "delta",
              "type": "uint256"
            },
            {
              "internalType": "uint256",
              "name": "r",
              "type": "uint256"
            },
            {
              "internalType": "uint256",
              "name": "s",
              "type": "uint256"
            },
            {
              "internalType": "uint256",
              "name": "steak",
              "type": "uint256"
            }
          ],
          "internalType": "struct MarketManager.MarketParameters",
          "name": "default_params",
          "type": "tuple"
        }
      ],
      "name": "createVault",
      "outputs": [],
      "stateMutability": "nonpayable",
      "type": "function"
    },
    {
      "inputs": [
        {
          "internalType": "uint256",
          "name": "marketId",
          "type": "uint256"
        }
      ],
      "name": "deduct_selling_fee",
      "outputs": [
        {
          "internalType": "uint256",
          "name": "",
          "type": "uint256"
        }
      ],
      "stateMutability": "view",
      "type": "function"
    },
    {
      "inputs": [
        {
          "internalType": "uint256",
          "name": "marketId",
          "type": "uint256"
        },
        {
          "internalType": "address",
          "name": "validator",
          "type": "address"
        }
      ],
      "name": "deniedValidator",
      "outputs": [
        {
          "internalType": "uint256",
          "name": "collateral_amount",
          "type": "uint256"
        }
      ],
      "stateMutability": "nonpayable",
      "type": "function"
    },
    {
      "inputs": [
        {
          "internalType": "uint256",
          "name": "marketId",
          "type": "uint256"
        }
      ],
      "name": "denyMarket",
      "outputs": [],
      "stateMutability": "nonpayable",
      "type": "function"
    },
    {
      "inputs": [
        {
          "internalType": "uint256",
          "name": "marketId",
          "type": "uint256"
        },
        {
          "internalType": "bool",
          "name": "emergency",
          "type": "bool"
        }
      ],
      "name": "forceCloseInstrument",
      "outputs": [
        {
          "internalType": "bool",
          "name": "",
          "type": "bool"
        }
      ],
      "stateMutability": "nonpayable",
      "type": "function"
    },
    {
      "inputs": [
        {
          "internalType": "uint256",
          "name": "requestId",
          "type": "uint256"
        },
        {
          "internalType": "uint256[]",
          "name": "randomWords",
          "type": "uint256[]"
        }
      ],
      "name": "fulfillRandomWords",
      "outputs": [],
      "stateMutability": "nonpayable",
      "type": "function"
    },
    {
      "inputs": [
        {
          "internalType": "uint256",
          "name": "marketId",
          "type": "uint256"
        }
      ],
      "name": "getApprovalData",
      "outputs": [
        {
          "components": [
            {
              "internalType": "uint256",
              "name": "managers_stake",
              "type": "uint256"
            },
            {
              "internalType": "uint256",
              "name": "approved_principal",
              "type": "uint256"
            },
            {
              "internalType": "uint256",
              "name": "approved_yield",
              "type": "uint256"
            }
          ],
          "internalType": "struct Controller.ApprovalData",
          "name": "",
          "type": "tuple"
        }
      ],
      "stateMutability": "view",
      "type": "function"
    },
    {
      "inputs": [
        {
          "internalType": "uint256",
          "name": "marketId",
          "type": "uint256"
        }
      ],
      "name": "getFinalStake",
      "outputs": [
        {
          "internalType": "uint256",
          "name": "",
          "type": "uint256"
        }
      ],
      "stateMutability": "view",
      "type": "function"
    },
    {
      "inputs": [
        {
          "internalType": "uint256",
          "name": "marketId",
          "type": "uint256"
        }
      ],
      "name": "getInitialStake",
      "outputs": [
        {
          "internalType": "uint256",
          "name": "",
          "type": "uint256"
        }
      ],
      "stateMutability": "view",
      "type": "function"
    },
    {
      "inputs": [
        {
          "internalType": "address",
          "name": "recipient",
          "type": "address"
        }
      ],
      "name": "getMarketId",
      "outputs": [
        {
          "internalType": "uint256",
          "name": "",
          "type": "uint256"
        }
      ],
      "stateMutability": "view",
      "type": "function"
    },
    {
      "inputs": [
        {
          "internalType": "uint256",
          "name": "vaultId",
          "type": "uint256"
        }
      ],
      "name": "getMarketIds",
      "outputs": [
        {
          "internalType": "uint256[]",
          "name": "",
          "type": "uint256[]"
        }
      ],
      "stateMutability": "view",
      "type": "function"
    },
    {
      "inputs": [
        {
          "internalType": "uint256",
          "name": "marketId",
          "type": "uint256"
        }
      ],
      "name": "getNumApproved",
      "outputs": [
        {
          "internalType": "uint256",
          "name": "",
          "type": "uint256"
        }
      ],
      "stateMutability": "view",
      "type": "function"
    },
    {
      "inputs": [
        {
          "internalType": "uint256",
          "name": "marketId",
          "type": "uint256"
        }
      ],
      "name": "getNumResolved",
      "outputs": [
        {
          "internalType": "uint256",
          "name": "",
          "type": "uint256"
        }
      ],
      "stateMutability": "view",
      "type": "function"
    },
    {
      "inputs": [
        {
          "internalType": "uint256",
          "name": "marketId",
          "type": "uint256"
        }
      ],
      "name": "getTotalStaked",
      "outputs": [
        {
          "internalType": "uint256",
          "name": "",
          "type": "uint256"
        }
      ],
      "stateMutability": "view",
      "type": "function"
    },
    {
      "inputs": [
        {
          "internalType": "uint256",
          "name": "marketId",
          "type": "uint256"
        }
      ],
      "name": "getTotalSupply",
      "outputs": [
        {
          "internalType": "uint256",
          "name": "",
          "type": "uint256"
        }
      ],
      "stateMutability": "view",
      "type": "function"
    },
    {
      "inputs": [
        {
          "internalType": "uint256",
          "name": "marketId",
          "type": "uint256"
        }
      ],
      "name": "getTotalValidatorSales",
      "outputs": [
        {
          "internalType": "uint256",
          "name": "",
          "type": "uint256"
        }
      ],
      "stateMutability": "view",
      "type": "function"
    },
    {
      "inputs": [
        {
          "internalType": "address",
          "name": "trader",
          "type": "address"
        }
      ],
      "name": "getTraderScore",
      "outputs": [
        {
          "internalType": "uint256",
          "name": "",
          "type": "uint256"
        }
      ],
      "stateMutability": "view",
      "type": "function"
    },
    {
      "inputs": [
        {
          "internalType": "uint256",
          "name": "marketId",
          "type": "uint256"
        }
      ],
      "name": "getValidatorCap",
      "outputs": [
        {
          "internalType": "uint256",
          "name": "",
          "type": "uint256"
        }
      ],
      "stateMutability": "view",
      "type": "function"
    },
    {
      "inputs": [
        {
          "internalType": "uint256",
          "name": "marketId",
          "type": "uint256"
        }
      ],
      "name": "getValidatorPrice",
      "outputs": [
        {
          "internalType": "uint256",
          "name": "",
          "type": "uint256"
        }
      ],
      "stateMutability": "view",
      "type": "function"
    },
    {
      "inputs": [
        {
          "internalType": "uint256",
          "name": "marketId",
          "type": "uint256"
        }
      ],
      "name": "getValidatorRequiredCollateral",
      "outputs": [
        {
          "internalType": "uint256",
          "name": "",
          "type": "uint256"
        }
      ],
      "stateMutability": "view",
      "type": "function"
    },
    {
      "inputs": [
        {
          "internalType": "uint256",
          "name": "marketId",
          "type": "uint256"
        }
      ],
      "name": "getVault",
      "outputs": [
        {
          "internalType": "contract Vault",
          "name": "",
          "type": "address"
        }
      ],
      "stateMutability": "view",
      "type": "function"
    },
    {
      "inputs": [
        {
          "internalType": "uint256",
          "name": "marketId",
          "type": "uint256"
        }
      ],
      "name": "getVaultAd",
      "outputs": [
        {
          "internalType": "address",
          "name": "",
          "type": "address"
        }
      ],
      "stateMutability": "view",
      "type": "function"
    },
    {
      "inputs": [
        {
          "internalType": "uint256",
          "name": "vaultId",
          "type": "uint256"
        }
      ],
      "name": "getVaultfromId",
      "outputs": [
        {
          "internalType": "address",
          "name": "",
          "type": "address"
        }
      ],
      "stateMutability": "view",
      "type": "function"
    },
    {
      "inputs": [
        {
          "internalType": "uint256",
          "name": "marketId",
          "type": "uint256"
        },
        {
          "internalType": "address",
          "name": "validator",
          "type": "address"
        }
      ],
      "name": "hasApproved",
      "outputs": [
        {
          "internalType": "bool",
          "name": "",
          "type": "bool"
        }
      ],
      "stateMutability": "view",
      "type": "function"
    },
    {
      "inputs": [
        {
          "internalType": "uint256",
          "name": "",
          "type": "uint256"
        }
      ],
      "name": "id_parent",
      "outputs": [
        {
          "internalType": "uint256",
          "name": "",
          "type": "uint256"
        }
      ],
      "stateMutability": "view",
      "type": "function"
    },
    {
      "inputs": [
        {
          "internalType": "address",
          "name": "recipient",
          "type": "address"
        },
        {
          "components": [
            {
              "internalType": "bytes32",
              "name": "name",
              "type": "bytes32"
            },
            {
              "internalType": "bool",
              "name": "isPool",
              "type": "bool"
            },
            {
              "internalType": "bool",
              "name": "trusted",
              "type": "bool"
            },
            {
              "internalType": "uint256",
              "name": "balance",
              "type": "uint256"
            },
            {
              "internalType": "uint256",
              "name": "faceValue",
              "type": "uint256"
            },
            {
              "internalType": "uint256",
              "name": "marketId",
              "type": "uint256"
            },
            {
              "internalType": "uint256",
              "name": "principal",
              "type": "uint256"
            },
            {
              "internalType": "uint256",
              "name": "expectedYield",
              "type": "uint256"
            },
            {
              "internalType": "uint256",
              "name": "duration",
              "type": "uint256"
            },
            {
              "internalType": "string",
              "name": "description",
              "type": "string"
            },
            {
              "internalType": "address",
              "name": "instrument_address",
              "type": "address"
            },
            {
              "internalType": "enum Vault.InstrumentType",
              "name": "instrument_type",
              "type": "uint8"
            },
            {
              "internalType": "uint256",
              "name": "maturityDate",
              "type": "uint256"
            },
            {
              "components": [
                {
                  "internalType": "uint256",
                  "name": "saleAmount",
                  "type": "uint256"
                },
                {
                  "internalType": "uint256",
                  "name": "initPrice",
                  "type": "uint256"
                },
                {
                  "internalType": "uint256",
                  "name": "promisedReturn",
                  "type": "uint256"
                },
                {
                  "internalType": "uint256",
                  "name": "inceptionTime",
                  "type": "uint256"
                },
                {
                  "internalType": "uint256",
                  "name": "inceptionPrice",
                  "type": "uint256"
                },
                {
                  "internalType": "uint256",
                  "name": "leverageFactor",
                  "type": "uint256"
                },
                {
                  "internalType": "uint256",
                  "name": "managementFee",
                  "type": "uint256"
                }
              ],
              "internalType": "struct Vault.PoolData",
              "name": "poolData",
              "type": "tuple"
            }
          ],
          "internalType": "struct Vault.InstrumentData",
          "name": "instrumentData",
          "type": "tuple"
        },
        {
          "internalType": "uint256",
          "name": "vaultId",
          "type": "uint256"
        }
      ],
      "name": "initiateMarket",
      "outputs": [],
      "stateMutability": "nonpayable",
      "type": "function"
    },
    {
      "inputs": [
        {
          "internalType": "address",
          "name": "trader",
          "type": "address"
        },
        {
          "internalType": "uint256",
          "name": "r",
          "type": "uint256"
        }
      ],
      "name": "isReputable",
      "outputs": [
        {
          "internalType": "bool",
          "name": "",
          "type": "bool"
        }
      ],
      "stateMutability": "view",
      "type": "function"
    },
    {
      "inputs": [
        {
          "internalType": "uint256",
          "name": "marketId",
          "type": "uint256"
        },
        {
          "internalType": "address",
          "name": "user",
          "type": "address"
        }
      ],
      "name": "isValidator",
      "outputs": [
        {
          "internalType": "bool",
          "name": "",
          "type": "bool"
        }
      ],
      "stateMutability": "view",
      "type": "function"
    },
    {
      "inputs": [
        {
          "internalType": "address",
          "name": "addr",
          "type": "address"
        }
      ],
      "name": "isVerified",
      "outputs": [
        {
          "internalType": "bool",
          "name": "",
          "type": "bool"
        }
      ],
      "stateMutability": "view",
      "type": "function"
    },
    {
      "inputs": [
        {
          "internalType": "uint256",
          "name": "marketId",
          "type": "uint256"
        }
      ],
      "name": "marketCondition",
      "outputs": [
        {
          "internalType": "bool",
          "name": "",
          "type": "bool"
        }
      ],
      "stateMutability": "view",
      "type": "function"
    },
    {
      "inputs": [
        {
          "internalType": "uint256",
          "name": "marketId",
          "type": "uint256"
        }
      ],
      "name": "marketIdToVaultId",
      "outputs": [
        {
          "internalType": "uint256",
          "name": "",
          "type": "uint256"
        }
      ],
      "stateMutability": "view",
      "type": "function"
    },
    {
      "inputs": [
        {
          "internalType": "uint256",
          "name": "marketId",
          "type": "uint256"
        }
      ],
      "name": "marketId_to_vaultId",
      "outputs": [
        {
          "internalType": "uint256",
          "name": "",
          "type": "uint256"
        }
      ],
      "stateMutability": "view",
      "type": "function"
    },
    {
      "inputs": [
        {
          "internalType": "uint256",
          "name": "",
          "type": "uint256"
        }
      ],
      "name": "market_data",
      "outputs": [
        {
          "internalType": "address",
          "name": "instrument_address",
          "type": "address"
        },
        {
          "internalType": "address",
          "name": "utilizer",
          "type": "address"
        }
      ],
      "stateMutability": "view",
      "type": "function"
    },
    {
      "inputs": [
        {
          "internalType": "uint256",
          "name": "marketId",
          "type": "uint256"
        },
        {
          "internalType": "uint256",
          "name": "amount",
          "type": "uint256"
        }
      ],
      "name": "pullLeverage",
      "outputs": [],
      "stateMutability": "nonpayable",
      "type": "function"
    },
    {
      "inputs": [
        {
          "internalType": "uint256",
          "name": "marketId",
          "type": "uint256"
        },
        {
          "internalType": "address",
          "name": "validator",
          "type": "address"
        }
      ],
      "name": "redeemValidator",
      "outputs": [],
      "stateMutability": "nonpayable",
      "type": "function"
    },
    {
      "inputs": [
        {
          "internalType": "uint256",
          "name": "amount",
          "type": "uint256"
        },
        {
          "internalType": "address",
          "name": "to",
          "type": "address"
        },
        {
          "internalType": "uint256",
          "name": "marketId",
          "type": "uint256"
        }
      ],
      "name": "redeem_transfer",
      "outputs": [],
      "stateMutability": "nonpayable",
      "type": "function"
    },
    {
      "inputs": [
        {
          "internalType": "uint256",
          "name": "marketId",
          "type": "uint256"
        }
      ],
      "name": "resolveCondition",
      "outputs": [
        {
          "internalType": "bool",
          "name": "",
          "type": "bool"
        }
      ],
      "stateMutability": "view",
      "type": "function"
    },
    {
      "inputs": [
        {
          "internalType": "uint256",
          "name": "marketId",
          "type": "uint256"
        }
      ],
      "name": "resolveMarket",
      "outputs": [],
      "stateMutability": "nonpayable",
      "type": "function"
    },
    {
      "inputs": [],
      "name": "riskTransferPenalty",
      "outputs": [
        {
          "internalType": "uint256",
          "name": "",
          "type": "uint256"
        }
      ],
      "stateMutability": "view",
      "type": "function"
    },
    {
      "inputs": [
        {
          "internalType": "address",
          "name": "_marketManager",
          "type": "address"
        }
      ],
      "name": "setMarketManager",
      "outputs": [],
      "stateMutability": "nonpayable",
      "type": "function"
    },
    {
      "inputs": [
        {
          "internalType": "address",
          "name": "_poolFactory",
          "type": "address"
        }
      ],
      "name": "setPoolFactory",
      "outputs": [],
      "stateMutability": "nonpayable",
      "type": "function"
    },
    {
      "inputs": [
        {
          "internalType": "address",
          "name": "_reputationManager",
          "type": "address"
        }
      ],
      "name": "setReputationManager",
      "outputs": [],
      "stateMutability": "nonpayable",
      "type": "function"
    },
    {
      "inputs": [
        {
          "internalType": "address",
          "name": "_vaultFactory",
          "type": "address"
        }
      ],
      "name": "setVaultFactory",
      "outputs": [],
      "stateMutability": "nonpayable",
      "type": "function"
    },
    {
      "inputs": [
        {
          "internalType": "uint256",
          "name": "marketId",
          "type": "uint256"
        }
      ],
      "name": "testApproveMarket",
      "outputs": [],
      "stateMutability": "nonpayable",
      "type": "function"
    },
    {
      "inputs": [
        {
          "internalType": "uint256",
          "name": "marketId",
          "type": "uint256"
        }
      ],
      "name": "testResolveMarket",
      "outputs": [],
      "stateMutability": "nonpayable",
      "type": "function"
    },
    {
      "inputs": [],
      "name": "testVerifyAddress",
      "outputs": [],
      "stateMutability": "nonpayable",
      "type": "function"
    },
    {
      "inputs": [
        {
          "internalType": "uint256",
          "name": "marketId",
          "type": "uint256"
        }
      ],
      "name": "unlockValidatorStake",
      "outputs": [],
      "stateMutability": "nonpayable",
      "type": "function"
    },
    {
      "inputs": [
        {
          "internalType": "uint256",
          "name": "marketId",
          "type": "uint256"
        },
        {
          "internalType": "address",
          "name": "trader",
          "type": "address"
        },
        {
          "internalType": "bool",
          "name": "increment",
          "type": "bool"
        }
      ],
      "name": "updateReputation",
      "outputs": [],
      "stateMutability": "nonpayable",
      "type": "function"
    },
    {
      "inputs": [
        {
          "internalType": "uint256",
          "name": "marketId",
          "type": "uint256"
        }
      ],
      "name": "validatorApprove",
      "outputs": [
        {
          "internalType": "uint256",
          "name": "",
          "type": "uint256"
        }
      ],
      "stateMutability": "nonpayable",
      "type": "function"
    },
    {
      "inputs": [
        {
          "internalType": "uint256",
          "name": "marketId",
          "type": "uint256"
        }
      ],
      "name": "validatorResolve",
      "outputs": [],
      "stateMutability": "nonpayable",
      "type": "function"
    },
    {
      "inputs": [
        {
          "internalType": "uint256",
          "name": "",
          "type": "uint256"
        }
      ],
      "name": "validator_data",
      "outputs": [
        {
          "internalType": "uint256",
          "name": "val_cap",
          "type": "uint256"
        },
        {
          "internalType": "uint256",
          "name": "avg_price",
          "type": "uint256"
        },
        {
          "internalType": "bool",
          "name": "requested",
          "type": "bool"
        },
        {
          "internalType": "uint256",
          "name": "totalSales",
          "type": "uint256"
        },
        {
          "internalType": "uint256",
          "name": "totalStaked",
          "type": "uint256"
        },
        {
          "internalType": "uint256",
          "name": "numApproved",
          "type": "uint256"
        },
        {
          "internalType": "uint256",
          "name": "initialStake",
          "type": "uint256"
        },
        {
          "internalType": "uint256",
          "name": "finalStake",
          "type": "uint256"
        },
        {
          "internalType": "uint256",
          "name": "numResolved",
          "type": "uint256"
        }
      ],
      "stateMutability": "view",
      "type": "function"
    },
    {
      "inputs": [
        {
          "internalType": "uint256",
          "name": "",
          "type": "uint256"
        },
        {
          "internalType": "uint256",
          "name": "",
          "type": "uint256"
        }
      ],
      "name": "vault_to_marketIds",
      "outputs": [
        {
          "internalType": "uint256",
          "name": "",
          "type": "uint256"
        }
      ],
      "stateMutability": "view",
      "type": "function"
    },
    {
      "inputs": [
        {
          "internalType": "uint256",
          "name": "",
          "type": "uint256"
        }
      ],
      "name": "vaults",
      "outputs": [
        {
          "internalType": "contract Vault",
          "name": "",
          "type": "address"
        }
      ],
      "stateMutability": "view",
      "type": "function"
    },
    {
      "inputs": [
        {
          "internalType": "address",
          "name": "",
          "type": "address"
        }
      ],
      "name": "verified",
      "outputs": [
        {
          "internalType": "bool",
          "name": "",
          "type": "bool"
        }
      ],
      "stateMutability": "view",
      "type": "function"
    },
    {
      "inputs": [
        {
          "internalType": "uint256",
          "name": "marketId",
          "type": "uint256"
        }
      ],
      "name": "viewValidators",
      "outputs": [
        {
          "internalType": "address[]",
          "name": "",
          "type": "address[]"
        }
      ],
      "stateMutability": "view",
      "type": "function"
    }
  ],
  "transactionHash": "0xb049b1adb8067d404cfe204c8ce37bad187c2ca810253e0b6af21c079a8a2d6b",
  "args": [
    "0xf39Fd6e51aad88F6F4ce6aB8827279cffFb92266",
    "0x0000000000000000000000000000000000000000"
  ],
  "numDeployments": 1,
  "solcInputHash": "2d53558506ccf879b09e18a2ffbd9289",
  "bytecode": "0x60806040523480156200001157600080fd5b506040516200605f3803806200605f833981016040819052620000349162000078565b50600780546001600160a01b0319166001600160a01b0392909216919091179055620000b0565b80516001600160a01b03811681146200007357600080fd5b919050565b600080604083850312156200008c57600080fd5b62000097836200005b565b9150620000a7602084016200005b565b90509250929050565b615f9f80620000c06000396000f3fe608060405234801561001057600080fd5b50600436106103af5760003560e01c80638c64ea4a116101f4578063b9209e331161011a578063d82aff11116100ad578063e8e3fbb71161007c578063e8e3fbb714610a53578063ebd4dc4614610a66578063f0fd1d3814610a89578063f25fcc9f14610a9c57600080fd5b8063d82aff1114610a07578063da0a697f14610a1a578063dda10bca14610a2d578063e8a7802614610a4057600080fd5b8063ce93ec67116100e9578063ce93ec671461046a578063d1227136146109be578063d466461c146109d1578063d65ec964146109f457600080fd5b8063b9209e33146108d5578063c3f956fa14610901578063c4abc650146107e8578063c8fa33e71461091457600080fd5b80639403b63411610192578063ad4e4e7011610161578063ad4e4e701461087c578063b1b7e1f21461088f578063b37eedcd146108af578063b743939b146108c257600080fd5b80639403b634146107e85780639fe1458b146107fb578063a40c63f714610824578063ac1b6b011461084757600080fd5b80638f5709a5116101ce5780638f5709a51461077f5780638fbbc8681461079257806392ab723e146107b2578063937b6feb146107c557600080fd5b80638c64ea4a146106d75780638d4f16d7146107185780638dc3d9b41461076c57600080fd5b80633ec8dc3b116102d957806356a837f411610277578063805798ac11610246578063805798ac1461065357806381e1b07c14610676578063830e2a02146106a1578063875e487e146106b457600080fd5b806356a837f4146105fe5780636399d03d1461061157806365bc5ef9146106245780637789ec5a1461063357600080fd5b8063482c0aa8116102b3578063482c0aa8146105b2578063494ef447146105c55780634c503980146105d85780634cb44087146105eb57600080fd5b80633ec8dc3b1461056c578063457a89f61461058c578063473597a01461059f57600080fd5b80632358d5a811610351578063340e04b311610320578063340e04b31461051057806337bc93b01461052357806338ba4614146105465780633ea7fbdb1461055957600080fd5b80632358d5a81461048a57806323f2a73f146104c75780632b858734146104da5780632f8899f3146104ed57600080fd5b806308ad90a51161038d57806308ad90a5146104215780630c33df18146104345780630db065f41461044757806314f2b14c1461046a57600080fd5b806303cccb35146103b457806305a1ce99146103d857806308a8333f14610400575b600080fd5b6103d6336000908152600160208190526040909120805460ff19169091179055565b005b6103eb6103e6366004614e47565b610ac5565b60405190151581526020015b60405180910390f35b61041361040e366004614e47565b610b08565b6040519081526020016103f7565b61041361042f366004614e88565b610c4e565b6103eb610442366004614ebe565b610cbd565b6103eb610455366004614e88565b60016020526000908152604090205460ff1681565b610413610478366004614e47565b60009081526005602052604090205490565b6103eb610498366004614eee565b6000828152600d602090815260408083206001600160a01b038516845260010190915290205460ff1692915050565b6103eb6104d5366004614eee565b610d98565b6103d66104e8366004614e47565b610e12565b6104136104fb366004614e47565b6000908152600d602052604090206008015490565b6103d661051e366004614fcb565b610fe0565b610413610531366004614e47565b6000908152600d602052604090206007015490565b6103d66105543660046150b9565b611099565b6103d6610567366004614e88565b6112e4565b61057f61057a366004614e47565b611345565b6040516103f7919061515b565b6103d661059a366004614e47565b6113b4565b6103d66105ad366004614e88565b611608565b6104136105c03660046151a8565b611669565b6103d66105d33660046151ca565b61169a565b6103d66105e636600461520c565b61183b565b6103d66105f9366004614e47565b611b26565b6103d661060c366004614e88565b611c46565b6103d661061f366004614e47565b611ca7565b61041367016345785d8a000081565b610413610641366004614e88565b60036020526000908152604090205481565b610413610661366004614e47565b6000908152600d602052604090206009015490565b6103eb610684366004614e47565b6000908152600d602052604090206003810154600c909101541490565b6104136106af366004614eee565b611dad565b6104136106c2366004614e47565b6000908152600d60205260409020600a015490565b6107006106e5366004614e47565b6004602052600090815260409020546001600160a01b031681565b6040516001600160a01b0390911681526020016103f7565b61074c610726366004614e47565b600260205260009081526040902080546001909101546001600160a01b03918216911682565b604080516001600160a01b039384168152929091166020830152016103f7565b6103d661077a366004614e47565b611e4d565b6103d661078d366004614eee565b612066565b6104136107a0366004614e47565b60056020526000908152604090205481565b6104136107c0366004614e47565b6120cb565b6104136107d3366004614e47565b6000908152600d60205260409020600b015490565b6107006107f6366004614e47565b612176565b610700610809366004614e47565b6000908152600460205260409020546001600160a01b031690565b610413610832366004614e47565b6000908152600d602052604090206005015490565b61085a610855366004614e47565b61219e565b60408051825181526020808401519082015291810151908201526060016103f7565b6103d661088a366004614e47565b6121d0565b6108a261089d366004614e47565b6122a9565b6040516103f7919061526a565b6103d66108bd366004614e47565b61230a565b6103eb6108d0366004614e47565b6123c3565b6103eb6108e3366004614e88565b6001600160a01b031660009081526001602052604090205460ff1690565b6103d661090f366004614e47565b6126b6565b610974610922366004614e47565b600d602052600090815260409020600481015460058201546006830154600784015460088501546009860154600a870154600b880154600c909801549697959660ff9095169593949293919290919089565b60408051998a5260208a0198909852951515968801969096526060870193909352608086019190915260a085015260c084015260e0830191909152610100820152610120016103f7565b6104136109cc366004614e47565b6127f8565b6104136109df366004614e47565b6000908152600d602052604090206004015490565b610413610a02366004614e47565b612b60565b6103d6610a15366004614e88565b612c1b565b6103d6610a283660046151a8565b612c8f565b610413610a3b3660046152a2565b612d0f565b6103eb610a4e3660046152ce565b612d6c565b6103d6610a613660046153ed565b612de2565b610413610a74366004614e47565b6000908152600d60205260409020600c015490565b6103d6610a9736600461552f565b61357c565b610413610aaa366004614e88565b6001600160a01b031660009081526003602052604090205490565b6000818152600d60205260408120600481015460079091015410801590610b0257506000828152600d602052604090206009810154600390910154145b92915050565b600080610b1483612176565b6001600160a01b0316639ec4d40e846040518263ffffffff1660e01b8152600401610b4191815260200190565b600060405180830381865afa158015610b5e573d6000803e3d6000fd5b505050506040513d6000823e601f3d908101601f19168201604052610b86919081019061565b565b6101000151670de0b6b3a764000042610b9e86612176565b6001600160a01b0316639ec4d40e876040518263ffffffff1660e01b8152600401610bcb91815260200190565b600060405180830381865afa158015610be8573d6000803e3d6000fd5b505050506040513d6000823e601f3d908101601f19168201604052610c10919081019061565b565b6101800151610c1f9190615797565b610c2991906157aa565b610c3391906157df565b9050610c478167016345785d8a000061360e565b9392505050565b600b546040516344c7439360e01b81526001600160a01b03838116600483015260009216906344c7439390602401602060405180830381865afa158015610c99573d6000803e3d6000fd5b505050506040513d601f19601f82011682018060405250810190610b0291906157f3565b60008281526005602090815260408083205483526004918290528083205490516359dc5c6f60e01b81529182018590526001600160a01b03169081906359dc5c6f90602401600060405180830381600087803b158015610d1c57600080fd5b505af1158015610d30573d6000803e3d6000fd5b5050604051630ae161cd60e21b8152600481018790526001600160a01b0384169250632b8587349150602401600060405180830381600087803b158015610d7657600080fd5b505af1158015610d8a573d6000803e3d6000fd5b506001979650505050505050565b6000828152600d60205260408120600301815b8154811015610e0757836001600160a01b0316828281548110610dd057610dd061580c565b6000918252602090912001546001600160a01b031603610df557600192505050610b02565b80610dff81615822565b915050610dab565b506000949350505050565b600854604051638a6cac3d60e01b81526004810183905260009182916001600160a01b0390911690638a6cac3d9060240160c060405180830381865afa158015610e60573d6000803e3d6000fd5b505050506040513d601f19601f82011682018060405250810190610e84919061583b565b505093505050915081158015610e975750805b610ee85760405162461bcd60e51b815260206004820152601960248201527f6d61726b657420636f6e646974696f6e73206e6f74206d65740000000000000060448201526064015b60405180910390fd5b6000838152600d602052604090206003810154600c9091015414610f625760405162461bcd60e51b815260206004820152602b60248201527f6e6f7420656e6f7567682076616c696461746f7273206861766520766f74656460448201526a20746f207265736f6c766560a81b6064820152608401610edf565b600083815260056020908152604080832054835260049182905291829020549151630ae161cd60e21b81529081018590526001600160a01b0390911690632b858734906024015b600060405180830381600087803b158015610fc357600080fd5b505af1158015610fd7573d6000803e3d6000fd5b50505050505050565b60095460405163da33133360e01b815260009182916001600160a01b039091169063da33133390611021908b9030908c908c908c908c908c90600401615906565b60408051808303816000875af115801561103f573d6000803e3d6000fd5b505050506040513d601f19601f820116820180604052508101906110639190615955565b600090815260046020526040902080546001600160a01b0319166001600160a01b03929092169190911790555050505050505050565b6000828152600c6020526040808220546008549151632a4a9dd160e01b81526004810182905290929182916001600160a01b0390911690632a4a9dd19060240161010060405180830381865afa1580156110f7573d6000803e3d6000fd5b505050506040513d601f19601f8201168201806040525081019061111b9190615983565b5050955050505050915081845114611135576111356159e0565b60008381526002602052604080822060010154600b549151631535c04160e11b8152600481018590526001600160a01b039182166024820181905293929190911690632a6b808290604401600060405180830381865afa15801561119d573d6000803e3d6000fd5b505050506040513d6000823e601f3d908101601f191682016040526111c591908101906159f6565b805190915060005b858160ff1610156112d957600061120184848b8560ff16815181106111f4576111f461580c565b6020026020010151613623565b9050600d600089815260200190815260200160002060030184828151811061122b5761122b61580c565b60209081029190910181015182546001808201855560009485529290932090920180546001600160a01b0319166001600160a01b039093169290921790915584906112769085615797565b815181106112865761128661580c565b60200260200101518482815181106112a0576112a061580c565b6001600160a01b0390921660209283029190910190910152826112c281615a85565b9350505080806112d190615a9c565b9150506111cd565b505050505050505050565b6008546001600160a01b031633148061130757506007546001600160a01b031633145b6113235760405162461bcd60e51b8152600401610edf90615abb565b600980546001600160a01b0319166001600160a01b0392909216919091179055565b6000818152600d60209081526040918290206003018054835181840281018401909452808452606093928301828280156113a857602002820191906000526020600020905b81546001600160a01b0316815260019091019060200180831161138a575b50505050509050919050565b600081815260026020526040808220600101546008549151632a4a9dd160e01b8152600481018590526001600160a01b03918216939283921690632a4a9dd19060240161010060405180830381865afa158015611415573d6000803e3d6000fd5b505050506040513d601f19601f820116820180604052508101906114399190615983565b5050600b54604051631535c04160e11b8152600481018390526001600160a01b038b81166024830152979950919750600096169450632a6b8082935060440191506114819050565b600060405180830381865afa15801561149e573d6000803e3d6000fd5b505050506040513d6000823e601f3d908101601f191682016040526114c691908101906159f6565b9050828151116115b8576000858152600d6020908152604090912082516114f592600390920191840190614dcd565b5082815110156115b157600854815160405163555f8d2d60e01b81526004810188905260248101919091526001600160a01b039091169063555f8d2d90604401600060405180830381600087803b15801561154f57600080fd5b505af1158015611563573d6000803e3d6000fd5b505060405162461bcd60e51b815260206004820152601860248201527f6e6f7420656e6f7567682072617465642074726164657273000000000000000060448201526064019150610edf9050565b5050505050565b5050506000828152600d602090815260408220600601805460ff19166001908117909155909152600c9052507fd421a5181c571bba3f01190c922c3b2a896fc1d84e86c9f17ac10e67ebef8b5c55565b6008546001600160a01b031633148061162b57506007546001600160a01b031633145b6116475760405162461bcd60e51b8152600401610edf90615abb565b600a80546001600160a01b0319166001600160a01b0392909216919091179055565b6006602052816000526040600020818154811061168557600080fd5b90600052602060002001600091509150505481565b6008546001600160a01b03163314806116bd57506007546001600160a01b031633145b6116d95760405162461bcd60e51b8152600401610edf90615abb565b600854604051632841c2b760e21b8152600481018590526001600160a01b038481166024830152600092169063a1070adc90604401602060405180830381865afa15801561172b573d6000803e3d6000fd5b505050506040513d601f19601f8201168201806040525081019061174f91906157f3565b905060006117668280670de0b6b3a76400006136e6565b905082156117d957600b546040516370b2466960e11b81526001600160a01b038681166004830152602482018490529091169063e1648cd290604401600060405180830381600087803b1580156117bc57600080fd5b505af11580156117d0573d6000803e3d6000fd5b505050506115b1565b600b5460405163224e1c2d60e01b81526001600160a01b038681166004830152602482018490529091169063224e1c2d90604401600060405180830381600087803b15801561182757600080fd5b505af11580156112d9573d6000803e3d6000fd5b6000868152600260205260409020600101546001600160a01b031633146118b05760405162461bcd60e51b8152602060048201526024808201527f6f6e6c79207574696c697a65722063616e2063616c6c20746869732066756e636044820152633a34b7b760e11b6064820152608401610edf565b600854604051634bee760b60e11b8152600481018890526001600160a01b03909116906397dcec1690602401602060405180830381865afa1580156118f9573d6000803e3d6000fd5b505050506040513d601f19601f8201168201806040525081019061191d91906157f3565b6001146119635760405162461bcd60e51b81526020600482015260146024820152731a5cc8191d5c9a5b99c8185cdcd95cdcdb595b9d60621b6044820152606401610edf565b600061196e87612176565b6001600160a01b0316639ec4d40e886040518263ffffffff1660e01b815260040161199b91815260200190565b600060405180830381865afa1580156119b8573d6000803e3d6000fd5b505050506040513d6000823e601f3d908101601f191682016040526119e0919081019061565b565b90508060200151611a2c5760405162461bcd60e51b81526020600482015260166024820152751a5b9cdd1c9d5b595b9d081a5cc81b9bdd081c1bdbdb60521b6044820152606401610edf565b611a3587612176565b6001600160a01b031663edb53d3e886040518263ffffffff1660e01b8152600401611a6291815260200190565b602060405180830381865afa158015611a7f573d6000803e3d6000fd5b505050506040513d601f19601f82011682018060405250810190611aa39190615add565b604051634be085d960e01b81526001600160a01b03888116600483015260248201889052604482018790526064820186905284151560848301529190911690634be085d99060a401600060405180830381600087803b158015611b0557600080fd5b505af1158015611b19573d6000803e3d6000fd5b5050505050505050505050565b80611b318133610d98565b80611b4657506007546001600160a01b031633145b611b625760405162461bcd60e51b8152600401610edf90615afa565b60008281526005602090815260408083205483526004918290529182902054915163d746d3ef60e01b81529081018490526001600160a01b039091169063d746d3ef90602401600060405180830381600087803b158015611bc257600080fd5b505af1158015611bd6573d6000803e3d6000fd5b50505050611be382613704565b600854604051634cb4408760e01b8152600481018490526001600160a01b0390911690634cb44087906024015b600060405180830381600087803b158015611c2a57600080fd5b505af1158015611c3e573d6000803e3d6000fd5b505050505050565b6008546001600160a01b0316331480611c6957506007546001600160a01b031633145b611c855760405162461bcd60e51b8152600401610edf90615abb565b600b80546001600160a01b0319166001600160a01b0392909216919091179055565b80611cb28133610d98565b80611cc757506007546001600160a01b031633145b611ce35760405162461bcd60e51b8152600401610edf90615afa565b600082815260056020908152604080832054835260049182905280832054905163709a664160e11b81529182018590528291829182916001600160a01b039091169063e134cc82906024016080604051808303816000875af1158015611d4d573d6000803e3d6000fd5b505050506040513d601f19601f82011682018060405250810190611d719190615b18565b9350935093509350611d8686858585856137bc565b600086815260208190526040902060010154611da490879084613a72565b611c3e86613704565b6008546000906001600160a01b0316331480611dd357506007546001600160a01b031633145b611def5760405162461bcd60e51b8152600401610edf90615abb565b6000838152600d6020908152604080832060058101546001600160a01b0387168552925290912054611e209161360e565b6000938452600d602090815260408086206001600160a01b03909516865293905291832092909255919050565b611e578133610d98565b611e905760405162461bcd60e51b815260206004820152600a60248201526910bb30b634b230ba37b960b11b6044820152606401610edf565b6000818152600d6020908152604080832033845260010190915290205460ff16611ee55760405162461bcd60e51b8152602060048201526006602482015265217374616b6560d01b6044820152606401610edf565b600854604051638a6cac3d60e01b8152600481018390526000916001600160a01b031690638a6cac3d9060240160c060405180830381865afa158015611f2f573d6000803e3d6000fd5b505050506040513d601f19601f82011682018060405250810190611f53919061583b565b50505060008581526005602090815260408083205483526004909152902054929350506001600160a01b0390911690508115611fee576000838152600d60205260409020600a0154611fba903390611faa86612176565b6001600160a01b03169190613c94565b6000838152600d60205260408120600a8101546008909101805491929091611fe3908490615797565b9091555061203e9050565b6000838152600d60205260409020600b015461200f903390611faa86612176565b6000838152600d60205260408120600b8101546008909101805491929091612038908490615797565b90915550505b50506000908152600d602090815260408083203384526001019091529020805460ff19169055565b6008546001600160a01b031633148061208957506007546001600160a01b031633145b6120a55760405162461bcd60e51b8152600401610edf90615abb565b6000918252600d602090815260408084206001600160a01b039093168452919052812055565b60085460405163054d50b360e21b8152600481018390526000916001600160a01b03169063153542cc90602401602060405180830381865afa158015612115573d6000803e3d6000fd5b505050506040513d601f19601f820116820180604052508101906121399190615add565b6001600160a01b03166318160ddd6040518163ffffffff1660e01b8152600401602060405180830381865afa158015610c99573d6000803e3d6000fd5b600090815260056020908152604080832054835260049091529020546001600160a01b031690565b6121c260405180606001604052806000815260200160008152602001600081525090565b600091825260209190915290565b6121da8133610d98565b61220f5760405162461bcd60e51b8152600401610edf90602080825260049082015263085d985b60e21b604082015260600190565b6000818152600d6020908152604080832033845260020190915290205460ff16156122645760405162461bcd60e51b81526020600482015260056024820152641d9bdd195960da1b6044820152606401610edf565b6000818152600d60208181526040808420338552600281018352908420805460ff19166001179055848452919052600c018054916122a183615822565b919050555050565b6000818152600660209081526040918290208054835181840281018401909452808452606093928301828280156113a857602002820191906000526020600020905b8154815260200190600101908083116122eb5750505050509050919050565b612313816123c3565b61235f5760405162461bcd60e51b815260206004820152601860248201527f6d61726b657420636f6e646974696f6e206e6f74206d657400000000000000006044820152606401610edf565b61236881613d12565b60085460405163cabe2ae160e01b8152600481018390526001600160a01b039091169063cabe2ae1906024015b600060405180830381600087803b1580156123af57600080fd5b505af11580156115b1573d6000803e3d6000fd5b60085460405163b1283e7760e01b81526004810183905260009182916001600160a01b039091169063b1283e7790602401600060405180830381865afa158015612411573d6000803e3d6000fd5b505050506040513d6000823e601f3d908101601f191682016040526124399190810190615b64565b9650505050505050801561253e5761245083612176565b6001600160a01b0316639ec4d40e846040518263ffffffff1660e01b815260040161247d91815260200190565b600060405180830381865afa15801561249a573d6000803e3d6000fd5b505050506040513d6000823e601f3d908101601f191682016040526124c2919081019061565b565b6101a001515160085460405163661f1cf560e01b8152600481018690526001600160a01b039091169063661f1cf590602401602060405180830381865afa158015612511573d6000803e3d6000fd5b505050506040513d601f19601f8201168201806040525081019061253591906157f3565b10159392505050565b600061254984612176565b6001600160a01b0316639ec4d40e856040518263ffffffff1660e01b815260040161257691815260200190565b600060405180830381865afa158015612593573d6000803e3d6000fd5b505050506040513d6000823e601f3d908101601f191682016040526125bb919081019061565b565b60c0015160085460405163c6ceb96b60e01b81526004810187905291925061263f916001600160a01b039091169063c6ceb96b9060240161010060405180830381865afa158015612610573d6000803e3d6000fd5b505050506040513d601f19601f820116820180604052508101906126349190615c04565b60400151829061360e565b60085460405163661f1cf560e01b8152600481018790526001600160a01b039091169063661f1cf590602401602060405180830381865afa158015612688573d6000803e3d6000fd5b505050506040513d601f19601f820116820180604052508101906126ac91906157f3565b1015949350505050565b600081815260056020908152604080832054835260049182905291829020549151630ae161cd60e21b81529081018390526001600160a01b0390911690632b85873490602401600060405180830381600087803b15801561271657600080fd5b505af115801561272a573d6000803e3d6000fd5b505050600082815260056020908152604080832054835260049182905280832054905163709a664160e11b81529182018590529192508291829182916001600160a01b03169063e134cc82906024016080604051808303816000875af1158015612798573d6000803e3d6000fd5b505050506040513d601f19601f820116820180604052508101906127bc9190615b18565b93509350935093506127d185858585856137bc565b6000858152602081905260409020600101546127ef90869084613a72565b6115b185613704565b60006128048233610d98565b6128205760405162461bcd60e51b8152600401610edf90615afa565b612829826123c3565b6128625760405162461bcd60e51b815260206004820152600a60248201526910b1b7b73234ba34b7b760b11b6044820152606401610edf565b6000828152600d60209081526040808320338452600181019092529091205460ff16156128bb5760405162461bcd60e51b8152602060048201526007602482015266085cdd185ad95960ca1b6044820152606401610edf565b6128df333083600a01546128ce87612176565b6001600160a01b0316929190614517565b80600a01548160080160008282546128f79190615c94565b909155505033600090815260018281016020526040808320805460ff19169092179091556008549051632a4a9dd160e01b8152600481018690526001600160a01b0390911690632a4a9dd19060240161010060405180830381865afa158015612964573d6000803e3d6000fd5b505050506040513d601f19601f820116820180604052508101906129889190615983565b50505050505050905060008183600401546129a391906157df565b905060006129be84600501548361360e90919063ffffffff16565b33600090815260208690526040902054909150821015612a0b5760405162461bcd60e51b8152602060048201526008602482015267185c1c1c9bdd995960c21b6044820152606401610edf565b3360009081526020859052604081208054849290612a2a908490615c94565b90915550612a3b9050826001615c94565b846007016000828254612a4e9190615c94565b925050819055506001846009016000828254612a6a9190615c94565b909155505060085460405163334b11d360e11b81526004810188905260248101839052604481018490523360648201526001600160a01b039091169063669623a690608401600060405180830381600087803b158015612ac957600080fd5b505af1158015612add573d6000803e3d6000fd5b50505050612aea86610ac5565b15612b5757612af886613d12565b60085460405163cabe2ae160e01b8152600481018890526001600160a01b039091169063cabe2ae190602401600060405180830381600087803b158015612b3e57600080fd5b505af1158015612b52573d6000803e3d6000fd5b505050505b95945050505050565b6000818152600d60205260408082206004908101546008549251632a4a9dd160e01b81529182018590529183916001600160a01b0390911690632a4a9dd19060240161010060405180830381865afa158015612bc0573d6000803e3d6000fd5b505050506040513d601f19601f82011682018060405250810190612be49190615983565b50505050505050905060008183612bfb91906157df565b6000868152600d6020526040902060050154909150612b5790829061360e565b6008546001600160a01b0316331480612c3e57506007546001600160a01b031633145b612c5a5760405162461bcd60e51b8152600401610edf90615abb565b6001600160a01b038116612c6d57600080fd5b600880546001600160a01b0319166001600160a01b0392909216919091179055565b6008546001600160a01b0316331480612cb257506007546001600160a01b031633145b612cce5760405162461bcd60e51b8152600401610edf90615abb565b612cd782612176565b600854604051633c16f3ed60e21b8152600481018490526001600160a01b03918216602482015291169063f05bcfb490604401611c10565b600080612d1c848661459a565b90506000612d3c612d3583670de0b6b3a7640000615797565b839061360e565b90506000612d4a878661459a565b905082612d57828461360e565b612d619190615c94565b979650505050505050565b600b54604051637453c01360e11b81526001600160a01b03848116600483015260248201849052600092169063e8a7802690604401602060405180830381865afa158015612dbe573d6000803e3d6000fd5b505050506040513d601f19601f82011682018060405250810190610c479190615ca7565b6001600160a01b038316612e085760405162461bcd60e51b8152600401610edf90615cc4565b6101408201516001600160a01b0316612e335760405162461bcd60e51b8152600401610edf90615cc4565b6000818152600460205260409020546001600160a01b0316612e675760405162461bcd60e51b8152600401610edf90615cc4565b600081815260046020818152604080842054600854825163764bc84160e11b815292516001600160a01b039283169695919092169363ec97908293808301939192908290030181865afa158015612ec2573d6000803e3d6000fd5b505050506040513d601f19601f82011682018060405250810190612ee691906157f3565b60008181526005602090815260408083208790558683526006825280832080546001818101835591855283852001859055815180830183526101408a01516001600160a01b0390811682528b8116828601908152878752600290955294839020905181549086166001600160a01b031991821617825593519101805491851691909316179091556008548151637572cb1f60e01b81529151939450821692634e042a5992861691637572cb1f916004808301926101009291908290030181865afa158015612fb8573d6000803e3d6000fd5b505050506040513d601f19601f82011682018060405250810190612fdc9190615c04565b846001600160a01b0316636c321c8a6040518163ffffffff1660e01b8152600401602060405180830381865afa15801561301a573d6000803e3d6000fd5b505050506040513d601f19601f8201168201806040525081019061303e91906157f3565b846040518463ffffffff1660e01b815260040161305d93929190615ce6565b600060405180830381600087803b15801561307757600080fd5b505af115801561308b573d6000803e3d6000fd5b5050600a5460008681526004602081815260408084205481516362eb326360e11b8152915194975087965086956001600160a01b039081169563981f513695919092169363c5d664c693808301939192908290030181865afa1580156130f5573d6000803e3d6000fd5b505050506040513d601f19601f820116820180604052508101906131199190615add565b60085460405160e084901b6001600160e01b03191681526001600160a01b039283166004820152911660248201526044016060604051808303816000875af1158015613169573d6000803e3d6000fd5b505050506040513d601f19601f8201168201806040525081019061318d9190615d08565b925092509250866020015115613345576101a08701805142606090910152518051602082015160809092015160085460405163c6ceb96b60e01b8152600481018990526001600160a01b03868116956334327d8b95949093909291169063c6ceb96b9060240161010060405180830381865afa158015613211573d6000803e3d6000fd5b505050506040513d601f19601f820116820180604052508101906132359190615c04565b602001516040516001600160e01b031960e087901b16815260048101949094526024840192909252604483015260648201526084016020604051808303816000875af1158015613289573d6000803e3d6000fd5b505050506040513d601f19601f820116820180604052508101906132ad91906157f3565b6101a088015160c0015260085461012088015160405163080ec90d60e21b81526001600160a01b039092169163203b2434916132f6918891869189918991600190600401615d76565b600060405180830381600087803b15801561331057600080fd5b505af1158015613324573d6000803e3d6000fd5b5050505061334084886101a001516000015189602001516145af565b6134b0565b60c087015160e088015160085460405163c6ceb96b60e01b8152600481018890526001600160a01b03858116946375e2d946949093909291169063c6ceb96b9060240161010060405180830381865afa1580156133a6573d6000803e3d6000fd5b505050506040513d601f19601f820116820180604052508101906133ca9190615c04565b602001516040516001600160e01b031960e086901b168152600481019390935260248301919091526044820152606401600060405180830381600087803b15801561341457600080fd5b505af1158015613428573d6000803e3d6000fd5b50506008546101208a015160405163080ec90d60e21b81526001600160a01b03909216935063203b2434925061346b918891869189918991600090600401615d76565b600060405180830381600087803b15801561348557600080fd5b505af1158015613499573d6000803e3d6000fd5b505050506134b0848860c0015189602001516145af565b60a087018490526040516398d796e760e01b81526001600160a01b038616906398d796e7906134e3908a90600401615de7565b600060405180830381600087803b1580156134fd57600080fd5b505af1158015613511573d6000803e3d6000fd5b5050604080518781526001600160a01b038c1660208201527f5e2ab39d79551e4c4e66256d806dd566d4d015420519d2ed2621563488a5d2a8935001905060405180910390a15050506001600160a01b03909416600090815260036020526040902093909355505050565b6008546001600160a01b031633148061359f57506007546001600160a01b031633145b6135bb5760405162461bcd60e51b8152600401610edf90615abb565b600081815260056020908152604080832054835260049182905291829020549151633c16f3ed60e21b81529081018590526001600160a01b0384811660248301529091169063f05bcfb490604401610fa9565b6000610c478383670de0b6b3a76400006136e6565b60008060005b848160ff16101561367757613659868260ff168151811061364c5761364c61580c565b6020026020010151610c4e565b6136639083615c94565b91508061366f81615a9c565b915050613629565b5060006136848285615f0f565b905060005b858160ff1610156136dc5760006136ae888360ff168151811061364c5761364c61580c565b9050808310156136c6575060ff169250610c47915050565b90910390806136d481615a9c565b915050613689565b5050509392505050565b60008260001904841183021582026136fd57600080fd5b5091020490565b60085460405163068bcd8d60e01b8152600481018390526001600160a01b039091169063068bcd8d90602401602060405180830381865afa15801561374d573d6000803e3d6000fd5b505050506040513d601f19601f820116820180604052508101906137719190615add565b6001600160a01b03166396fd1c4261378883612176565b6040516001600160e01b031960e084901b1681526001600160a01b0390911660048201526000196024820152604401612395565b83156137d05782156137d0576137d06159e0565b60085460405163054d50b360e21b8152600481018790526000916001600160a01b03169063153542cc90602401602060405180830381865afa15801561381a573d6000803e3d6000fd5b505050506040513d601f19601f8201168201806040525081019061383e9190615add565b6001600160a01b03166318160ddd6040518163ffffffff1660e01b8152600401602060405180830381865afa15801561387b573d6000803e3d6000fd5b505050506040513d601f19601f8201168201806040525081019061389f91906157f3565b905060008085116138b157600061397f565b60085460405163920f4e5560e01b8152600481018990526001600160a01b039091169063920f4e5590602401602060405180830381865afa1580156138fa573d6000803e3d6000fd5b505050506040513d601f19601f8201168201806040525081019061391e9190615add565b6001600160a01b03166318160ddd6040518163ffffffff1660e01b8152600401602060405180830381865afa15801561395b573d6000803e3d6000fd5b505050506040513d601f19601f8201168201806040525081019061397f91906157f3565b90506000866139b55761399c6139958385615c94565b879061459a565b6139ae90670de0b6b3a7640000615c94565b90506139f4565b6139bf858461459a565b670de0b6b3a7640000116139d5575060006139f4565b6139df858461459a565b6139f190670de0b6b3a7640000615797565b90505b6008546040516361fa5af560e01b8152600481018a9052881515602482015285156044820152606481018390526001600160a01b03909116906361fa5af590608401600060405180830381600087803b158015613a5057600080fd5b505af1158015613a64573d6000803e3d6000fd5b505050505050505050505050565b80600003613a975750506000908152600d60205260409020600a810154600b90910155565b60008381526005602090815260408083205483526004918290528083205490516363737ac960e11b81529182018590526001600160a01b03169190829063c6e6f59290602401602060405180830381865afa158015613afa573d6000803e3d6000fd5b505050506040513d601f19601f82011682018060405250810190613b1e91906157f3565b6040516363737ac960e11b8152600481018590529091506000906001600160a01b0384169063c6e6f59290602401602060405180830381865afa158015613b69573d6000803e3d6000fd5b505050506040513d601f19601f82011682018060405250810190613b8d91906157f3565b6000878152600d6020526040812060080154919250613bca613bb06002846157df565b613bc486613bbe8782615797565b9061459a565b9061360e565b613bd56002846157df565b613bdf9190615c94565b9050613bea88612176565b6001600160a01b03166342966c68613c028385615797565b6040518263ffffffff1660e01b8152600401613c2091815260200190565b600060405180830381600087803b158015613c3a57600080fd5b505af1158015613c4e573d6000803e3d6000fd5b5050506000898152600d602052604090206008810183905560030154613c759150826157df565b6000988952600d6020526040909820600b019790975550505050505050565b600060405163a9059cbb60e01b8152836004820152826024820152602060006044836000895af13d15601f3d1160016000511416171691505080613d0c5760405162461bcd60e51b815260206004820152600f60248201526e1514905394d1915497d19052531151608a1b6044820152606401610edf565b50505050565b600081815260056020908152604080832054835260049182905280832054600854915163068bcd8d60e01b81529283018590526001600160a01b03908116939291169063068bcd8d90602401602060405180830381865afa158015613d7b573d6000803e3d6000fd5b505050506040513d601f19601f82011682018060405250810190613d9f9190615add565b600854604051634bee760b60e11b8152600481018690529192506001600160a01b0316906397dcec1690602401602060405180830381865afa158015613de9573d6000803e3d6000fd5b505050506040513d601f19601f82011682018060405250810190613e0d91906157f3565b600314613e4f5760405162461bcd60e51b815260206004820152601060248201526f10b6b0b935b2ba21b7b73234ba34b7b760811b6044820152606401610edf565b60405163238f0e7560e11b8152600481018490526001600160a01b0383169063471e1cea90602401602060405180830381865afa158015613e94573d6000803e3d6000fd5b505050506040513d601f19601f82011682018060405250810190613eb89190615ca7565b613efb5760405162461bcd60e51b815260206004820152601460248201527310b4b739ba393ab6b2b73a21b7b73234ba34b7b760611b6044820152606401610edf565b60085460405163b1283e7760e01b8152600481018590526000916001600160a01b03169063b1283e7790602401600060405180830381865afa158015613f45573d6000803e3d6000fd5b505050506040513d6000823e601f3d908101601f19168201604052613f6d9190810190615b64565b60085460405163661f1cf560e01b8152600481018d9052919850600097506001600160a01b0316955063661f1cf594506024019250613faa915050565b602060405180830381865afa158015613fc7573d6000803e3d6000fd5b505050506040513d601f19601f82011682018060405250810190613feb91906157f3565b905081156141435760085460405163054d50b360e21b81526004810187905261413e9187916001600160a01b039091169063153542cc90602401602060405180830381865afa158015614042573d6000803e3d6000fd5b505050506040513d601f19601f820116820180604052508101906140669190615add565b6001600160a01b03166318160ddd6040518163ffffffff1660e01b8152600401602060405180830381865afa1580156140a3573d6000803e3d6000fd5b505050506040513d601f19601f820116820180604052508101906140c791906157f3565b604051634f626a0760e11b8152600481018990526001600160a01b03881690639ec4d40e90602401600060405180830381865afa15801561410c573d6000803e3d6000fd5b505050506040513d6000823e601f3d908101601f19168201604052614134919081019061565b565b6101a00151614610565b6141c6565b6040516303d972f160e21b8152600481018690526001600160a01b03851690630f65cbc490602401602060405180830381865afa158015614188573d6000803e3d6000fd5b505050506040513d601f19601f820116820180604052508101906141ac91906157f3565b6000036141bd5761413e858461470c565b6141c685614952565b6000858152602081905260409081902082905551634b7e8e2160e11b8152306004820152602481018290526001600160a01b038416906396fd1c4290604401600060405180830381600087803b15801561421f57600080fd5b505af1158015614233573d6000803e3d6000fd5b50505050826001600160a01b03166390f817026040518163ffffffff1660e01b8152600401602060405180830381865afa158015614275573d6000803e3d6000fd5b505050506040513d601f19601f820116820180604052508101906142999190615add565b6001600160a01b031663095ea7b3856001600160a01b03166350c6e6cf886040518263ffffffff1660e01b81526004016142d591815260200190565b602060405180830381865afa1580156142f2573d6000803e3d6000fd5b505050506040513d601f19601f820116820180604052508101906143169190615add565b6040516001600160e01b031960e084901b1681526001600160a01b039091166004820152602481018490526044016020604051808303816000875af1158015614363573d6000803e3d6000fd5b505050506040513d601f19601f820116820180604052508101906143879190615ca7565b506040516350c6e6cf60e01b8152600481018690526001600160a01b038516906350c6e6cf90602401602060405180830381865afa1580156143cd573d6000803e3d6000fd5b505050506040513d601f19601f820116820180604052508101906143f19190615add565b6001600160a01b031663d832f791826040518263ffffffff1660e01b815260040161441e91815260200190565b600060405180830381600087803b15801561443857600080fd5b505af115801561444c573d6000803e3d6000fd5b505050600086815260208190526040908190209051624e1afd60e81b8152600481018890528154602482015260018201546044820152600290910154606482015283151560848201526001600160a01b0386169150634e1afd009060a401600060405180830381600087803b1580156144c457600080fd5b505af11580156144d8573d6000803e3d6000fd5b50505050826001600160a01b0316638d01450f6040518163ffffffff1660e01b8152600401600060405180830381600087803b15801561182757600080fd5b60006040516323b872dd60e01b81528460048201528360248201528260448201526020600060648360008a5af13d15601f3d11600160005114161716915050806115b15760405162461bcd60e51b81526020600482015260146024820152731514905394d1915497d19493d357d1905253115160621b6044820152606401610edf565b6000610c4783670de0b6b3a7640000846136e6565b816000036145ed5760405162461bcd60e51b815260206004820152600b60248201526a0c081c1c9a5b98da5c185b60aa1b6044820152606401610edf565b6145f6836113b4565b614601838383614a18565b61460b8383614bfa565b505050565b60008160a00151116146535760405162461bcd60e51b815260206004820152600c60248201526b18102622ab2fa320a1aa27a960a11b6044820152606401610edf565b60405180606001604052806000815260200161468f8360800151613bc48560a00151670de0b6b3a76400006146889190615c94565b879061360e565b8152600060209182018190528581528082526040908190208351815583830151600182015592810151600290930192909255815180830190925260098252681c1c9a5b98da5c185b60ba1b90820152608082015160a083015161460b929161470791613bc49061468890670de0b6b3a7640000615c94565b614d2d565b60008281526005602090815260408083205483526004918290528083205490516318353be960e21b815291820185905282916001600160a01b03909116906360d4efa4906024016040805180830381865afa15801561476f573d6000803e3d6000fd5b505050506040513d601f19601f820116820180604052508101906147939190615f23565b60085460405163661f1cf560e01b81526004810188905292945090925060009161489b91614895916001600160a01b039091169063661f1cf590602401602060405180830381865afa1580156147ed573d6000803e3d6000fd5b505050506040513d601f19601f8201168201806040525081019061481191906157f3565b60085460405163c6ceb96b60e01b8152600481018a9052670de0b6b3a7640000916001600160a01b03169063c6ceb96b9060240161010060405180830381865afa158015614863573d6000803e3d6000fd5b505050506040513d601f19601f820116820180604052508101906148879190615c04565b60c00151613bc49190615c94565b84614d76565b90506000614911856001600160a01b03166314e2b929846040518263ffffffff1660e01b81526004016148d091815260200190565b602060405180830381865afa1580156148ed573d6000803e3d6000fd5b505050506040513d601f19601f8201168201806040525081019061489591906157f3565b604080516060810182526000808252602080830196875282840194855299815298899052972096518755915160018701555051600290940193909355505050565b60008181526005602090815260408083205483526004918290528083205490516318353be960e21b815291820184905282916001600160a01b03909116906360d4efa4906024016040805180830381865afa1580156149b5573d6000803e3d6000fd5b505050506040513d601f19601f820116820180604052508101906149d99190615f23565b60408051606081018252600080825260208083019586528284019485529781529687905295209451855590516001850155516002909301929092555050565b60085460405163068bcd8d60e01b8152600481018590526000916001600160a01b03169063068bcd8d90602401602060405180830381865afa158015614a62573d6000803e3d6000fd5b505050506040513d601f19601f82011682018060405250810190614a869190615add565b600854604051632a4a9dd160e01b8152600481018790529192506000916001600160a01b0390911690632a4a9dd19060240161010060405180830381865afa158015614ad6573d6000803e3d6000fd5b505050506040513d601f19601f82011682018060405250810190614afa9190615983565b505050505050915050614b0c81614d8d565b8015614b1c5750614b1c84614d8d565b614b535760405162461bcd60e51b81526020600482015260086024820152673830b930b6a2a92960c11b6044820152606401610edf565b6000858152600d6020526040812090614b6c838761360e565b90506000846001600160a01b0316637063b06c6040518163ffffffff1660e01b8152600401602060405180830381865afa158015614bae573d6000803e3d6000fd5b505050506040513d601f19601f82011682018060405250810190614bd291906157f3565b90506000614be0838361459a565b600485019290925550600590920191909155505050505050565b60008281526005602090815260408083205483526004918290528083205490516363737ac960e11b81529182018490526001600160a01b03169190829063c6e6f59290602401602060405180830381865afa158015614c5d573d6000803e3d6000fd5b505050506040513d601f19601f82011682018060405250810190614c8191906157f3565b600854604051632a4a9dd160e01b8152600481018790529192506000916001600160a01b0390911690632a4a9dd19060240161010060405180830381865afa158015614cd1573d6000803e3d6000fd5b505050506040513d601f19601f82011682018060405250810190614cf59190615983565b975050505050505050614d11828261360e90919063ffffffff16565b6000958652600d6020526040909520600a019490945550505050565b614d728282604051602401614d43929190615f47565b60408051601f198184030181529190526020810180516001600160e01b03166309710a9d60e41b179052614dac565b5050565b600081831115614d865781610c47565b5090919050565b6000614da3612710670de0b6b3a76400006157df565b90911015919050565b80516a636f6e736f6c652e6c6f67602083016000808483855afa5050505050565b828054828255906000526020600020908101928215614e22579160200282015b82811115614e2257825182546001600160a01b0319166001600160a01b03909116178255602090920191600190910190614ded565b50614e2e929150614e32565b5090565b5b80821115614e2e5760008155600101614e33565b600060208284031215614e5957600080fd5b5035919050565b6001600160a01b0381168114614e7557600080fd5b50565b8035614e8381614e60565b919050565b600060208284031215614e9a57600080fd5b8135610c4781614e60565b8015158114614e7557600080fd5b8035614e8381614ea5565b60008060408385031215614ed157600080fd5b823591506020830135614ee381614ea5565b809150509250929050565b60008060408385031215614f0157600080fd5b823591506020830135614ee381614e60565b634e487b7160e01b600052604160045260246000fd5b604051610100810167ffffffffffffffff81118282101715614f4d57614f4d614f13565b60405290565b60405160e0810167ffffffffffffffff81118282101715614f4d57614f4d614f13565b6040516101c0810167ffffffffffffffff81118282101715614f4d57614f4d614f13565b604051601f8201601f1916810167ffffffffffffffff81118282101715614fc357614fc3614f13565b604052919050565b6000806000806000808688036101a0811215614fe657600080fd5b8735614ff181614e60565b9650602088013561500181614ea5565b9550604088013594506060880135935060808801359250610100609f19820181131561502c57600080fd5b615034614f29565b915060a0890135825260c0890135602083015260e0890135604083015280890135606083015250610120880135608082015261014088013560a082015261016088013560c082015261018088013560e0820152809150509295509295509295565b600067ffffffffffffffff8211156150af576150af614f13565b5060051b60200190565b600080604083850312156150cc57600080fd5b8235915060208084013567ffffffffffffffff8111156150eb57600080fd5b8401601f810186136150fc57600080fd5b803561510f61510a82615095565b614f9a565b81815260059190911b8201830190838101908883111561512e57600080fd5b928401925b8284101561514c57833582529284019290840190615133565b80955050505050509250929050565b6020808252825182820181905260009190848201906040850190845b8181101561519c5783516001600160a01b031683529284019291840191600101615177565b50909695505050505050565b600080604083850312156151bb57600080fd5b50508035926020909101359150565b6000806000606084860312156151df57600080fd5b8335925060208401356151f181614e60565b9150604084013561520181614ea5565b809150509250925092565b60008060008060008060c0878903121561522557600080fd5b86359550602087013561523781614e60565b945060408701359350606087013592506080870135915060a087013561525c81614ea5565b809150509295509295509295565b6020808252825182820181905260009190848201906040850190845b8181101561519c57835183529284019291840191600101615286565b6000806000606084860312156152b757600080fd5b505081359360208301359350604090920135919050565b600080604083850312156152e157600080fd5b82356152ec81614e60565b946020939093013593505050565b600067ffffffffffffffff82111561531457615314614f13565b50601f01601f191660200190565b600082601f83011261533357600080fd5b813561534161510a826152fa565b81815284602083860101111561535657600080fd5b816020850160208301376000918101602001919091529392505050565b60048110614e7557600080fd5b8035614e8381615373565b600060e0828403121561539d57600080fd5b6153a5614f53565b9050813581526020820135602082015260408201356040820152606082013560608201526080820135608082015260a082013560a082015260c082013560c082015292915050565b60008060006060848603121561540257600080fd5b833561540d81614e60565b9250602084013567ffffffffffffffff8082111561542a57600080fd5b90850190610280828803121561543f57600080fd5b615447614f76565b8235815261545760208401614eb3565b602082015261546860408401614eb3565b6040820152606083013560608201526080830135608082015260a083013560a082015260c083013560c082015260e083013560e082015261010080840135818301525061012080840135838111156154bf57600080fd5b6154cb8a828701615322565b82840152505061014091506154e1828401614e78565b8282015261016091506154f5828401615380565b82820152610180915081830135828201526101a091506155178883850161538b565b82820152809450505050604084013590509250925092565b60008060006060848603121561554457600080fd5b83359250602084013561555681614e60565b929592945050506040919091013590565b8051614e8381614ea5565b60005b8381101561558d578181015183820152602001615575565b50506000910152565b600082601f8301126155a757600080fd5b81516155b561510a826152fa565b8181528460208386010111156155ca57600080fd5b6155db826020830160208701615572565b949350505050565b8051614e8381614e60565b8051614e8381615373565b600060e0828403121561560b57600080fd5b615613614f53565b9050815181526020820151602082015260408201516040820152606082015160608201526080820151608082015260a082015160a082015260c082015160c082015292915050565b60006020828403121561566d57600080fd5b815167ffffffffffffffff8082111561568557600080fd5b90830190610280828603121561569a57600080fd5b6156a2614f76565b825181526156b260208401615567565b60208201526156c360408401615567565b6040820152606083015160608201526080830151608082015260a083015160a082015260c083015160c082015260e083015160e0820152610100808401518183015250610120808401518381111561571a57600080fd5b61572688828701615596565b828401525050610140915061573c8284016155e3565b8282015261016091506157508284016155ee565b82820152610180915081830151828201526101a09150615772868385016155f9565b91810191909152949350505050565b634e487b7160e01b600052601160045260246000fd5b81810381811115610b0257610b02615781565b60008160001904831182151516156157c4576157c4615781565b500290565b634e487b7160e01b600052601260045260246000fd5b6000826157ee576157ee6157c9565b500490565b60006020828403121561580557600080fd5b5051919050565b634e487b7160e01b600052603260045260246000fd5b60006001820161583457615834615781565b5060010190565b60008060008060008060c0878903121561585457600080fd5b865161585f81614ea5565b602088015190965061587081614ea5565b604088015190955061588181614ea5565b606088015190945061589281614ea5565b60808801519093506158a381614ea5565b8092505060a087015190509295509295509295565b805182526020810151602083015260408101516040830152606081015160608301526080810151608083015260a081015160a083015260c081015160c083015260e081015160e08301525050565b6001600160a01b038881168252871660208201528515156040820152606081018590526080810184905260a081018390526101c0810161594960c08301846158b8565b98975050505050505050565b6000806040838503121561596857600080fd5b825161597381614e60565b6020939093015192949293505050565b600080600080600080600080610100898b0312156159a057600080fd5b505086516020880151604089015160608a015160808b015160a08c015160c08d015160e0909d0151959e949d50929b919a50985090965094509092509050565b634e487b7160e01b600052600160045260246000fd5b60006020808385031215615a0957600080fd5b825167ffffffffffffffff811115615a2057600080fd5b8301601f81018513615a3157600080fd5b8051615a3f61510a82615095565b81815260059190911b82018301908381019087831115615a5e57600080fd5b928401925b82841015612d61578351615a7681614e60565b82529284019290840190615a63565b600081615a9457615a94615781565b506000190190565b600060ff821660ff8103615ab257615ab2615781565b60010192915050565b60208082526008908201526710b6b0b730b3b2b960c11b604082015260600190565b600060208284031215615aef57600080fd5b8151610c4781614e60565b6020808252600490820152630855985b60e21b604082015260600190565b60008060008060808587031215615b2e57600080fd5b8451615b3981614ea5565b8094505060208501519250604085015191506060850151615b5981614ea5565b939692955090935050565b600080600080600080600060e0888a031215615b7f57600080fd5b8751615b8a81614e60565b6020890151909750615b9b81614e60565b6040890151909650615bac81614e60565b606089015190955067ffffffffffffffff811115615bc957600080fd5b615bd58a828b01615596565b9450506080880151925060a0880151915060c0880151615bf481614ea5565b8091505092959891949750929550565b6000610100808385031215615c1857600080fd5b6040519081019067ffffffffffffffff82118183101715615c3b57615c3b614f13565b81604052835181526020840151602082015260408401516040820152606084015160608201526080840151608082015260a084015160a082015260c084015160c082015260e084015160e0820152809250505092915050565b80820180821115610b0257610b02615781565b600060208284031215615cb957600080fd5b8151610c4781614ea5565b602080825260089082015267061646472657373360c41b604082015260600190565b6101408101615cf582866158b8565b6101008201939093526101200152919050565b600080600060608486031215615d1d57600080fd5b8351615d2881614e60565b6020850151909350615d3981614e60565b604085015190925061520181614e60565b60008151808452615d62816020860160208601615572565b601f01601f19169290920160200192915050565b8681526001600160a01b03868116602083015285811660408301528416606082015260c060808201819052600090615db090830185615d4a565b905082151560a0830152979650505050505050565b60048110615de357634e487b7160e01b600052602160045260246000fd5b9052565b602081528151602082015260006020830151615e07604084018215159052565b50604083015180151560608401525060608301516080830152608083015160a083015260a083015160c083015260c083015160e083015260e083015161010081818501528085015191505061012081818501528085015191505061014061028081850152615e796102a0850183615d4a565b90850151909150610160615e97858201836001600160a01b03169052565b8501519050610180615eab85820183615dc5565b8501516101a08581019190915285015180516101c086015260208101516101e086015260408101516102008601526060810151610220860152608081015161024086015260a081015161026086015260c08101516102808601529050509392505050565b600082615f1e57615f1e6157c9565b500690565b60008060408385031215615f3657600080fd5b505080516020909101519092909150565b604081526000615f5a6040830185615d4a565b9050826020830152939250505056fea264697066735822122055c72d31c943c22a89ca8fedc75017f59a70087fd66af5bf1eec966dc25fc81064736f6c63430008100033",
  "devdoc": {
    "kind": "dev",
    "methods": {
      "_getValidators(uint256)": {
        "details": "for now called on market initialization"
      },
      "beforeResolve(uint256)": {
        "details": "Prepare market/instrument for closing, called separately before resolveMarket this is either called automatically from the instrument when conditions are met i.e fully repaid principal + interest or, in the event of a default, by validators who deem the principal recouperation is finished and need to collect remaining funds by redeeming ZCB"
      },
      "calcImpliedProbability(uint256,uint256,uint256)": {
        "params": {
          "budget": "of trader in collateral decimals"
        }
      },
      "createVault(address,bool,uint256,uint256,uint256,(uint256,uint256,uint256,uint256,uint256,uint256,uint256,uint256))": {
        "params": {
          "_asset_limit": ": max number of shares for a single address",
          "_onlyVerified": ": only verified users can mint shares",
          "_r": ": minimum reputation score to mint shares",
          "_total_asset_limit": ": max number of shares for entire vault",
          "default_params": ": default params for markets created by vault",
          "underlying": ": underlying asset for vault"
        }
      },
      "denyMarket(uint256)": {
        "details": "called by validator denial of market."
      },
      "forceCloseInstrument(uint256,bool)": {
        "details": "withdraws all balance from the instrument. If assets in instrument is not in underlying, need all balances to be divested to underlying Ideally this should be called by several validators, maybe implement a voting scheme and have a keeper call it.",
        "params": {
          "emergency": "ascribes cases where the instrument should be forcefully liquidated back to the vault"
        }
      },
      "fulfillRandomWords(uint256,uint256[])": {
        "details": "TODO => can be called by anyone?"
      },
      "initiateMarket(address,(bytes32,bool,bool,uint256,uint256,uint256,uint256,uint256,uint256,string,address,uint8,uint256,(uint256,uint256,uint256,uint256,uint256,uint256,uint256)),uint256)": {
        "details": "Instrument should already be deployed",
        "params": {
          "instrumentData": ": instrument arguments",
          "recipient": ": utilizer for the associated instrument",
          "vaultId": ": vault identifier"
        }
      },
      "resolveMarket(uint256)": {
        "details": "validators call this function from market manager any funds left for the instrument, irrespective of whether it is in profit or inloss."
      },
      "validatorApprove(uint256)": {
        "details": "get val_cap, the total amount of zcb for sale and each validators should buy val_cap/num validators zcb They also need to hold the corresponding vault, so they are incentivized to assess at a systemic level and avoid highly correlated instruments triggers controller.approveMarket"
      }
    },
    "version": 1
  },
  "userdoc": {
    "kind": "user",
    "methods": {
      "_getValidators(uint256)": {
        "notice": "randomly choose validators for market approval, async operation => fulfillRandomness is the callback function."
      },
      "addAcceptedCollateral(uint256,address,uint256,uint256,uint256,bool)": {
        "notice": "pool instrumentcalled by utilizer during assessment"
      },
      "approvalCondition(uint256)": {
        "notice": "conditions for approval => validator zcb stake fulfilled + validators have all approved"
      },
      "beforeResolve(uint256)": {
        "notice": "Resolve function 1"
      },
      "calcImpliedProbability(uint256,uint256,uint256)": {
        "notice": "calculates implied probability of the trader, used to update the reputation score by brier scoring mechanism"
      },
      "createVault(address,bool,uint256,uint256,uint256,(uint256,uint256,uint256,uint256,uint256,uint256,uint256,uint256))": {
        "notice": "creates vault"
      },
      "deduct_selling_fee(uint256)": {
        "notice": "deduce fees for non vault stakers, should go down as maturity time approach 0"
      },
      "deniedValidator(uint256,address)": {
        "notice": "called by marketManager.redeemDeniedMarket, redeems the discounted ZCB"
      },
      "forceCloseInstrument(uint256,bool)": {
        "notice": "function that closes the instrument/market before maturity, maybe to realize gains/cut losses fast or debt is prematurely fully repaid, or underlying strategy is deemed dangerous, etc. After, the resolveMarket function should be called in a new block"
      },
      "fulfillRandomWords(uint256,uint256[])": {
        "notice": "chainlink callback function, sets validators."
      },
      "initiateMarket(address,(bytes32,bool,bool,uint256,uint256,uint256,uint256,uint256,uint256,string,address,uint8,uint256,(uint256,uint256,uint256,uint256,uint256,uint256,uint256)),uint256)": {
        "notice": "initiates market, called by frontend loan proposal or instrument form submit button."
      },
      "isValidator(uint256,address)": {
        "notice": "returns true if user is validator for corresponding market"
      },
      "marketCondition(uint256)": {
        "notice": "returns true if amount bought is greater than the insurance threshold"
      },
      "redeem_transfer(uint256,address,uint256)": {
        "notice": "called only when redeeming, transfer funds from vault"
      },
      "resolveCondition(uint256)": {
        "notice": "condition for resolving market, met when all the validators chosen for the market have voted to resolve."
      },
      "resolveMarket(uint256)": {
        "notice": "Resolve function 2main function called at maturity OR premature resolve of instrument(from early default)"
      },
      "testApproveMarket(uint256)": {
        "notice": "GOD FUNCTION"
      },
      "unlockValidatorStake(uint256)": {
        "notice": "called by validators when the market is resolved or denied to retrieve their stake."
      },
      "updateReputation(uint256,address,bool)": {
        "notice": "when market is resolved(maturity/early default), calculates score and update each assessment phase trader's reputation, called by individual traders when redeeming"
      },
      "validatorApprove(uint256)": {
        "notice": "allows validators to buy at a discount + automatically stake a percentage of the principal They can only buy a fixed amount of ZCB, usually a at lot larger amount"
      },
      "validatorResolve(uint256)": {
        "notice": "called by validators to approve resolving the market, after approval."
      }
    },
    "version": 1
  },
  "storageLayout": {
    "storage": [
      {
        "astId": 10234,
        "contract": "contracts/protocol/controller.sol:Controller",
        "label": "approvalDatas",
        "offset": 0,
        "slot": "0",
        "type": "t_mapping(t_uint256,t_struct(ApprovalData)10223_storage)"
      },
      {
        "astId": 10251,
        "contract": "contracts/protocol/controller.sol:Controller",
        "label": "verified",
        "offset": 0,
        "slot": "1",
        "type": "t_mapping(t_address,t_bool)"
      },
      {
        "astId": 10256,
        "contract": "contracts/protocol/controller.sol:Controller",
        "label": "market_data",
        "offset": 0,
        "slot": "2",
        "type": "t_mapping(t_uint256,t_struct(MarketData)10216_storage)"
      },
      {
        "astId": 10260,
        "contract": "contracts/protocol/controller.sol:Controller",
        "label": "ad_to_id",
        "offset": 0,
        "slot": "3",
        "type": "t_mapping(t_address,t_uint256)"
      },
      {
        "astId": 10265,
        "contract": "contracts/protocol/controller.sol:Controller",
        "label": "vaults",
        "offset": 0,
        "slot": "4",
        "type": "t_mapping(t_uint256,t_contract(Vault)28595)"
      },
      {
        "astId": 10269,
        "contract": "contracts/protocol/controller.sol:Controller",
        "label": "id_parent",
        "offset": 0,
        "slot": "5",
        "type": "t_mapping(t_uint256,t_uint256)"
      },
      {
        "astId": 10274,
        "contract": "contracts/protocol/controller.sol:Controller",
        "label": "vault_to_marketIds",
        "offset": 0,
        "slot": "6",
        "type": "t_mapping(t_uint256,t_array(t_uint256)dyn_storage)"
      },
      {
        "astId": 10276,
        "contract": "contracts/protocol/controller.sol:Controller",
        "label": "creator_address",
        "offset": 0,
        "slot": "7",
        "type": "t_address"
      },
      {
        "astId": 10279,
        "contract": "contracts/protocol/controller.sol:Controller",
        "label": "marketManager",
        "offset": 0,
        "slot": "8",
        "type": "t_contract(MarketManager)16115"
      },
      {
        "astId": 10282,
        "contract": "contracts/protocol/controller.sol:Controller",
        "label": "vaultFactory",
        "offset": 0,
        "slot": "9",
        "type": "t_contract(VaultFactory)13183"
      },
      {
        "astId": 10285,
        "contract": "contracts/protocol/controller.sol:Controller",
        "label": "poolFactory",
        "offset": 0,
        "slot": "10",
        "type": "t_contract(SyntheticZCBPoolFactory)5852"
      },
      {
        "astId": 10288,
        "contract": "contracts/protocol/controller.sol:Controller",
        "label": "reputationManager",
        "offset": 0,
        "slot": "11",
        "type": "t_contract(ReputationManager)16918"
      },
      {
        "astId": 11567,
        "contract": "contracts/protocol/controller.sol:Controller",
        "label": "requestToMarketId",
        "offset": 0,
        "slot": "12",
        "type": "t_mapping(t_uint256,t_uint256)"
      },
      {
        "astId": 11572,
        "contract": "contracts/protocol/controller.sol:Controller",
        "label": "validator_data",
        "offset": 0,
        "slot": "13",
        "type": "t_mapping(t_uint256,t_struct(ValidatorData)11563_storage)"
      }
    ],
    "types": {
      "t_address": {
        "encoding": "inplace",
        "label": "address",
        "numberOfBytes": "20"
      },
      "t_array(t_address)dyn_storage": {
        "base": "t_address",
        "encoding": "dynamic_array",
        "label": "address[]",
        "numberOfBytes": "32"
      },
      "t_array(t_uint256)dyn_storage": {
        "base": "t_uint256",
        "encoding": "dynamic_array",
        "label": "uint256[]",
        "numberOfBytes": "32"
      },
      "t_bool": {
        "encoding": "inplace",
        "label": "bool",
        "numberOfBytes": "1"
      },
      "t_contract(MarketManager)16115": {
        "encoding": "inplace",
        "label": "contract MarketManager",
        "numberOfBytes": "20"
      },
      "t_contract(ReputationManager)16918": {
        "encoding": "inplace",
        "label": "contract ReputationManager",
        "numberOfBytes": "20"
      },
      "t_contract(SyntheticZCBPoolFactory)5852": {
        "encoding": "inplace",
        "label": "contract SyntheticZCBPoolFactory",
        "numberOfBytes": "20"
      },
      "t_contract(Vault)28595": {
        "encoding": "inplace",
        "label": "contract Vault",
        "numberOfBytes": "20"
      },
      "t_contract(VaultFactory)13183": {
        "encoding": "inplace",
        "label": "contract VaultFactory",
        "numberOfBytes": "20"
      },
      "t_mapping(t_address,t_bool)": {
        "encoding": "mapping",
        "key": "t_address",
        "label": "mapping(address => bool)",
        "numberOfBytes": "32",
        "value": "t_bool"
      },
      "t_mapping(t_address,t_uint256)": {
        "encoding": "mapping",
        "key": "t_address",
        "label": "mapping(address => uint256)",
        "numberOfBytes": "32",
        "value": "t_uint256"
      },
      "t_mapping(t_uint256,t_array(t_uint256)dyn_storage)": {
        "encoding": "mapping",
        "key": "t_uint256",
        "label": "mapping(uint256 => uint256[])",
        "numberOfBytes": "32",
        "value": "t_array(t_uint256)dyn_storage"
      },
      "t_mapping(t_uint256,t_contract(Vault)28595)": {
        "encoding": "mapping",
        "key": "t_uint256",
        "label": "mapping(uint256 => contract Vault)",
        "numberOfBytes": "32",
        "value": "t_contract(Vault)28595"
      },
      "t_mapping(t_uint256,t_struct(ApprovalData)10223_storage)": {
        "encoding": "mapping",
        "key": "t_uint256",
        "label": "mapping(uint256 => struct Controller.ApprovalData)",
        "numberOfBytes": "32",
        "value": "t_struct(ApprovalData)10223_storage"
      },
      "t_mapping(t_uint256,t_struct(MarketData)10216_storage)": {
        "encoding": "mapping",
        "key": "t_uint256",
        "label": "mapping(uint256 => struct Controller.MarketData)",
        "numberOfBytes": "32",
        "value": "t_struct(MarketData)10216_storage"
      },
      "t_mapping(t_uint256,t_struct(ValidatorData)11563_storage)": {
        "encoding": "mapping",
        "key": "t_uint256",
        "label": "mapping(uint256 => struct Controller.ValidatorData)",
        "numberOfBytes": "32",
        "value": "t_struct(ValidatorData)11563_storage"
      },
      "t_mapping(t_uint256,t_uint256)": {
        "encoding": "mapping",
        "key": "t_uint256",
        "label": "mapping(uint256 => uint256)",
        "numberOfBytes": "32",
        "value": "t_uint256"
      },
      "t_struct(ApprovalData)10223_storage": {
        "encoding": "inplace",
        "label": "struct Controller.ApprovalData",
        "members": [
          {
            "astId": 10218,
            "contract": "contracts/protocol/controller.sol:Controller",
            "label": "managers_stake",
            "offset": 0,
            "slot": "0",
            "type": "t_uint256"
          },
          {
            "astId": 10220,
            "contract": "contracts/protocol/controller.sol:Controller",
            "label": "approved_principal",
            "offset": 0,
            "slot": "1",
            "type": "t_uint256"
          },
          {
            "astId": 10222,
            "contract": "contracts/protocol/controller.sol:Controller",
            "label": "approved_yield",
            "offset": 0,
            "slot": "2",
            "type": "t_uint256"
          }
        ],
        "numberOfBytes": "96"
      },
      "t_struct(MarketData)10216_storage": {
        "encoding": "inplace",
        "label": "struct Controller.MarketData",
        "members": [
          {
            "astId": 10213,
            "contract": "contracts/protocol/controller.sol:Controller",
            "label": "instrument_address",
            "offset": 0,
            "slot": "0",
            "type": "t_address"
          },
          {
            "astId": 10215,
            "contract": "contracts/protocol/controller.sol:Controller",
            "label": "utilizer",
            "offset": 0,
            "slot": "1",
            "type": "t_address"
          }
        ],
        "numberOfBytes": "64"
      },
      "t_struct(ValidatorData)11563_storage": {
        "encoding": "inplace",
        "label": "struct Controller.ValidatorData",
        "members": [
          {
            "astId": 11533,
            "contract": "contracts/protocol/controller.sol:Controller",
            "label": "sales",
            "offset": 0,
            "slot": "0",
            "type": "t_mapping(t_address,t_uint256)"
          },
          {
            "astId": 11537,
            "contract": "contracts/protocol/controller.sol:Controller",
            "label": "staked",
            "offset": 0,
            "slot": "1",
            "type": "t_mapping(t_address,t_bool)"
          },
          {
            "astId": 11541,
            "contract": "contracts/protocol/controller.sol:Controller",
            "label": "resolved",
            "offset": 0,
            "slot": "2",
            "type": "t_mapping(t_address,t_bool)"
          },
          {
            "astId": 11544,
            "contract": "contracts/protocol/controller.sol:Controller",
            "label": "validators",
            "offset": 0,
            "slot": "3",
            "type": "t_array(t_address)dyn_storage"
          },
          {
            "astId": 11546,
            "contract": "contracts/protocol/controller.sol:Controller",
            "label": "val_cap",
            "offset": 0,
            "slot": "4",
            "type": "t_uint256"
          },
          {
            "astId": 11548,
            "contract": "contracts/protocol/controller.sol:Controller",
            "label": "avg_price",
            "offset": 0,
            "slot": "5",
            "type": "t_uint256"
          },
          {
            "astId": 11550,
            "contract": "contracts/protocol/controller.sol:Controller",
            "label": "requested",
            "offset": 0,
            "slot": "6",
            "type": "t_bool"
          },
          {
            "astId": 11552,
            "contract": "contracts/protocol/controller.sol:Controller",
            "label": "totalSales",
            "offset": 0,
            "slot": "7",
            "type": "t_uint256"
          },
          {
            "astId": 11554,
            "contract": "contracts/protocol/controller.sol:Controller",
            "label": "totalStaked",
            "offset": 0,
            "slot": "8",
            "type": "t_uint256"
          },
          {
            "astId": 11556,
            "contract": "contracts/protocol/controller.sol:Controller",
            "label": "numApproved",
            "offset": 0,
            "slot": "9",
            "type": "t_uint256"
          },
          {
            "astId": 11558,
            "contract": "contracts/protocol/controller.sol:Controller",
            "label": "initialStake",
            "offset": 0,
            "slot": "10",
            "type": "t_uint256"
          },
          {
            "astId": 11560,
            "contract": "contracts/protocol/controller.sol:Controller",
            "label": "finalStake",
            "offset": 0,
            "slot": "11",
            "type": "t_uint256"
          },
          {
            "astId": 11562,
            "contract": "contracts/protocol/controller.sol:Controller",
            "label": "numResolved",
            "offset": 0,
            "slot": "12",
            "type": "t_uint256"
          }
        ],
        "numberOfBytes": "416"
      },
      "t_uint256": {
        "encoding": "inplace",
        "label": "uint256",
        "numberOfBytes": "32"
      }
    }
  }
}