{
  "address": "0x0165878A594ca255338adfa4d48449f69242Eb8F",
  "abi": [
    {
      "inputs": [
        {
          "internalType": "address",
          "name": "_controller",
          "type": "address"
        },
        {
          "internalType": "address",
          "name": "_marketManager",
          "type": "address"
        }
      ],
      "stateMutability": "nonpayable",
      "type": "constructor"
    },
    {
      "anonymous": false,
      "inputs": [
        {
          "indexed": false,
          "internalType": "address",
          "name": "trader",
          "type": "address"
        },
        {
          "indexed": false,
          "internalType": "uint256",
          "name": "score",
          "type": "uint256"
        }
      ],
      "name": "ScoreUpdated",
      "type": "event"
    },
    {
      "anonymous": false,
      "inputs": [
        {
          "indexed": false,
          "internalType": "uint256",
          "name": "marketId",
          "type": "uint256"
        },
        {
          "indexed": false,
          "internalType": "address",
          "name": "recipient",
          "type": "address"
        }
      ],
      "name": "reputationUpdated",
      "type": "event"
    },
    {
      "inputs": [
        {
          "internalType": "uint256",
          "name": "bondAmount",
          "type": "uint256"
        },
        {
          "internalType": "uint256",
          "name": "collateral_amount",
          "type": "uint256"
        },
        {
          "internalType": "uint256",
          "name": "budget",
          "type": "uint256"
        }
      ],
      "name": "calcImpliedProbability",
      "outputs": [
        {
          "internalType": "uint256",
          "name": "",
          "type": "uint256"
        }
      ],
      "stateMutability": "pure",
      "type": "function"
    },
    {
      "inputs": [
        {
          "internalType": "uint256",
          "name": "percentile",
          "type": "uint256"
        }
      ],
      "name": "calculateMinScore",
      "outputs": [
        {
          "internalType": "uint256",
          "name": "",
          "type": "uint256"
        }
      ],
      "stateMutability": "view",
      "type": "function"
    },
    {
      "inputs": [
        {
          "internalType": "address",
          "name": "trader",
          "type": "address"
        },
        {
          "internalType": "uint256",
          "name": "update",
          "type": "uint256"
        }
      ],
      "name": "decrementScore",
      "outputs": [],
      "stateMutability": "nonpayable",
      "type": "function"
    },
    {
      "inputs": [
        {
          "internalType": "address",
          "name": "manager",
          "type": "address"
        }
      ],
      "name": "expectedIncrement",
      "outputs": [
        {
          "internalType": "uint256",
          "name": "",
          "type": "uint256"
        }
      ],
      "stateMutability": "view",
      "type": "function"
    },
    {
      "inputs": [
        {
          "internalType": "address",
          "name": "trader",
          "type": "address"
        },
        {
          "internalType": "uint256",
          "name": "marketId",
          "type": "uint256"
        },
        {
          "internalType": "uint256",
          "name": "bondPrice",
          "type": "uint256"
        },
        {
          "internalType": "uint256",
          "name": "incremntalAmount",
          "type": "uint256"
        },
        {
          "internalType": "uint256",
          "name": "incrementalBondAmount",
          "type": "uint256"
        }
      ],
      "name": "expectedRepGain",
      "outputs": [
        {
          "internalType": "int256",
          "name": "expectedGain",
          "type": "int256"
        }
      ],
      "stateMutability": "view",
      "type": "function"
    },
    {
      "inputs": [
        {
          "internalType": "uint256",
          "name": "percentile",
          "type": "uint256"
        },
        {
          "internalType": "address",
          "name": "utilizer",
          "type": "address"
        }
      ],
      "name": "filterTraders",
      "outputs": [
        {
          "internalType": "address[]",
          "name": "",
          "type": "address[]"
        }
      ],
      "stateMutability": "view",
      "type": "function"
    },
    {
      "inputs": [
        {
          "internalType": "address",
          "name": "trader",
          "type": "address"
        }
      ],
      "name": "findTrader",
      "outputs": [
        {
          "internalType": "uint256",
          "name": "",
          "type": "uint256"
        }
      ],
      "stateMutability": "view",
      "type": "function"
    },
    {
      "inputs": [
        {
          "internalType": "address",
          "name": "trader",
          "type": "address"
        },
        {
          "internalType": "uint256",
          "name": "marketId",
          "type": "uint256"
        }
      ],
      "name": "getRepLog",
      "outputs": [
        {
          "components": [
            {
              "internalType": "uint256",
              "name": "collateralAmount",
              "type": "uint256"
            },
            {
              "internalType": "uint256",
              "name": "bondAmount",
              "type": "uint256"
            },
            {
              "internalType": "uint256",
              "name": "budget",
              "type": "uint256"
            },
            {
              "internalType": "bool",
              "name": "perpetual",
              "type": "bool"
            }
          ],
          "internalType": "struct ReputationManager.RepLog",
          "name": "",
          "type": "tuple"
        }
      ],
      "stateMutability": "view",
      "type": "function"
    },
    {
      "inputs": [],
      "name": "getTraders",
      "outputs": [
        {
          "internalType": "address[]",
          "name": "",
          "type": "address[]"
        }
      ],
      "stateMutability": "view",
      "type": "function"
    },
    {
      "inputs": [
        {
          "internalType": "address",
          "name": "trader",
          "type": "address"
        },
        {
          "internalType": "uint256",
          "name": "update",
          "type": "uint256"
        }
      ],
      "name": "incrementScore",
      "outputs": [],
      "stateMutability": "nonpayable",
      "type": "function"
    },
    {
      "inputs": [
        {
          "internalType": "address",
          "name": "",
          "type": "address"
        }
      ],
      "name": "isRated",
      "outputs": [
        {
          "internalType": "bool",
          "name": "",
          "type": "bool"
        }
      ],
      "stateMutability": "view",
      "type": "function"
    },
    {
      "inputs": [
        {
          "internalType": "address",
          "name": "trader",
          "type": "address"
        },
        {
          "internalType": "uint256",
          "name": "percentile",
          "type": "uint256"
        }
      ],
      "name": "isReputable",
      "outputs": [
        {
          "internalType": "bool",
          "name": "",
          "type": "bool"
        }
      ],
      "stateMutability": "view",
      "type": "function"
    },
    {
      "inputs": [
        {
          "internalType": "address",
          "name": "trader",
          "type": "address"
        },
        {
          "internalType": "uint256",
          "name": "marketId",
          "type": "uint256"
        },
        {
          "internalType": "uint256",
          "name": "bondAmount",
          "type": "uint256"
        },
        {
          "internalType": "uint256",
          "name": "collateral_amount",
          "type": "uint256"
        },
        {
          "internalType": "uint256",
          "name": "budget",
          "type": "uint256"
        },
        {
          "internalType": "bool",
          "name": "perpetual",
          "type": "bool"
        }
      ],
      "name": "recordPull",
      "outputs": [],
      "stateMutability": "nonpayable",
      "type": "function"
    },
    {
      "inputs": [
        {
          "internalType": "address",
          "name": "trader",
          "type": "address"
        },
        {
          "internalType": "uint256",
          "name": "marketId",
          "type": "uint256"
        },
        {
          "internalType": "uint256",
          "name": "bondPrice",
          "type": "uint256"
        },
        {
          "internalType": "bool",
          "name": "premature",
          "type": "bool"
        },
        {
          "internalType": "uint256",
          "name": "redeemAmount",
          "type": "uint256"
        }
      ],
      "name": "recordPush",
      "outputs": [],
      "stateMutability": "nonpayable",
      "type": "function"
    },
    {
      "inputs": [
        {
          "internalType": "address",
          "name": "",
          "type": "address"
        },
        {
          "internalType": "uint256",
          "name": "",
          "type": "uint256"
        }
      ],
      "name": "repLogs",
      "outputs": [
        {
          "internalType": "uint256",
          "name": "collateralAmount",
          "type": "uint256"
        },
        {
          "internalType": "uint256",
          "name": "bondAmount",
          "type": "uint256"
        },
        {
          "internalType": "uint256",
          "name": "budget",
          "type": "uint256"
        },
        {
          "internalType": "bool",
          "name": "perpetual",
          "type": "bool"
        }
      ],
      "stateMutability": "view",
      "type": "function"
    },
    {
      "inputs": [
        {
          "internalType": "address",
          "name": "trader",
          "type": "address"
        },
        {
          "internalType": "uint256",
          "name": "score",
          "type": "uint256"
        }
      ],
      "name": "setTraderScore",
      "outputs": [],
      "stateMutability": "nonpayable",
      "type": "function"
    },
    {
      "inputs": [
        {
          "internalType": "uint256",
          "name": "update",
          "type": "uint256"
        }
      ],
      "name": "testIncrementScore",
      "outputs": [],
      "stateMutability": "nonpayable",
      "type": "function"
    },
    {
      "inputs": [
        {
          "internalType": "address",
          "name": "",
          "type": "address"
        }
      ],
      "name": "trader_scores",
      "outputs": [
        {
          "internalType": "uint256",
          "name": "",
          "type": "uint256"
        }
      ],
      "stateMutability": "view",
      "type": "function"
    },
    {
      "inputs": [
        {
          "internalType": "uint256",
          "name": "",
          "type": "uint256"
        }
      ],
      "name": "traders",
      "outputs": [
        {
          "internalType": "address",
          "name": "",
          "type": "address"
        }
      ],
      "stateMutability": "view",
      "type": "function"
    }
  ],
  "transactionHash": "0x982a5a57a12cf45371ae5b0699c348bc30b7da4e1110898a528bc4adf339ea7f",
  "args": [
    "0xe7f1725E7734CE288F8367e1Bb143E90bb3F0512",
    "0x9fE46736679d2D9a65F0992F2272dE9f3c7fa6e0"
  ],
  "numDeployments": 1,
  "solcInputHash": "2909046b0dbca083ff82ebd90c03e427",
  "bytecode": "0x60806040523480156200001157600080fd5b5060405162001c8c38038062001c8c833981016040819052620000349162000093565b600380546001600160a01b039384166001600160a01b0319918216179091556004805492909316918116919091179091556005805490911633179055620000cb565b80516001600160a01b03811681146200008e57600080fd5b919050565b60008060408385031215620000a757600080fd5b620000b28362000076565b9150620000c26020840162000076565b90509250929050565b611bb180620000db6000396000f3fe608060405234801561001057600080fd5b50600436106101215760003560e01c80634c252152116100ad578063a87541f811610071578063a87541f8146102df578063cf576e55146102f2578063dda10bca1461033a578063e1648cd21461034d578063e8a780261461036057600080fd5b80634c2521521461023857806357b613601461024b578063658e387d146102535780638a2d1306146102b85780639bf7927d146102cc57600080fd5b8063224e1c2d116100f4578063224e1c2d1461019f57806323ba6107146101b25780632a6b8082146101e55780632e1a65d31461020557806344c743931461021857600080fd5b80630622fd17146101265780630d1598961461013b5780630e2ebf0614610161578063135e563d14610174575b600080fd5b610139610134366004611860565b610373565b005b61014e61014936600461188a565b6103bd565b6040519081526020015b60405180910390f35b61014e61016f3660046118a3565b61046f565b61018761018236600461188a565b6104cd565b6040516001600160a01b039091168152602001610158565b6101396101ad366004611860565b6104f7565b6101d56101c03660046118a3565b60016020526000908152604090205460ff1681565b6040519015158152602001610158565b6101f86101f33660046118be565b61061d565b60405161015891906118ea565b61013961021336600461193b565b610a4e565b61014e6102263660046118a3565b60006020819052908152604090205481565b61014e610246366004611993565b610b85565b6101f8610cce565b610296610261366004611860565b600660209081526000928352604080842090915290825290208054600182015460028301546003909301549192909160ff1684565b6040805194855260208501939093529183015215156060820152608001610158565b61014e6102c63660046118a3565b50600090565b6101396102da3660046119d5565b610d30565b6101396102ed36600461188a565b611010565b610305610300366004611860565b611089565b604051610158919081518152602080830151908201526040808301519082015260609182015115159181019190915260800190565b61014e610348366004611a23565b611115565b61013961035b366004611860565b6111b0565b6101d561036e366004611860565b61123d565b6001600160a01b038216600090815260208190526040902054808211156103a7576103a28361035b8385611a65565b505050565b808210156103a2576103a2836101ad8484611a65565b60025460009081906103d890670de0b6b3a764000090611a78565b90506103e5606484611a97565b6000036103f55750600092915050565b600061040c610405606486611a97565b83906112d0565b9050610420670de0b6b3a764000082611a97565b90506000806002610432600185611a65565b8154811061044257610442611ab9565b60009182526020808320909101546001600160a01b03168352820192909252604001902054949350505050565b6000805b6002548110156104c7576002818154811061049057610490611ab9565b6000918252602090912001546001600160a01b03908116908416036104b55792915050565b806104bf81611acf565b915050610473565b50919050565b600281815481106104dd57600080fd5b6000918252602090912001546001600160a01b0316905081565b6003546001600160a01b031633148061051a57506004546001600160a01b031633145b8061052f57506005546001600160a01b031633145b6105545760405162461bcd60e51b815260040161054b90611ae8565b60405180910390fd5b6001600160a01b0382166000908152602081905260409020548110610591576001600160a01b0382166000908152602081905260408120556105bf565b6001600160a01b038216600090815260208190526040812080548392906105b9908490611a65565b90915550505b6105ca8260006112ec565b6001600160a01b03821660008181526020818152604091829020548251938452908301527f66ead48cfe0e1d1aa8bad492e906c348dfcfeecbf3b7b2cdf9b1f3cfa42a2945910160405180910390a15050565b60025460609060009061063990670de0b6b3a764000090611a78565b9050610646606485611a97565b6000036107f2576001600160a01b03831660009081526001602052604090205460ff161561078f5760025460009061068090600190611a65565b67ffffffffffffffff81111561069857610698611b1f565b6040519080825280602002602001820160405280156106c1578160200160208202803683370190505b5090506000805b60025481101561078357600281815481106106e5576106e5611ab9565b6000918252602090912001546001600160a01b039081169087160361070d5760019150610771565b6002818154811061072057610720611ab9565b6000918252602090912001546001600160a01b0316836107408484611a65565b8151811061075057610750611ab9565b60200260200101906001600160a01b031690816001600160a01b0316815250505b8061077b81611acf565b9150506106c8565b50819350505050610a48565b60028054806020026020016040519081016040528092919081815260200182805480156107e557602002820191906000526020600020905b81546001600160a01b031681526001909101906020018083116107c7575b5050505050915050610a48565b600061082060648661080c670de0b6b3a764000083611a78565b6108169190611a65565b6104059190611a97565b9050610834670de0b6b3a764000082611a97565b905060606001600160a01b038516158061086757506001600160a01b03851660009081526001602052604090205460ff16155b1561092f578167ffffffffffffffff81111561088557610885611b1f565b6040519080825280602002602001820160405280156108ae578160200160208202803683370190505b50905060005b8281101561092957600281815481106108cf576108cf611ab9565b9060005260206000200160009054906101000a90046001600160a01b03168282815181106108ff576108ff611ab9565b6001600160a01b03909216602092830291909101909101528061092181611acf565b9150506108b4565b50610a43565b61093a600183611a65565b67ffffffffffffffff81111561095257610952611b1f565b60405190808252806020026020018201604052801561097b578160200160208202803683370190505b5090506000805b83811015610a4057866001600160a01b0316600282815481106109a7576109a7611ab9565b6000918252602090912001546001600160a01b0316036109ca5760019150610a2e565b600281815481106109dd576109dd611ab9565b6000918252602090912001546001600160a01b0316836109fd8484611a65565b81518110610a0d57610a0d611ab9565b60200260200101906001600160a01b031690816001600160a01b0316815250505b80610a3881611acf565b915050610982565b50505b925050505b92915050565b6003546001600160a01b0316331480610a7157506004546001600160a01b031633145b80610a8657506005546001600160a01b031633145b610aa25760405162461bcd60e51b815260040161054b90611ae8565b6001600160a01b0386166000908152600660209081526040808320888452825291829020825160808101845281548082526001830154938201939093526002820154938101939093526003015460ff161515606083015284908290610b08908390611b35565b905250602081018051869190610b1f908390611b35565b9052509015156060820190815260408083019384526001600160a01b039790971660009081526006602090815288822097825296875296909620815181559401516001850155516002840155505090516003909101805460ff1916911515919091179055565b6001600160a01b0385166000908152600660209081526040808320878452825280832081516080810183528154815260018201549381018490526002820154928101929092526003015460ff1615156060820152908290610bfe90610beb908690611b35565b8351610bf8908890611b35565b9061168f565b90506000610c0c8288611a65565b90506000836060015115610c5d5760408401518451610c2a9161168f565b905082881015610c4c57610c3e82826112d0565b610c4790611b48565b610c56565b610c5682826112d0565b9450610cc1565b610c74846020015185600001518660400151611115565b9050670de0b6b3a76400008810610c8f57610c5682826112d0565b828811158015610ca65750670de0b6b3a764000088105b15610cc157610cb582826112d0565b610cbe90611b48565b94505b5050505095945050505050565b60606002805480602002602001604051908101604052809291908181526020018280548015610d2657602002820191906000526020600020905b81546001600160a01b03168152600190910190602001808311610d08575b5050505050905090565b6003546001600160a01b0316331480610d5357506004546001600160a01b031633145b80610d6857506005546001600160a01b031633145b610d845760405162461bcd60e51b815260040161054b90611ae8565b6001600160a01b0385166000908152600660209081526040808320878452825280832081516080810183528154808252600183015494820185905260028301549382019390935260039091015460ff16151560608201529291610de7919061168f565b90508315610e4657610e0586886000670de0b6b3a7640000866116a4565b6001600160a01b03871660009081526006602090815260408083208984529091528120818155600181018290556002810191909155600301805460ff191690555b816060015115610f7457808510610e7357610e6e86886001610e68858a611a65565b866116a4565b610e84565b610e8486886000610e688986611a65565b610e8e83826112d0565b82511015610ec85760405162461bcd60e51b81526020600482015260076024820152666c6f674552523160c81b604482015260640161054b565b8282602001511015610f065760405162461bcd60e51b81526020600482015260076024820152663637b3a2a9291960c91b604482015260640161054b565b610f1083826112d0565b82510382526020808301805185900381526001600160a01b03891660009081526006835260408082208a8352909352829020845181559051600182015590830151600282015560608301516003909101805460ff1916911515919091179055611007565b670de0b6b3a76400008510610f9957610f9486886001610e68858a611a65565b610fc6565b808511158015610fb05750670de0b6b3a764000085105b15610fc657610fc686886000610e688986611a65565b6001600160a01b03871660009081526006602090815260408083208984529091528120818155600181018290556002810191909155600301805460ff191690555b50505050505050565b336000908152602081905260408120805483929061102f908490611b35565b9091555061104090503360016112ec565b3360008181526020818152604091829020548251938452908301527f66ead48cfe0e1d1aa8bad492e906c348dfcfeecbf3b7b2cdf9b1f3cfa42a2945910160405180910390a150565b6110b660405180608001604052806000815260200160008152602001600081526020016000151581525090565b506001600160a01b038216600090815260066020908152604080832084845282529182902082516080810184528154815260018201549281019290925260028101549282019290925260039091015460ff161515606082015292915050565b600080841180156111265750600083115b61115b5760405162461bcd60e51b815260040161054b90602080825260049082015263183234bb60e11b604082015260600190565b6000611167848661168f565b9050600061118061040583670de0b6b3a7640000611a65565b9050600061118e878661168f565b90508261119b82846112d0565b6111a59190611b35565b979650505050505050565b6003546001600160a01b03163314806111d357506004546001600160a01b031633145b806111e857506005546001600160a01b031633145b6112045760405162461bcd60e51b815260040161054b90611ae8565b6001600160a01b0382166000908152602081905260408120805483929061122c908490611b35565b909155506105ca90508260016112ec565b6000806112498461046f565b90506000670de0b6b3a7640000611261836001611b35565b60025461126e9190611a65565b6112789190611a78565b60025490915060009061129490670de0b6b3a764000090611a78565b905060006112a2838361168f565b6112ad906064611a78565b90508581106112c3576001945050505050610a48565b6000945050505050610a48565b60006112e58383670de0b6b3a764000061170a565b9392505050565b6001600160a01b0382166000908152602081815260408083205460019092529091205460ff1661150b576001600160a01b03831660009081526001602081905260408220805460ff191690911790556002549003611398575050600280546001810182556000919091527f405787fa12a823e0f2b7631cc41b3ba8828b3321ca811111fa75cd3aa3bb5ace0180546001600160a01b0319166001600160a01b0392909216919091179055565b60005b60025481101561150557600080600283815481106113bb576113bb611ab9565b60009182526020808320909101546001600160a01b0316835282019290925260400190205482111561148857600280546001818101835560008390527f405787fa12a823e0f2b7631cc41b3ba8828b3321ca811111fa75cd3aa3bb5ace90910180546001600160a01b0319169055905461144091839161143b9190611a65565b611728565b836002828154811061145457611454611ab9565b9060005260206000200160006101000a8154816001600160a01b0302191690836001600160a01b0316021790555050505050565b60025461149790600190611a65565b81036114f3575050600280546001810182556000919091527f405787fa12a823e0f2b7631cc41b3ba8828b3321ca811111fa75cd3aa3bb5ace0180546001600160a01b0319166001600160a01b03939093169290921790915550565b806114fd81611acf565b91505061139b565b50505050565b60006115168461046f565b9050801580156115235750825b80611544575060025461153890600190611a65565b81148015611544575082155b1561154f5750505050565b821561160d5760005b81811015611607576000806002838154811061157657611576611ab9565b60009182526020808320909101546001600160a01b031683528201929092526040019020548311156115f5576115ac8183611728565b84600282815481106115c0576115c0611ab9565b9060005260206000200160006101000a8154816001600160a01b0302191690836001600160a01b031602179055505050505050565b806115ff81611acf565b915050611558565b50611505565b60025460009061161f90600190611a65565b90505b81811115611688576000806002838154811061164057611640611ab9565b60009182526020808320909101546001600160a01b03168352820192909252604001902054831015611676576115ac82826117b6565b8061168081611b64565b915050611622565b5050505050565b60006112e583670de0b6b3a76400008461170a565b600081606001516116cb576116c6826020015183600001518460400151611115565b6116db565b604082015182516116db9161168f565b905060006116e984836112d0565b90508415611700576116fb86826111b0565b611007565b61100786826104f7565b600082600019048411830215820261172157600080fd5b5091020490565b805b828111156103a257600261173f600183611a65565b8154811061174f5761174f611ab9565b600091825260209091200154600280546001600160a01b03909216918390811061177b5761177b611ab9565b600091825260209091200180546001600160a01b0319166001600160a01b0392909216919091179055806117ae81611b64565b91505061172a565b815b818110156103a25760026117cd826001611b35565b815481106117dd576117dd611ab9565b600091825260209091200154600280546001600160a01b03909216918390811061180957611809611ab9565b600091825260209091200180546001600160a01b0319166001600160a01b03929092169190911790558061183c81611acf565b9150506117b8565b80356001600160a01b038116811461185b57600080fd5b919050565b6000806040838503121561187357600080fd5b61187c83611844565b946020939093013593505050565b60006020828403121561189c57600080fd5b5035919050565b6000602082840312156118b557600080fd5b6112e582611844565b600080604083850312156118d157600080fd5b823591506118e160208401611844565b90509250929050565b6020808252825182820181905260009190848201906040850190845b81811015610a405783516001600160a01b031683529284019291840191600101611906565b8035801515811461185b57600080fd5b60008060008060008060c0878903121561195457600080fd5b61195d87611844565b95506020870135945060408701359350606087013592506080870135915061198760a0880161192b565b90509295509295509295565b600080600080600060a086880312156119ab57600080fd5b6119b486611844565b97602087013597506040870135966060810135965060800135945092505050565b600080600080600060a086880312156119ed57600080fd5b6119f686611844565b94506020860135935060408601359250611a126060870161192b565b949793965091946080013592915050565b600080600060608486031215611a3857600080fd5b505081359360208301359350604090920135919050565b634e487b7160e01b600052601160045260246000fd5b81810381811115610a4857610a48611a4f565b6000816000190483118215151615611a9257611a92611a4f565b500290565b600082611ab457634e487b7160e01b600052601260045260246000fd5b500490565b634e487b7160e01b600052603260045260246000fd5b600060018201611ae157611ae1611a4f565b5060010190565b6020808252601c908201527f52657075746174696f6e4d616e616765723a202170726f746f636f6c00000000604082015260600190565b634e487b7160e01b600052604160045260246000fd5b80820180821115610a4857610a48611a4f565b6000600160ff1b8201611b5d57611b5d611a4f565b5060000390565b600081611b7357611b73611a4f565b50600019019056fea26469706673582212200b80a86a4ca4185a70cba44afac9c4431cae3e0b90ab6bebd964f5382fd649e064736f6c63430008100033",
  "devdoc": {
    "kind": "dev",
    "methods": {
      "calcImpliedProbability(uint256,uint256,uint256)": {
        "params": {
          "budget": "of trader in collateral decimals"
        }
      },
      "decrementScore(address,uint256)": {
        "details": "score >= 0, update > 0"
      },
      "filterTraders(uint256,address)": {
        "details": "percentile is is wad 0-100"
      },
      "incrementScore(address,uint256)": {
        "details": "score >= 0, update > 0"
      }
    },
    "version": 1
  },
  "userdoc": {
    "kind": "user",
    "methods": {
      "calcImpliedProbability(uint256,uint256,uint256)": {
        "notice": "calculates implied probability of the trader, used to update the reputation score by brier scoring mechanism"
      },
      "decrementScore(address,uint256)": {
        "notice": "decrements trader's score"
      },
      "expectedRepGain(address,uint256,uint256,uint256,uint256)": {
        "notice": "given a hypoethetical bond price, calculate how much reputation one will gain"
      },
      "filterTraders(uint256,address)": {
        "notice": "returns a list of top X percentile traders excluding the utilizer. "
      },
      "incrementScore(address,uint256)": {
        "notice": "increments trader's score"
      },
      "recordPull(address,uint256,uint256,uint256,uint256,bool)": {
        "notice": "record for reputation updates whenever trader buys longZCB"
      },
      "recordPush(address,uint256,uint256,bool,uint256)": {
        "notice": "updates reputation whenever trader redeems  param premature is true if trader redeems/sells before maturity  param redeemAmount is 0 if !perpetual, since for those traders will redeem all at once "
      }
    },
    "version": 1
  },
  "storageLayout": {
    "storage": [
      {
        "astId": 15644,
        "contract": "contracts/protocol/reputationmanager.sol:ReputationManager",
        "label": "trader_scores",
        "offset": 0,
        "slot": "0",
        "type": "t_mapping(t_address,t_uint256)"
      },
      {
        "astId": 15648,
        "contract": "contracts/protocol/reputationmanager.sol:ReputationManager",
        "label": "isRated",
        "offset": 0,
        "slot": "1",
        "type": "t_mapping(t_address,t_bool)"
      },
      {
        "astId": 15651,
        "contract": "contracts/protocol/reputationmanager.sol:ReputationManager",
        "label": "traders",
        "offset": 0,
        "slot": "2",
        "type": "t_array(t_address)dyn_storage"
      },
      {
        "astId": 15653,
        "contract": "contracts/protocol/reputationmanager.sol:ReputationManager",
        "label": "controller",
        "offset": 0,
        "slot": "3",
        "type": "t_address"
      },
      {
        "astId": 15655,
        "contract": "contracts/protocol/reputationmanager.sol:ReputationManager",
        "label": "marketManager",
        "offset": 0,
        "slot": "4",
        "type": "t_address"
      },
      {
        "astId": 15657,
        "contract": "contracts/protocol/reputationmanager.sol:ReputationManager",
        "label": "deployer",
        "offset": 0,
        "slot": "5",
        "type": "t_address"
      },
      {
        "astId": 15722,
        "contract": "contracts/protocol/reputationmanager.sol:ReputationManager",
        "label": "repLogs",
        "offset": 0,
        "slot": "6",
        "type": "t_mapping(t_address,t_mapping(t_uint256,t_struct(RepLog)15715_storage))"
      }
    ],
    "types": {
      "t_address": {
        "encoding": "inplace",
        "label": "address",
        "numberOfBytes": "20"
      },
      "t_array(t_address)dyn_storage": {
        "base": "t_address",
        "encoding": "dynamic_array",
        "label": "address[]",
        "numberOfBytes": "32"
      },
      "t_bool": {
        "encoding": "inplace",
        "label": "bool",
        "numberOfBytes": "1"
      },
      "t_mapping(t_address,t_bool)": {
        "encoding": "mapping",
        "key": "t_address",
        "label": "mapping(address => bool)",
        "numberOfBytes": "32",
        "value": "t_bool"
      },
      "t_mapping(t_address,t_mapping(t_uint256,t_struct(RepLog)15715_storage))": {
        "encoding": "mapping",
        "key": "t_address",
        "label": "mapping(address => mapping(uint256 => struct ReputationManager.RepLog))",
        "numberOfBytes": "32",
        "value": "t_mapping(t_uint256,t_struct(RepLog)15715_storage)"
      },
      "t_mapping(t_address,t_uint256)": {
        "encoding": "mapping",
        "key": "t_address",
        "label": "mapping(address => uint256)",
        "numberOfBytes": "32",
        "value": "t_uint256"
      },
      "t_mapping(t_uint256,t_struct(RepLog)15715_storage)": {
        "encoding": "mapping",
        "key": "t_uint256",
        "label": "mapping(uint256 => struct ReputationManager.RepLog)",
        "numberOfBytes": "32",
        "value": "t_struct(RepLog)15715_storage"
      },
      "t_struct(RepLog)15715_storage": {
        "encoding": "inplace",
        "label": "struct ReputationManager.RepLog",
        "members": [
          {
            "astId": 15708,
            "contract": "contracts/protocol/reputationmanager.sol:ReputationManager",
            "label": "collateralAmount",
            "offset": 0,
            "slot": "0",
            "type": "t_uint256"
          },
          {
            "astId": 15710,
            "contract": "contracts/protocol/reputationmanager.sol:ReputationManager",
            "label": "bondAmount",
            "offset": 0,
            "slot": "1",
            "type": "t_uint256"
          },
          {
            "astId": 15712,
            "contract": "contracts/protocol/reputationmanager.sol:ReputationManager",
            "label": "budget",
            "offset": 0,
            "slot": "2",
            "type": "t_uint256"
          },
          {
            "astId": 15714,
            "contract": "contracts/protocol/reputationmanager.sol:ReputationManager",
            "label": "perpetual",
            "offset": 0,
            "slot": "3",
            "type": "t_bool"
          }
        ],
        "numberOfBytes": "128"
      },
      "t_uint256": {
        "encoding": "inplace",
        "label": "uint256",
        "numberOfBytes": "32"
      }
    }
  }
}