{
  "address": "0xA51c1fc2f0D1a1b8494Ed1FE312d7C3a78Ed91C0",
  "abi": [
    {
      "inputs": [
        {
          "internalType": "address",
          "name": "_controller",
          "type": "address"
        },
        {
          "internalType": "address",
          "name": "_marketManager",
          "type": "address"
        },
        {
          "internalType": "address",
          "name": "_reputationManager",
          "type": "address"
        }
      ],
      "stateMutability": "nonpayable",
      "type": "constructor"
    },
    {
      "inputs": [
        {
          "internalType": "uint256",
          "name": "marketId",
          "type": "uint256"
        }
      ],
      "name": "_getValidators",
      "outputs": [],
      "stateMutability": "nonpayable",
      "type": "function"
    },
    {
      "inputs": [
        {
          "internalType": "uint256",
          "name": "marketId",
          "type": "uint256"
        }
      ],
      "name": "approvalCondition",
      "outputs": [
        {
          "internalType": "bool",
          "name": "",
          "type": "bool"
        }
      ],
      "stateMutability": "view",
      "type": "function"
    },
    {
      "inputs": [
        {
          "internalType": "uint256",
          "name": "marketId",
          "type": "uint256"
        },
        {
          "internalType": "address",
          "name": "validator",
          "type": "address"
        }
      ],
      "name": "deniedValidator",
      "outputs": [
        {
          "internalType": "uint256",
          "name": "collateral_amount",
          "type": "uint256"
        }
      ],
      "stateMutability": "nonpayable",
      "type": "function"
    },
    {
      "inputs": [
        {
          "internalType": "uint256",
          "name": "requestId",
          "type": "uint256"
        },
        {
          "internalType": "uint256[]",
          "name": "randomWords",
          "type": "uint256[]"
        }
      ],
      "name": "fulfillRandomWords",
      "outputs": [],
      "stateMutability": "nonpayable",
      "type": "function"
    },
    {
      "inputs": [
        {
          "internalType": "uint256",
          "name": "marketId",
          "type": "uint256"
        }
      ],
      "name": "getFinalStake",
      "outputs": [
        {
          "internalType": "uint256",
          "name": "",
          "type": "uint256"
        }
      ],
      "stateMutability": "view",
      "type": "function"
    },
    {
      "inputs": [
        {
          "internalType": "uint256",
          "name": "marketId",
          "type": "uint256"
        }
      ],
      "name": "getInitialStake",
      "outputs": [
        {
          "internalType": "uint256",
          "name": "",
          "type": "uint256"
        }
      ],
      "stateMutability": "view",
      "type": "function"
    },
    {
      "inputs": [
        {
          "internalType": "uint256",
          "name": "marketId",
          "type": "uint256"
        }
      ],
      "name": "getNumApproved",
      "outputs": [
        {
          "internalType": "uint256",
          "name": "",
          "type": "uint256"
        }
      ],
      "stateMutability": "view",
      "type": "function"
    },
    {
      "inputs": [
        {
          "internalType": "uint256",
          "name": "marketId",
          "type": "uint256"
        }
      ],
      "name": "getNumResolved",
      "outputs": [
        {
          "internalType": "uint256",
          "name": "",
          "type": "uint256"
        }
      ],
      "stateMutability": "view",
      "type": "function"
    },
    {
      "inputs": [
        {
          "internalType": "uint256",
          "name": "marketId",
          "type": "uint256"
        }
      ],
      "name": "getTotalStaked",
      "outputs": [
        {
          "internalType": "uint256",
          "name": "",
          "type": "uint256"
        }
      ],
      "stateMutability": "view",
      "type": "function"
    },
    {
      "inputs": [
        {
          "internalType": "uint256",
          "name": "marketId",
          "type": "uint256"
        }
      ],
      "name": "getTotalValidatorSales",
      "outputs": [
        {
          "internalType": "uint256",
          "name": "",
          "type": "uint256"
        }
      ],
      "stateMutability": "view",
      "type": "function"
    },
    {
      "inputs": [
        {
          "internalType": "uint256",
          "name": "marketId",
          "type": "uint256"
        }
      ],
      "name": "getValidatorCap",
      "outputs": [
        {
          "internalType": "uint256",
          "name": "",
          "type": "uint256"
        }
      ],
      "stateMutability": "view",
      "type": "function"
    },
    {
      "inputs": [
        {
          "internalType": "uint256",
          "name": "marketId",
          "type": "uint256"
        }
      ],
      "name": "getValidatorPrice",
      "outputs": [
        {
          "internalType": "uint256",
          "name": "",
          "type": "uint256"
        }
      ],
      "stateMutability": "view",
      "type": "function"
    },
    {
      "inputs": [
        {
          "internalType": "uint256",
          "name": "marketId",
          "type": "uint256"
        }
      ],
      "name": "getValidatorRequiredCollateral",
      "outputs": [
        {
          "internalType": "uint256",
          "name": "",
          "type": "uint256"
        }
      ],
      "stateMutability": "view",
      "type": "function"
    },
    {
      "inputs": [
        {
          "internalType": "uint256",
          "name": "marketId",
          "type": "uint256"
        },
        {
          "internalType": "address",
          "name": "validator",
          "type": "address"
        }
      ],
      "name": "hasApproved",
      "outputs": [
        {
          "internalType": "bool",
          "name": "",
          "type": "bool"
        }
      ],
      "stateMutability": "view",
      "type": "function"
    },
    {
      "inputs": [
        {
          "internalType": "uint256",
          "name": "marketId",
          "type": "uint256"
        },
        {
          "internalType": "address",
          "name": "user",
          "type": "address"
        }
      ],
      "name": "isValidator",
      "outputs": [
        {
          "internalType": "bool",
          "name": "",
          "type": "bool"
        }
      ],
      "stateMutability": "view",
      "type": "function"
    },
    {
      "inputs": [
        {
          "internalType": "uint256",
          "name": "marketId",
          "type": "uint256"
        },
        {
          "internalType": "address",
          "name": "validator",
          "type": "address"
        }
      ],
      "name": "redeemValidator",
      "outputs": [],
      "stateMutability": "nonpayable",
      "type": "function"
    },
    {
      "inputs": [
        {
          "internalType": "uint256",
          "name": "marketId",
          "type": "uint256"
        }
      ],
      "name": "resolveCondition",
      "outputs": [
        {
          "internalType": "bool",
          "name": "",
          "type": "bool"
        }
      ],
      "stateMutability": "view",
      "type": "function"
    },
    {
      "inputs": [
        {
          "internalType": "uint256",
          "name": "marketId",
          "type": "uint256"
        },
        {
          "internalType": "address",
          "name": "validator",
          "type": "address"
        }
      ],
      "name": "unlockValidatorStake",
      "outputs": [],
      "stateMutability": "nonpayable",
      "type": "function"
    },
    {
      "inputs": [
        {
          "internalType": "uint256",
          "name": "marketId",
          "type": "uint256"
        },
        {
          "internalType": "uint256",
          "name": "principal",
          "type": "uint256"
        },
        {
          "internalType": "uint256",
          "name": "principal_loss",
          "type": "uint256"
        }
      ],
      "name": "updateValidatorStake",
      "outputs": [],
      "stateMutability": "nonpayable",
      "type": "function"
    },
    {
      "inputs": [
        {
          "internalType": "uint256",
          "name": "marketId",
          "type": "uint256"
        },
        {
          "internalType": "address",
          "name": "validator",
          "type": "address"
        }
      ],
      "name": "validatorApprove",
      "outputs": [
        {
          "internalType": "uint256",
          "name": "collateral_required",
          "type": "uint256"
        },
        {
          "internalType": "uint256",
          "name": "zcb_for_sale",
          "type": "uint256"
        }
      ],
      "stateMutability": "nonpayable",
      "type": "function"
    },
    {
      "inputs": [
        {
          "internalType": "uint256",
          "name": "marketId",
          "type": "uint256"
        },
        {
          "internalType": "address",
          "name": "validator",
          "type": "address"
        }
      ],
      "name": "validatorResolve",
      "outputs": [],
      "stateMutability": "nonpayable",
      "type": "function"
    },
    {
      "inputs": [
        {
          "internalType": "uint256",
          "name": "marketId",
          "type": "uint256"
        },
        {
          "internalType": "uint256",
          "name": "principal",
          "type": "uint256"
        },
        {
          "internalType": "bool",
          "name": "isPool",
          "type": "bool"
        }
      ],
      "name": "validatorSetup",
      "outputs": [],
      "stateMutability": "nonpayable",
      "type": "function"
    },
    {
      "inputs": [
        {
          "internalType": "uint256",
          "name": "",
          "type": "uint256"
        }
      ],
      "name": "validator_data",
      "outputs": [
        {
          "internalType": "uint256",
          "name": "val_cap",
          "type": "uint256"
        },
        {
          "internalType": "uint256",
          "name": "avg_price",
          "type": "uint256"
        },
        {
          "internalType": "bool",
          "name": "requested",
          "type": "bool"
        },
        {
          "internalType": "uint256",
          "name": "totalSales",
          "type": "uint256"
        },
        {
          "internalType": "uint256",
          "name": "totalStaked",
          "type": "uint256"
        },
        {
          "internalType": "uint256",
          "name": "numApproved",
          "type": "uint256"
        },
        {
          "internalType": "uint256",
          "name": "initialStake",
          "type": "uint256"
        },
        {
          "internalType": "uint256",
          "name": "finalStake",
          "type": "uint256"
        },
        {
          "internalType": "uint256",
          "name": "numResolved",
          "type": "uint256"
        }
      ],
      "stateMutability": "view",
      "type": "function"
    },
    {
      "inputs": [
        {
          "internalType": "uint256",
          "name": "marketId",
          "type": "uint256"
        }
      ],
      "name": "viewValidators",
      "outputs": [
        {
          "internalType": "address[]",
          "name": "",
          "type": "address[]"
        }
      ],
      "stateMutability": "view",
      "type": "function"
    }
  ],
  "transactionHash": "0x0636aab099f4f5fe35ee0741d42463e18883d34463d80b092ce7ca380bd936a0",
  "args": [
    "0xe7f1725E7734CE288F8367e1Bb143E90bb3F0512",
    "0xDc64a140Aa3E981100a9becA4E685f962f0cF6C9",
    "0x610178dA211FEF7D417bC0e6FeD39F05609AD788"
  ],
  "numDeployments": 1,
  "solcInputHash": "1d4922d9e16f2cea7955084258f39cff",
  "bytecode": "0x60806040523480156200001157600080fd5b50604051620027e0380380620027e08339810160408190526200003491620000a4565b600080546001600160a01b039485166001600160a01b03199182161790915560018054928516928216929092179091556002805492909316918116919091179091556003805490911633179055620000ee565b80516001600160a01b03811681146200009f57600080fd5b919050565b600080600060608486031215620000ba57600080fd5b620000c58462000087565b9250620000d56020850162000087565b9150620000e56040850162000087565b90509250925092565b6126e280620000fe6000396000f3fe608060405234801561001057600080fd5b50600436106101585760003560e01c8063830e2a02116100c3578063c8fa33e71161007c578063c8fa33e71461039d578063cca5276614610446578063d466461c14610459578063d65ec9641461047c578063ebd4dc461461048f578063f23566b5146104b257600080fd5b8063830e2a02146102fa578063875e487e1461030d5780638f5709a514610330578063937b6feb146103435780639c84342314610366578063a40c63f71461037957600080fd5b80633ec8dc3b116101155780633ec8dc3b1461023e578063457a89f61461025e5780635f0ab49c146102715780636172cd6714610299578063805798ac146102ac57806381e1b07c146102cf57600080fd5b806305a1ce991461015d5780632358d5a81461018557806323f2a73f146101c25780632f8899f3146101d557806337bc93b01461020657806338ba461414610229575b600080fd5b61017061016b36600461216b565b6104c5565b60405190151581526020015b60405180910390f35b61017061019336600461219c565b60008281526005602090815260408083206001600160a01b038516845260010190915290205460ff1692915050565b6101706101d036600461219c565b610508565b6101f86101e336600461216b565b60009081526005602052604090206008015490565b60405190815260200161017c565b6101f861021436600461216b565b60009081526005602052604090206007015490565b61023c610237366004612237565b6105a3565b005b61025161024c36600461216b565b61087b565b60405161017c91906122d9565b61023c61026c36600461216b565b6108ea565b61028461027f36600461219c565b610b33565b6040805192835260208301919091520161017c565b61023c6102a736600461219c565b610f82565b6101f86102ba36600461216b565b60009081526005602052604090206009015490565b6101706102dd36600461216b565b60009081526005602052604090206003810154600c909101541490565b6101f861030836600461219c565b611327565b6101f861031b36600461216b565b6000908152600560205260409020600a015490565b61023c61033e36600461219c565b6113b1565b6101f861035136600461216b565b6000908152600560205260409020600b015490565b61023c610374366004612334565b611401565b6101f861038736600461216b565b6000908152600560208190526040909120015490565b6103fc6103ab36600461216b565b60056020819052600091825260409091206004810154918101546006820154600783015460088401546009850154600a860154600b870154600c90970154959660ff90951695939492939192909189565b60408051998a5260208a0198909852951515968801969096526060870193909352608086019190915260a085015260c084015260e08301919091526101008201526101200161017c565b61023c61045436600461236d565b61148c565b6101f861046736600461216b565b60009081526005602052604090206004015490565b6101f861048a36600461216b565b611802565b6101f861049d36600461216b565b6000908152600560205260409020600c015490565b61023c6104c036600461219c565b6118c7565b6000818152600560205260408120600481015460079091015410801590610502575060008281526005602052604090206009810154600390910154145b92915050565b6003546000906001600160a01b039081169083160361052957506001610502565b6000838152600560205260408120600301905b815481101561059857836001600160a01b031682828154811061056157610561612399565b6000918252602090912001546001600160a01b03160361058657600192505050610502565b80610590816123c5565b91505061053c565b506000949350505050565b6000546001600160a01b031633146105d65760405162461bcd60e51b81526004016105cd906123de565b60405180910390fd5b6000828152600460208190526040808320546002549151632a4a9dd160e01b8152928301819052929182916001600160a01b031690632a4a9dd19060240161010060405180830381865afa158015610632573d6000803e3d6000fd5b505050506040513d601f19601f820116820180604052508101906106569190612406565b505095505050505091508184511461067057610670612463565b60008054604051638d4f16d760e01b8152600481018690526001600160a01b0390911690638d4f16d7906024016040805180830381865afa1580156106b9573d6000803e3d6000fd5b505050506040513d601f19601f820116820180604052508101906106dd9190612479565b600154604051631535c04160e11b8152600481018690526001600160a01b03808416602483015292945060009350911690632a6b808290604401600060405180830381865afa158015610734573d6000803e3d6000fd5b505050506040513d6000823e601f3d908101601f1916820160405261075c91908101906124a8565b805190915060005b858160ff16101561087057600061079884848b8560ff168151811061078b5761078b612399565b60200260200101516119dd565b9050600560008981526020019081526020016000206003018482815181106107c2576107c2612399565b60209081029190910181015182546001808201855560009485529290932090920180546001600160a01b0319166001600160a01b0390931692909217909155849061080d9085612542565b8151811061081d5761081d612399565b602002602001015184828151811061083757610837612399565b6001600160a01b03909216602092830291909101909101528261085981612555565b9350505080806108689061256c565b915050610764565b505050505050505050565b6000818152600560209081526040918290206003018054835181840281018401909452808452606093928301828280156108de57602002820191906000526020600020905b81546001600160a01b031681526001909101906020018083116108c0575b50505050509050919050565b60008054604051638d4f16d760e01b8152600481018490526001600160a01b0390911690638d4f16d7906024016040805180830381865afa158015610933573d6000803e3d6000fd5b505050506040513d601f19601f820116820180604052508101906109579190612479565b600254604051632a4a9dd160e01b8152600481018690529193506000925082916001600160a01b0390911690632a4a9dd19060240161010060405180830381865afa1580156109aa573d6000803e3d6000fd5b505050506040513d601f19601f820116820180604052508101906109ce9190612406565b5050600154604051631535c04160e11b8152600481018390526001600160a01b038b81166024830152979950919750600096169450632a6b808293506044019150610a169050565b600060405180830381865afa158015610a33573d6000803e3d6000fd5b505050506040513d6000823e601f3d908101601f19168201604052610a5b91908101906124a8565b905082815111610ae35760008581526005602090815260409091208251610a8a926003909201918401906120f1565b508281511015610adc5760405162461bcd60e51b815260206004820152601860248201527f6e6f7420656e6f7567682072617465642074726164657273000000000000000060448201526064016105cd565b5050505050565b50505060008281526005602090815260408220600601805460ff1916600190811790915590915260049052507fabd6e7cb50984ff9c2f3e18a2660c3353dadf4e3291deeb275dae2cd1e44fe0555565b600080610b408484610508565b610b755760405162461bcd60e51b81526004016105cd906020808252600490820152630855985b60e21b604082015260600190565b60005460405163b743939b60e01b8152600481018690526001600160a01b039091169063b743939b90602401602060405180830381865afa158015610bbe573d6000803e3d6000fd5b505050506040513d601f19601f82011682018060405250810190610be2919061258b565b610c1b5760405162461bcd60e51b815260206004820152600a60248201526910b1b7b73234ba34b7b760b11b60448201526064016105cd565b60008481526005602090815260408083206001600160a01b0387168452600181019092529091205460ff1615610c7d5760405162461bcd60e51b8152602060048201526007602482015266085cdd185ad95960ca1b60448201526064016105cd565b600a810154600054604051630c4abc6560e41b815260048101889052610d0892879230926001600160a01b039091169063c4abc65090602401602060405180830381865afa158015610cd3573d6000803e3d6000fd5b505050506040513d601f19601f82011682018060405250810190610cf791906125a8565b6001600160a01b0316929190611ba3565b80600a0154816008016000828254610d2091906125c5565b90915550506001600160a01b03848116600090815260018381016020526040808320805460ff19169092179091556002549051632a4a9dd160e01b81526004810189905291921690632a4a9dd19060240161010060405180830381865afa158015610d8f573d6000803e3d6000fd5b505050506040513d601f19601f82011682018060405250810190610db39190612406565b505050505050509050808260040154610dcc91906125ee565b9250610de5826005015484611c2690919063ffffffff16565b6001600160a01b038616600090815260208490526040902054909450831015610e3b5760405162461bcd60e51b8152602060048201526008602482015267185c1c1c9bdd995960c21b60448201526064016105cd565b6001600160a01b03851660009081526020839052604081208054859290610e639084906125c5565b90915550610e7490508360016125c5565b826007016000828254610e8791906125c5565b925050819055506001826009016000828254610ea391906125c5565b90915550506000546040516305a1ce9960e01b8152600481018890526001600160a01b03909116906305a1ce9990602401602060405180830381865afa158015610ef1573d6000803e3d6000fd5b505050506040513d601f19601f82011682018060405250810190610f15919061258b565b15610f795760005460405163cabe2ae160e01b8152600481018890526001600160a01b039091169063cabe2ae190602401600060405180830381600087803b158015610f6057600080fd5b505af1158015610f74573d6000803e3d6000fd5b505050505b50509250929050565b6000546001600160a01b03163314610fac5760405162461bcd60e51b81526004016105cd906123de565b610fb68282610508565b610fef5760405162461bcd60e51b815260206004820152600a60248201526910bb30b634b230ba37b960b11b60448201526064016105cd565b60008281526005602090815260408083206001600160a01b038516845260010190915290205460ff1661104d5760405162461bcd60e51b8152602060048201526006602482015265217374616b6560d01b60448201526064016105cd565b600254604051638a6cac3d60e01b8152600481018490526000916001600160a01b031690638a6cac3d9060240160c060405180830381865afa158015611097573d6000803e3d6000fd5b505050506040513d601f19601f820116820180604052508101906110bb9190612602565b5050600080546040516311f7790d60e31b8152600481018a905295965090946001600160a01b039091169350638fbbc86892506024019050602060405180830381865afa158015611110573d6000803e3d6000fd5b505050506040513d601f19601f82011682018060405250810190611134919061267f565b60008054604051634632752560e11b81526004810184905292935090916001600160a01b0390911690638c64ea4a90602401602060405180830381865afa158015611183573d6000803e3d6000fd5b505050506040513d601f19601f820116820180604052508101906111a791906125a8565b9050821561127a57600085815260056020526040808220600a015491549051630c4abc6560e41b81526004810188905261124692879290916001600160a01b039091169063c4abc650906024015b602060405180830381865afa158015611212573d6000803e3d6000fd5b505050506040513d601f19601f8201168201806040525081019061123691906125a8565b6001600160a01b03169190611c3b565b6000858152600560205260408120600a810154600890910180549192909161126f908490612542565b909155506112f39050565b600085815260056020526040808220600b015491549051630c4abc6560e41b8152600481018890526112c492879290916001600160a01b039091169063c4abc650906024016111f5565b6000858152600560205260408120600b81015460089091018054919290916112ed908490612542565b90915550505b50505060009182526005602090815260408084206001600160a01b039093168452600190920190529020805460ff19169055565b600080546001600160a01b031633146113525760405162461bcd60e51b81526004016105cd906123de565b6000838152600560208181526040808420928301546001600160a01b0387168552929091529091205461138491611c26565b60009384526005602090815260408086206001600160a01b03909516865293905291832092909255919050565b6000546001600160a01b031633146113db5760405162461bcd60e51b81526004016105cd906123de565b60009182526005602090815260408084206001600160a01b039093168452919052812055565b6000546001600160a01b0316331461142b5760405162461bcd60e51b81526004016105cd906123de565b816000036114695760405162461bcd60e51b815260206004820152600b60248201526a0c081c1c9a5b98da5c185b60aa1b60448201526064016105cd565b611472836108ea565b61147d838383611cb9565b6114878383611ea6565b505050565b6000546001600160a01b031633146114b65760405162461bcd60e51b81526004016105cd906123de565b806000036114db5750506000908152600560205260409020600a810154600b90910155565b600080546040516311f7790d60e31b8152600481018690526001600160a01b0390911690638fbbc86890602401602060405180830381865afa158015611525573d6000803e3d6000fd5b505050506040513d601f19601f82011682018060405250810190611549919061267f565b60008054604051634632752560e11b81526004810184905292935090916001600160a01b0390911690638c64ea4a90602401602060405180830381865afa158015611598573d6000803e3d6000fd5b505050506040513d601f19601f820116820180604052508101906115bc91906125a8565b6040516363737ac960e11b8152600481018690529091506000906001600160a01b0383169063c6e6f59290602401602060405180830381865afa158015611607573d6000803e3d6000fd5b505050506040513d601f19601f8201168201806040525081019061162b919061267f565b6040516363737ac960e11b8152600481018690529091506000906001600160a01b0384169063c6e6f59290602401602060405180830381865afa158015611676573d6000803e3d6000fd5b505050506040513d601f19601f8201168201806040525081019061169a919061267f565b6000888152600560205260408120600801549192506116d76116bd6002846125ee565b6116d1866116cb8782612542565b906120a3565b90611c26565b6116e26002846125ee565b6116ec91906125c5565b600054604051630c4abc6560e41b8152600481018c90529192506001600160a01b03169063c4abc65090602401602060405180830381865afa158015611736573d6000803e3d6000fd5b505050506040513d601f19601f8201168201806040525081019061175a91906125a8565b6001600160a01b03166342966c686117728385612542565b6040518263ffffffff1660e01b815260040161179091815260200190565b600060405180830381600087803b1580156117aa57600080fd5b505af11580156117be573d6000803e3d6000fd5b50505060008a815260056020526040902060088101839055600301546117e59150826125ee565b60008a8152600560205260409020600b0155505050505050505050565b6000818152600560205260408082206004908101546002549251632a4a9dd160e01b81529182018590529183916001600160a01b0390911690632a4a9dd19060240161010060405180830381865afa158015611862573d6000803e3d6000fd5b505050506040513d601f19601f820116820180604052508101906118869190612406565b5050505050505090506000818361189d91906125ee565b600086815260056020819052604090912001549091506118be908290611c26565b95945050505050565b6000546001600160a01b031633146118f15760405162461bcd60e51b81526004016105cd906123de565b6118fb8282610508565b6119305760405162461bcd60e51b81526004016105cd90602080825260049082015263085d985b60e21b604082015260600190565b60008281526005602090815260408083206001600160a01b038516845260020190915290205460ff161561198e5760405162461bcd60e51b81526020600482015260056024820152641d9bdd195960da1b60448201526064016105cd565b60008281526005602081815260408084206001600160a01b0386168552600281018352908420805460ff19166001179055858452919052600c018054916119d4836123c5565b91905055505050565b60008060005b848160ff161015611aac5760005486516001600160a01b03909116906308ad90a590889060ff8516908110611a1a57611a1a612399565b60200260200101516040518263ffffffff1660e01b8152600401611a4d91906001600160a01b0391909116815260200190565b602060405180830381865afa158015611a6a573d6000803e3d6000fd5b505050506040513d601f19601f82011682018060405250810190611a8e919061267f565b611a9890836125c5565b915080611aa48161256c565b9150506119e3565b506000611ab98285612698565b905060005b858160ff161015611b98576000805488516001600160a01b03909116906308ad90a5908a9060ff8616908110611af657611af6612399565b60200260200101516040518263ffffffff1660e01b8152600401611b2991906001600160a01b0391909116815260200190565b602060405180830381865afa158015611b46573d6000803e3d6000fd5b505050506040513d601f19601f82011682018060405250810190611b6a919061267f565b905080831015611b82575060ff169250611b9c915050565b9091039080611b908161256c565b915050611abe565b5050505b9392505050565b60006040516323b872dd60e01b81528460048201528360248201528260448201526020600060648360008a5af13d15601f3d1160016000511416171691505080610adc5760405162461bcd60e51b81526020600482015260146024820152731514905394d1915497d19493d357d1905253115160621b60448201526064016105cd565b6000611b9c8383670de0b6b3a76400006120b4565b600060405163a9059cbb60e01b8152836004820152826024820152602060006044836000895af13d15601f3d1160016000511416171691505080611cb35760405162461bcd60e51b815260206004820152600f60248201526e1514905394d1915497d19052531151608a1b60448201526064016105cd565b50505050565b60025460405163068bcd8d60e01b8152600481018590526000916001600160a01b03169063068bcd8d90602401602060405180830381865afa158015611d03573d6000803e3d6000fd5b505050506040513d601f19601f82011682018060405250810190611d2791906125a8565b600254604051632a4a9dd160e01b8152600481018790529192506000916001600160a01b0390911690632a4a9dd19060240161010060405180830381865afa158015611d77573d6000803e3d6000fd5b505050506040513d601f19601f82011682018060405250810190611d9b9190612406565b505050505050915050611dad816120d2565b8015611dbd5750611dbd846120d2565b611df45760405162461bcd60e51b81526020600482015260086024820152673830b930b6a2a92960c11b60448201526064016105cd565b600085815260056020526040812090611e0d8387611c26565b90506000846001600160a01b0316637063b06c6040518163ffffffff1660e01b8152600401602060405180830381865afa158015611e4f573d6000803e3d6000fd5b505050506040513d601f19601f82011682018060405250810190611e73919061267f565b90506000611e8c611e858360016125c5565b84906120a3565b600485019290925550600590920191909155505050505050565b600080546040516311f7790d60e31b8152600481018590526001600160a01b0390911690638fbbc86890602401602060405180830381865afa158015611ef0573d6000803e3d6000fd5b505050506040513d601f19601f82011682018060405250810190611f14919061267f565b60008054604051634632752560e11b81526004810184905292935090916001600160a01b0390911690638c64ea4a90602401602060405180830381865afa158015611f63573d6000803e3d6000fd5b505050506040513d601f19601f82011682018060405250810190611f8791906125a8565b6040516363737ac960e11b8152600481018590529091506000906001600160a01b0383169063c6e6f59290602401602060405180830381865afa158015611fd2573d6000803e3d6000fd5b505050506040513d601f19601f82011682018060405250810190611ff6919061267f565b600254604051632a4a9dd160e01b8152600481018890529192506000916001600160a01b0390911690632a4a9dd19060240161010060405180830381865afa158015612046573d6000803e3d6000fd5b505050506040513d601f19601f8201168201806040525081019061206a9190612406565b9750505050505050506120868282611c2690919063ffffffff16565b600096875260056020526040909620600a01959095555050505050565b6000611b9c83670de0b6b3a7640000845b60008260001904841183021582026120cb57600080fd5b5091020490565b60006120e8612710670de0b6b3a76400006125ee565b90911015919050565b828054828255906000526020600020908101928215612146579160200282015b8281111561214657825182546001600160a01b0319166001600160a01b03909116178255602090920191600190910190612111565b50612152929150612156565b5090565b5b808211156121525760008155600101612157565b60006020828403121561217d57600080fd5b5035919050565b6001600160a01b038116811461219957600080fd5b50565b600080604083850312156121af57600080fd5b8235915060208301356121c181612184565b809150509250929050565b634e487b7160e01b600052604160045260246000fd5b604051601f8201601f1916810167ffffffffffffffff8111828210171561220b5761220b6121cc565b604052919050565b600067ffffffffffffffff82111561222d5761222d6121cc565b5060051b60200190565b6000806040838503121561224a57600080fd5b8235915060208084013567ffffffffffffffff81111561226957600080fd5b8401601f8101861361227a57600080fd5b803561228d61228882612213565b6121e2565b81815260059190911b820183019083810190888311156122ac57600080fd5b928401925b828410156122ca578335825292840192908401906122b1565b80955050505050509250929050565b6020808252825182820181905260009190848201906040850190845b8181101561231a5783516001600160a01b0316835292840192918401916001016122f5565b50909695505050505050565b801515811461219957600080fd5b60008060006060848603121561234957600080fd5b8335925060208401359150604084013561236281612326565b809150509250925092565b60008060006060848603121561238257600080fd5b505081359360208301359350604090920135919050565b634e487b7160e01b600052603260045260246000fd5b634e487b7160e01b600052601160045260246000fd5b6000600182016123d7576123d76123af565b5060010190565b6020808252600e908201526d3737ba1031b7b73a3937b63632b960911b604082015260600190565b600080600080600080600080610100898b03121561242357600080fd5b505086516020880151604089015160608a015160808b015160a08c015160c08d015160e0909d0151959e949d50929b919a50985090965094509092509050565b634e487b7160e01b600052600160045260246000fd5b6000806040838503121561248c57600080fd5b825161249781612184565b60208401519092506121c181612184565b600060208083850312156124bb57600080fd5b825167ffffffffffffffff8111156124d257600080fd5b8301601f810185136124e357600080fd5b80516124f161228882612213565b81815260059190911b8201830190838101908783111561251057600080fd5b928401925b8284101561253757835161252881612184565b82529284019290840190612515565b979650505050505050565b81810381811115610502576105026123af565b600081612564576125646123af565b506000190190565b600060ff821660ff8103612582576125826123af565b60010192915050565b60006020828403121561259d57600080fd5b8151611b9c81612326565b6000602082840312156125ba57600080fd5b8151611b9c81612184565b80820180821115610502576105026123af565b634e487b7160e01b600052601260045260246000fd5b6000826125fd576125fd6125d8565b500490565b60008060008060008060c0878903121561261b57600080fd5b865161262681612326565b602088015190965061263781612326565b604088015190955061264881612326565b606088015190945061265981612326565b608088015190935061266a81612326565b8092505060a087015190509295509295509295565b60006020828403121561269157600080fd5b5051919050565b6000826126a7576126a76125d8565b50069056fea26469706673582212203610fda586a0a3d4893b61422cab68bd3fdb67a2c4aebf450164a864981a453a64736f6c63430008100033",
  "devdoc": {
    "kind": "dev",
    "methods": {},
    "version": 1
  },
  "userdoc": {
    "kind": "user",
    "methods": {},
    "version": 1
  },
  "storageLayout": {
    "storage": [
      {
        "astId": 23722,
        "contract": "contracts/protocol/validatorManager.sol:ValidatorManager",
        "label": "controller",
        "offset": 0,
        "slot": "0",
        "type": "t_contract(Controller)16129"
      },
      {
        "astId": 23725,
        "contract": "contracts/protocol/validatorManager.sol:ValidatorManager",
        "label": "reputationManager",
        "offset": 0,
        "slot": "1",
        "type": "t_contract(ReputationManager)22868"
      },
      {
        "astId": 23728,
        "contract": "contracts/protocol/validatorManager.sol:ValidatorManager",
        "label": "marketManager",
        "offset": 0,
        "slot": "2",
        "type": "t_contract(MarketManager)20899"
      },
      {
        "astId": 23730,
        "contract": "contracts/protocol/validatorManager.sol:ValidatorManager",
        "label": "creator",
        "offset": 0,
        "slot": "3",
        "type": "t_address"
      },
      {
        "astId": 23783,
        "contract": "contracts/protocol/validatorManager.sol:ValidatorManager",
        "label": "requestToMarketId",
        "offset": 0,
        "slot": "4",
        "type": "t_mapping(t_uint256,t_uint256)"
      },
      {
        "astId": 23788,
        "contract": "contracts/protocol/validatorManager.sol:ValidatorManager",
        "label": "validator_data",
        "offset": 0,
        "slot": "5",
        "type": "t_mapping(t_uint256,t_struct(ValidatorData)23779_storage)"
      }
    ],
    "types": {
      "t_address": {
        "encoding": "inplace",
        "label": "address",
        "numberOfBytes": "20"
      },
      "t_array(t_address)dyn_storage": {
        "base": "t_address",
        "encoding": "dynamic_array",
        "label": "address[]",
        "numberOfBytes": "32"
      },
      "t_bool": {
        "encoding": "inplace",
        "label": "bool",
        "numberOfBytes": "1"
      },
      "t_contract(Controller)16129": {
        "encoding": "inplace",
        "label": "contract Controller",
        "numberOfBytes": "20"
      },
      "t_contract(MarketManager)20899": {
        "encoding": "inplace",
        "label": "contract MarketManager",
        "numberOfBytes": "20"
      },
      "t_contract(ReputationManager)22868": {
        "encoding": "inplace",
        "label": "contract ReputationManager",
        "numberOfBytes": "20"
      },
      "t_mapping(t_address,t_bool)": {
        "encoding": "mapping",
        "key": "t_address",
        "label": "mapping(address => bool)",
        "numberOfBytes": "32",
        "value": "t_bool"
      },
      "t_mapping(t_address,t_uint256)": {
        "encoding": "mapping",
        "key": "t_address",
        "label": "mapping(address => uint256)",
        "numberOfBytes": "32",
        "value": "t_uint256"
      },
      "t_mapping(t_uint256,t_struct(ValidatorData)23779_storage)": {
        "encoding": "mapping",
        "key": "t_uint256",
        "label": "mapping(uint256 => struct ValidatorManager.ValidatorData)",
        "numberOfBytes": "32",
        "value": "t_struct(ValidatorData)23779_storage"
      },
      "t_mapping(t_uint256,t_uint256)": {
        "encoding": "mapping",
        "key": "t_uint256",
        "label": "mapping(uint256 => uint256)",
        "numberOfBytes": "32",
        "value": "t_uint256"
      },
      "t_struct(ValidatorData)23779_storage": {
        "encoding": "inplace",
        "label": "struct ValidatorManager.ValidatorData",
        "members": [
          {
            "astId": 23749,
            "contract": "contracts/protocol/validatorManager.sol:ValidatorManager",
            "label": "sales",
            "offset": 0,
            "slot": "0",
            "type": "t_mapping(t_address,t_uint256)"
          },
          {
            "astId": 23753,
            "contract": "contracts/protocol/validatorManager.sol:ValidatorManager",
            "label": "staked",
            "offset": 0,
            "slot": "1",
            "type": "t_mapping(t_address,t_bool)"
          },
          {
            "astId": 23757,
            "contract": "contracts/protocol/validatorManager.sol:ValidatorManager",
            "label": "resolved",
            "offset": 0,
            "slot": "2",
            "type": "t_mapping(t_address,t_bool)"
          },
          {
            "astId": 23760,
            "contract": "contracts/protocol/validatorManager.sol:ValidatorManager",
            "label": "validators",
            "offset": 0,
            "slot": "3",
            "type": "t_array(t_address)dyn_storage"
          },
          {
            "astId": 23762,
            "contract": "contracts/protocol/validatorManager.sol:ValidatorManager",
            "label": "val_cap",
            "offset": 0,
            "slot": "4",
            "type": "t_uint256"
          },
          {
            "astId": 23764,
            "contract": "contracts/protocol/validatorManager.sol:ValidatorManager",
            "label": "avg_price",
            "offset": 0,
            "slot": "5",
            "type": "t_uint256"
          },
          {
            "astId": 23766,
            "contract": "contracts/protocol/validatorManager.sol:ValidatorManager",
            "label": "requested",
            "offset": 0,
            "slot": "6",
            "type": "t_bool"
          },
          {
            "astId": 23768,
            "contract": "contracts/protocol/validatorManager.sol:ValidatorManager",
            "label": "totalSales",
            "offset": 0,
            "slot": "7",
            "type": "t_uint256"
          },
          {
            "astId": 23770,
            "contract": "contracts/protocol/validatorManager.sol:ValidatorManager",
            "label": "totalStaked",
            "offset": 0,
            "slot": "8",
            "type": "t_uint256"
          },
          {
            "astId": 23772,
            "contract": "contracts/protocol/validatorManager.sol:ValidatorManager",
            "label": "numApproved",
            "offset": 0,
            "slot": "9",
            "type": "t_uint256"
          },
          {
            "astId": 23774,
            "contract": "contracts/protocol/validatorManager.sol:ValidatorManager",
            "label": "initialStake",
            "offset": 0,
            "slot": "10",
            "type": "t_uint256"
          },
          {
            "astId": 23776,
            "contract": "contracts/protocol/validatorManager.sol:ValidatorManager",
            "label": "finalStake",
            "offset": 0,
            "slot": "11",
            "type": "t_uint256"
          },
          {
            "astId": 23778,
            "contract": "contracts/protocol/validatorManager.sol:ValidatorManager",
            "label": "numResolved",
            "offset": 0,
            "slot": "12",
            "type": "t_uint256"
          }
        ],
        "numberOfBytes": "416"
      },
      "t_uint256": {
        "encoding": "inplace",
        "label": "uint256",
        "numberOfBytes": "32"
      }
    }
  }
}