{
  "address": "0x8243F01d099B4f62789F3EcBE0c0F401972A873E",
  "abi": [
    {
      "inputs": [
        {
          "internalType": "contract Controller",
          "name": "_controller",
          "type": "address"
        },
        {
          "internalType": "contract MarketManager",
          "name": "_marketManager",
          "type": "address"
        },
        {
          "internalType": "uint256",
          "name": "vaultId",
          "type": "uint256"
        }
      ],
      "name": "fetchInitial",
      "outputs": [
        {
          "components": [
            {
              "internalType": "string",
              "name": "name",
              "type": "string"
            },
            {
              "internalType": "uint256",
              "name": "vaultId",
              "type": "uint256"
            },
            {
              "internalType": "uint256[]",
              "name": "marketIds",
              "type": "uint256[]"
            },
            {
              "components": [
                {
                  "internalType": "uint256",
                  "name": "N",
                  "type": "uint256"
                },
                {
                  "internalType": "uint256",
                  "name": "sigma",
                  "type": "uint256"
                },
                {
                  "internalType": "uint256",
                  "name": "alpha",
                  "type": "uint256"
                },
                {
                  "internalType": "uint256",
                  "name": "omega",
                  "type": "uint256"
                },
                {
                  "internalType": "uint256",
                  "name": "delta",
                  "type": "uint256"
                },
                {
                  "internalType": "uint256",
                  "name": "r",
                  "type": "uint256"
                },
                {
                  "internalType": "uint256",
                  "name": "s",
                  "type": "uint256"
                },
                {
                  "internalType": "uint256",
                  "name": "steak",
                  "type": "uint256"
                }
              ],
              "internalType": "struct MarketManager.MarketParameters",
              "name": "default_params",
              "type": "tuple"
            },
            {
              "internalType": "bool",
              "name": "onlyVerified",
              "type": "bool"
            },
            {
              "internalType": "uint256",
              "name": "r",
              "type": "uint256"
            },
            {
              "internalType": "uint256",
              "name": "asset_limit",
              "type": "uint256"
            },
            {
              "internalType": "uint256",
              "name": "total_asset_limit",
              "type": "uint256"
            },
            {
              "components": [
                {
                  "internalType": "address",
                  "name": "addr",
                  "type": "address"
                },
                {
                  "internalType": "string",
                  "name": "symbol",
                  "type": "string"
                },
                {
                  "internalType": "uint256",
                  "name": "decimals",
                  "type": "uint256"
                },
                {
                  "internalType": "string",
                  "name": "name",
                  "type": "string"
                }
              ],
              "internalType": "struct Fetcher.AssetBundle",
              "name": "want",
              "type": "tuple"
            },
            {
              "internalType": "uint256",
              "name": "totalShares",
              "type": "uint256"
            },
            {
              "internalType": "address",
              "name": "vault_address",
              "type": "address"
            },
            {
              "internalType": "uint256",
              "name": "exchangeRate",
              "type": "uint256"
            },
            {
              "internalType": "uint256",
              "name": "totalAssets",
              "type": "uint256"
            },
            {
              "internalType": "uint256",
              "name": "utilizationRate",
              "type": "uint256"
            },
            {
              "internalType": "uint256",
              "name": "totalEstimatedAPR",
              "type": "uint256"
            },
            {
              "internalType": "uint256",
              "name": "goalAPR",
              "type": "uint256"
            },
            {
              "internalType": "uint256",
              "name": "totalProtection",
              "type": "uint256"
            }
          ],
          "internalType": "struct Fetcher.VaultBundle",
          "name": "vaultBundle",
          "type": "tuple"
        },
        {
          "components": [
            {
              "internalType": "uint256",
              "name": "marketId",
              "type": "uint256"
            },
            {
              "internalType": "uint256",
              "name": "vaultId",
              "type": "uint256"
            },
            {
              "internalType": "uint256",
              "name": "creationTimestamp",
              "type": "uint256"
            },
            {
              "internalType": "uint256",
              "name": "resolutionTimestamp",
              "type": "uint256"
            },
            {
              "internalType": "bool",
              "name": "marketConditionMet",
              "type": "bool"
            },
            {
              "internalType": "uint256",
              "name": "approvedPrincipal",
              "type": "uint256"
            },
            {
              "internalType": "uint256",
              "name": "approvedYield",
              "type": "uint256"
            },
            {
              "internalType": "uint256",
              "name": "managerStake",
              "type": "uint256"
            },
            {
              "internalType": "uint256",
              "name": "totalCollateral",
              "type": "uint256"
            },
            {
              "internalType": "uint256",
              "name": "redemptionPrice",
              "type": "uint256"
            },
            {
              "internalType": "address",
              "name": "bondPool",
              "type": "address"
            },
            {
              "internalType": "address",
              "name": "longZCB",
              "type": "address"
            },
            {
              "internalType": "uint256",
              "name": "longZCBSupply",
              "type": "uint256"
            },
            {
              "internalType": "address",
              "name": "shortZCB",
              "type": "address"
            },
            {
              "internalType": "uint256",
              "name": "shortZCBSupply",
              "type": "uint256"
            },
            {
              "internalType": "uint256",
              "name": "longZCBPrice",
              "type": "uint256"
            },
            {
              "internalType": "uint256",
              "name": "a_initial",
              "type": "uint256"
            },
            {
              "internalType": "uint256",
              "name": "b_initial",
              "type": "uint256"
            },
            {
              "internalType": "uint256",
              "name": "b",
              "type": "uint256"
            },
            {
              "internalType": "uint256",
              "name": "discountCap",
              "type": "uint256"
            },
            {
              "internalType": "uint256",
              "name": "discountedReserves",
              "type": "uint256"
            },
            {
              "components": [
                {
                  "internalType": "uint256",
                  "name": "N",
                  "type": "uint256"
                },
                {
                  "internalType": "uint256",
                  "name": "sigma",
                  "type": "uint256"
                },
                {
                  "internalType": "uint256",
                  "name": "alpha",
                  "type": "uint256"
                },
                {
                  "internalType": "uint256",
                  "name": "omega",
                  "type": "uint256"
                },
                {
                  "internalType": "uint256",
                  "name": "delta",
                  "type": "uint256"
                },
                {
                  "internalType": "uint256",
                  "name": "r",
                  "type": "uint256"
                },
                {
                  "internalType": "uint256",
                  "name": "s",
                  "type": "uint256"
                },
                {
                  "internalType": "uint256",
                  "name": "steak",
                  "type": "uint256"
                }
              ],
              "internalType": "struct MarketManager.MarketParameters",
              "name": "parameters",
              "type": "tuple"
            },
            {
              "components": [
                {
                  "internalType": "bool",
                  "name": "duringAssessment",
                  "type": "bool"
                },
                {
                  "internalType": "bool",
                  "name": "onlyReputable",
                  "type": "bool"
                },
                {
                  "internalType": "bool",
                  "name": "resolved",
                  "type": "bool"
                },
                {
                  "internalType": "bool",
                  "name": "alive",
                  "type": "bool"
                },
                {
                  "internalType": "bool",
                  "name": "atLoss",
                  "type": "bool"
                },
                {
                  "internalType": "uint256",
                  "name": "base_budget",
                  "type": "uint256"
                }
              ],
              "internalType": "struct MarketManager.MarketPhaseData",
              "name": "phase",
              "type": "tuple"
            },
            {
              "components": [
                {
                  "internalType": "address[]",
                  "name": "validators",
                  "type": "address[]"
                },
                {
                  "internalType": "uint256",
                  "name": "val_cap",
                  "type": "uint256"
                },
                {
                  "internalType": "uint256",
                  "name": "avg_price",
                  "type": "uint256"
                },
                {
                  "internalType": "uint256",
                  "name": "totalSales",
                  "type": "uint256"
                },
                {
                  "internalType": "uint256",
                  "name": "totalStaked",
                  "type": "uint256"
                },
                {
                  "internalType": "uint256",
                  "name": "numApproved",
                  "type": "uint256"
                },
                {
                  "internalType": "uint256",
                  "name": "initialStake",
                  "type": "uint256"
                },
                {
                  "internalType": "uint256",
                  "name": "finalStake",
                  "type": "uint256"
                },
                {
                  "internalType": "uint256",
                  "name": "numResolved",
                  "type": "uint256"
                }
              ],
              "internalType": "struct Fetcher.ValidatorBundle",
              "name": "validatorData",
              "type": "tuple"
            }
          ],
          "internalType": "struct Fetcher.MarketBundle[]",
          "name": "marketBundle",
          "type": "tuple[]"
        },
        {
          "components": [
            {
              "internalType": "uint256",
              "name": "marketId",
              "type": "uint256"
            },
            {
              "internalType": "uint256",
              "name": "vaultId",
              "type": "uint256"
            },
            {
              "internalType": "address",
              "name": "utilizer",
              "type": "address"
            },
            {
              "internalType": "bool",
              "name": "trusted",
              "type": "bool"
            },
            {
              "internalType": "bool",
              "name": "isPool",
              "type": "bool"
            },
            {
              "internalType": "uint256",
              "name": "balance",
              "type": "uint256"
            },
            {
              "internalType": "uint256",
              "name": "faceValue",
              "type": "uint256"
            },
            {
              "internalType": "uint256",
              "name": "principal",
              "type": "uint256"
            },
            {
              "internalType": "uint256",
              "name": "expectedYield",
              "type": "uint256"
            },
            {
              "internalType": "uint256",
              "name": "duration",
              "type": "uint256"
            },
            {
              "internalType": "string",
              "name": "description",
              "type": "string"
            },
            {
              "internalType": "address",
              "name": "instrument_address",
              "type": "address"
            },
            {
              "internalType": "enum Vault.InstrumentType",
              "name": "instrument_type",
              "type": "uint8"
            },
            {
              "internalType": "uint256",
              "name": "maturityDate",
              "type": "uint256"
            },
            {
              "internalType": "bytes32",
              "name": "name",
              "type": "bytes32"
            },
            {
              "internalType": "uint256",
              "name": "seniorAPR",
              "type": "uint256"
            },
            {
              "internalType": "uint256",
              "name": "exposurePercentage",
              "type": "uint256"
            },
            {
              "internalType": "uint256",
              "name": "managers_stake",
              "type": "uint256"
            },
            {
              "internalType": "uint256",
              "name": "approvalPrice",
              "type": "uint256"
            },
            {
              "components": [
                {
                  "internalType": "uint256",
                  "name": "saleAmount",
                  "type": "uint256"
                },
                {
                  "internalType": "uint256",
                  "name": "initPrice",
                  "type": "uint256"
                },
                {
                  "internalType": "uint256",
                  "name": "promisedReturn",
                  "type": "uint256"
                },
                {
                  "internalType": "uint256",
                  "name": "inceptionTime",
                  "type": "uint256"
                },
                {
                  "internalType": "uint256",
                  "name": "inceptionPrice",
                  "type": "uint256"
                },
                {
                  "internalType": "uint256",
                  "name": "leverageFactor",
                  "type": "uint256"
                },
                {
                  "internalType": "uint256",
                  "name": "managementFee",
                  "type": "uint256"
                },
                {
                  "internalType": "uint256",
                  "name": "pju",
                  "type": "uint256"
                },
                {
                  "internalType": "uint256",
                  "name": "psu",
                  "type": "uint256"
                },
                {
                  "internalType": "uint128",
                  "name": "totalBorrowedAssets",
                  "type": "uint128"
                },
                {
                  "internalType": "uint128",
                  "name": "totalSuppliedAssets",
                  "type": "uint128"
                },
                {
                  "internalType": "uint256",
                  "name": "totalAvailableAssets",
                  "type": "uint256"
                },
                {
                  "internalType": "uint64",
                  "name": "APR",
                  "type": "uint64"
                },
                {
                  "components": [
                    {
                      "internalType": "address",
                      "name": "tokenAddress",
                      "type": "address"
                    },
                    {
                      "internalType": "uint256",
                      "name": "tokenId",
                      "type": "uint256"
                    },
                    {
                      "internalType": "uint256",
                      "name": "decimals",
                      "type": "uint256"
                    },
                    {
                      "internalType": "uint256",
                      "name": "maxAmount",
                      "type": "uint256"
                    },
                    {
                      "internalType": "uint256",
                      "name": "borrowAmount",
                      "type": "uint256"
                    },
                    {
                      "internalType": "uint256",
                      "name": "totalCollateral",
                      "type": "uint256"
                    },
                    {
                      "internalType": "string",
                      "name": "symbol",
                      "type": "string"
                    },
                    {
                      "internalType": "string",
                      "name": "name",
                      "type": "string"
                    },
                    {
                      "internalType": "bool",
                      "name": "isERC20",
                      "type": "bool"
                    },
                    {
                      "internalType": "address",
                      "name": "owner",
                      "type": "address"
                    }
                  ],
                  "internalType": "struct Fetcher.CollateralBundle[]",
                  "name": "collaterals",
                  "type": "tuple[]"
                }
              ],
              "internalType": "struct Fetcher.PoolBundle",
              "name": "poolData",
              "type": "tuple"
            },
            {
              "components": [
                {
                  "internalType": "uint256",
                  "name": "strikePrice",
                  "type": "uint256"
                },
                {
                  "internalType": "uint256",
                  "name": "pricePerContract",
                  "type": "uint256"
                },
                {
                  "internalType": "uint256",
                  "name": "shortCollateral",
                  "type": "uint256"
                },
                {
                  "internalType": "uint256",
                  "name": "longCollateral",
                  "type": "uint256"
                },
                {
                  "internalType": "uint256",
                  "name": "maturityDate",
                  "type": "uint256"
                },
                {
                  "internalType": "uint256",
                  "name": "tradeTime",
                  "type": "uint256"
                },
                {
                  "internalType": "address",
                  "name": "oracle",
                  "type": "address"
                },
                {
                  "internalType": "bool",
                  "name": "approvalStatus",
                  "type": "bool"
                }
              ],
              "internalType": "struct Fetcher.OptionsBundle",
              "name": "optionsData",
              "type": "tuple"
            }
          ],
          "internalType": "struct Fetcher.InstrumentBundle[]",
          "name": "instrumentBundle",
          "type": "tuple[]"
        },
        {
          "internalType": "uint256",
          "name": "timestamp",
          "type": "uint256"
        }
      ],
      "stateMutability": "view",
      "type": "function"
    }
  ],
  "transactionHash": "0x498af0877c42e4fd88e1eb756d80e540143ae494c90e1fe8ed2447aed0394af1",
  "args": [],
  "numDeployments": 16,
  "solcInputHash": "f57560b738e80d898757e09e13969f77",
  "bytecode": "0x608060405234801561001057600080fd5b50613c97806100206000396000f3fe608060405234801561001057600080fd5b506004361061002b5760003560e01c8063f8ac4e2c14610030575b600080fd5b61004361003e3660046129a0565b61005c565b6040516100539493929190613120565b60405180910390f35b610064612514565b604051634632752560e11b815260048101839052606090819042906000906001600160a01b03891690638c64ea4a90602401602060405180830381865afa1580156100b3573d6000803e3d6000fd5b505050506040513d601f19601f820116820180604052508101906100d7919061327f565b90506001600160a01b03811661015f576100ef610840565b6040805160008082526020820190925290610120565b61010d6125db565b8152602001906001900390816101055790505b506040805160008082526020820190925290610152565b61013f6126e6565b8152602001906001900390816101375790505b5094509450945050610837565b806001600160a01b03166306fdde036040518163ffffffff1660e01b8152600401600060405180830381865afa15801561019d573d6000803e3d6000fd5b505050506040513d6000823e601f3d908101601f191682016040526101c591908101906133c1565b8552602085018690526040516358dbf0f960e11b8152600481018790526001600160a01b0389169063b1b7e1f290602401600060405180830381865afa158015610213573d6000803e3d6000fd5b505050506040513d6000823e601f3d908101601f1916820160405261023b9190810190613418565b8560400181905250806001600160a01b0316637572cb1f6040518163ffffffff1660e01b815260040161010060405180830381865afa158015610282573d6000803e3d6000fd5b505050506040513d601f19601f820116820180604052508101906102a691906134ad565b8560600181905250806001600160a01b031663f7d070de6040518163ffffffff1660e01b8152600401602060405180830381865afa1580156102ec573d6000803e3d6000fd5b505050506040513d601f19601f820116820180604052508101906103109190613551565b856080019015159081151581525050610389816001600160a01b03166338d52e0f6040518163ffffffff1660e01b8152600401602060405180830381865afa158015610360573d6000803e3d6000fd5b505050506040513d601f19601f82011682018060405250810190610384919061327f565b610975565b856101000181905250806001600160a01b0316636c8ae38c6040518163ffffffff1660e01b8152600401602060405180830381865afa1580156103d0573d6000803e3d6000fd5b505050506040513d601f19601f820116820180604052508101906103f4919061356c565b8560a0018181525050806001600160a01b0316635f260bb86040518163ffffffff1660e01b8152600401602060405180830381865afa15801561043b573d6000803e3d6000fd5b505050506040513d601f19601f8201168201806040525081019061045f919061356c565b8560c0018181525050806001600160a01b031663c83baf4e6040518163ffffffff1660e01b8152600401602060405180830381865afa1580156104a6573d6000803e3d6000fd5b505050506040513d601f19601f820116820180604052508101906104ca919061356c565b8560e0018181525050806001600160a01b03166318160ddd6040518163ffffffff1660e01b8152600401602060405180830381865afa158015610511573d6000803e3d6000fd5b505050506040513d601f19601f82011682018060405250810190610535919061356c565b85610120018181525050806001600160a01b03166301e1d1146040518163ffffffff1660e01b8152600401602060405180830381865afa15801561057d573d6000803e3d6000fd5b505050506040513d601f19601f820116820180604052508101906105a1919061356c565b6101808601526001600160a01b03818116610140870152604051630323d56760e61b815260048101889052600091829182918291908d169063c8f559c090602401608060405180830381865afa1580156105ff573d6000803e3d6000fd5b505050506040513d601f19601f820116820180604052508101906106239190613585565b6102008d018490526101c08d018390526101e08d018290526101608d0181905260408d015151939750919550935091506000036106cf57604080516000808252602082019092528a9161068c565b6106796125db565b8152602001906001900390816106715790505b5060408051600080825260208201909252906106be565b6106ab6126e6565b8152602001906001900390816106a35790505b509850985098505050505050610837565b8860400151516001600160401b038111156106ec576106ec6132a3565b60405190808252806020026020018201604052801561072557816020015b6107126125db565b81526020019060019003908161070a5790505b5097508860400151516001600160401b03811115610745576107456132a3565b60405190808252806020026020018201604052801561077e57816020015b61076b6126e6565b8152602001906001900390816107635790505b50965060005b896040015151811015610830576107ba8a6040015182815181106107aa576107aa6135bb565b60200260200101518c8f8f610aff565b8982815181106107cc576107cc6135bb565b60200260200101819052506108008a6040015182815181106107f0576107f06135bb565b60200260200101518c8f8f61120f565b888281518110610812576108126135bb565b60200260200101819052508080610828906135d1565b915050610784565b5050505050505b93509350935093565b610848612514565b60408051610240810182526000610220820181815282526020808301829052835182815290810184529192830191905081526020016040518061010001604052806000815260200160008152602001600081526020016000815260200160008152602001600081526020016000815260200160008152508152602001600015158152602001600081526020016000815260200160008152602001604051806080016040528060006001600160a01b03168152602001604051806020016040528060008152508152602001600081526020016040518060200160405280600081525081525081526020016000815260200160006001600160a01b0316815260200160008152602001600081526020016000815260200160008152602001600081526020016000815250905090565b6109a9604051806080016040528060006001600160a01b031681526020016060815260200160008152602001606081525090565b6001600160a01b038216808252604080516395d89b4160e01b815290516395d89b41916004808201926000929091908290030181865afa1580156109f1573d6000803e3d6000fd5b505050506040513d6000823e601f3d908101601f19168201604052610a1991908101906133c1565b8160200181905250816001600160a01b031663313ce5676040518163ffffffff1660e01b8152600401602060405180830381865afa158015610a5f573d6000803e3d6000fd5b505050506040513d601f19601f82011682018060405250810190610a8391906135f8565b60ff16816040018181525050816001600160a01b03166306fdde036040518163ffffffff1660e01b8152600401600060405180830381865afa158015610acd573d6000803e3d6000fd5b505050506040513d6000823e601f3d908101601f19168201604052610af591908101906133c1565b6060820152919050565b610b076125db565b8481526020810184905260405163eb44fdd360e01b8152600481018690526000906001600160a01b0384169063eb44fdd390602401600060405180830381865afa158015610b59573d6000803e3d6000fd5b505050506040513d6000823e601f3d908101601f19168201604052610b819190810190613626565b608081015160408481019190915260a082015160608501525163b743939b60e01b8152600481018890529091506001600160a01b0385169063b743939b90602401602060405180830381865afa158015610bdf573d6000803e3d6000fd5b505050506040513d601f19601f82011682018060405250810190610c039190613551565b1515608083015260405163ac1b6b0160e01b8152600481018790526000906001600160a01b0386169063ac1b6b0190602401606060405180830381865afa158015610c52573d6000803e3d6000fd5b505050506040513d601f19601f82011682018060405250810190610c7691906136ea565b602081015160a085015260408082015160c0860152815160e08601525163661f1cf560e01b8152600481018990529091506001600160a01b0385169063661f1cf590602401602060405180830381865afa158015610cd8573d6000803e3d6000fd5b505050506040513d601f19601f82011682018060405250810190610cfc919061356c565b610100840152604051633e4de2e760e11b8152600481018890526001600160a01b03851690637c9bc5ce90602401602060405180830381865afa158015610d47573d6000803e3d6000fd5b505050506040513d601f19601f82011682018060405250810190610d6b919061356c565b61012084015260405163265d466f60e11b8152600481018890526001600160a01b03851690634cba8cde9060240160c060405180830381865afa158015610db6573d6000803e3d6000fd5b505050506040513d601f19601f82011682018060405250810190610dda9190613745565b6102c084015260405163c6ceb96b60e01b8152600481018890526001600160a01b0385169063c6ceb96b9060240161010060405180830381865afa158015610e26573d6000803e3d6000fd5b505050506040513d601f19601f82011682018060405250810190610e4a91906134ad565b6102a084015281516001600160a01b0390811661014085015260208084015182166101608601526040808501805184166101a08801525181516318160ddd60e01b815291519316926318160ddd926004808401939192918290030181865afa158015610eba573d6000803e3d6000fd5b505050506040513d601f19601f82011682018060405250810190610ede919061356c565b836101c001818152505081602001516001600160a01b03166318160ddd6040518163ffffffff1660e01b8152600401602060405180830381865afa158015610f2a573d6000803e3d6000fd5b505050506040513d601f19601f82011682018060405250810190610f4e919061356c565b8361018001818152505081600001516001600160a01b03166311e715d66040518163ffffffff1660e01b8152600401602060405180830381865afa158015610f9a573d6000803e3d6000fd5b505050506040513d601f19601f82011682018060405250810190610fbe919061356c565b836101e001818152505081600001516001600160a01b0316636e2f7ad36040518163ffffffff1660e01b8152600401602060405180830381865afa15801561100a573d6000803e3d6000fd5b505050506040513d601f19601f8201168201806040525081019061102e919061356c565b8361020001818152505081600001516001600160a01b031663558bdb296040518163ffffffff1660e01b8152600401602060405180830381865afa15801561107a573d6000803e3d6000fd5b505050506040513d601f19601f8201168201806040525081019061109e919061356c565b8361022001818152505081600001516001600160a01b0316634df7e3d06040518163ffffffff1660e01b8152600401602060405180830381865afa1580156110ea573d6000803e3d6000fd5b505050506040513d601f19601f8201168201806040525081019061110e919061356c565b8361024001818152505081600001516001600160a01b0316637063b06c6040518163ffffffff1660e01b8152600401602060405180830381865afa15801561115a573d6000803e3d6000fd5b505050506040513d601f19601f8201168201806040525081019061117e919061356c565b8361026001818152505081600001516001600160a01b0316631816eb136040518163ffffffff1660e01b8152600401602060405180830381865afa1580156111ca573d6000803e3d6000fd5b505050506040513d601f19601f820116820180604052508101906111ee919061356c565b6102808401526111fe8786611630565b6102e0840152509095945050505050565b6112176126e6565b604051634632752560e11b8152600481018590526000906001600160a01b03851690638c64ea4a90602401602060405180830381865afa15801561125f573d6000803e3d6000fd5b505050506040513d601f19601f82011682018060405250810190611283919061327f565b604051638d4f16d760e01b8152600481018890529091506000906001600160a01b03861690638d4f16d7906024016040805180830381865afa1580156112cd573d6000803e3d6000fd5b505050506040513d601f19601f820116820180604052508101906112f191906137df565b604051634f626a0760e11b8152600481018a9052909250600091506001600160a01b03841690639ec4d40e90602401600060405180830381865afa15801561133d573d6000803e3d6000fd5b505050506040513d6000823e601f3d908101601f19168201604052611365919081019061388a565b9050600080600080896001600160a01b03166337b4dd3a8d6040518263ffffffff1660e01b815260040161139b91815260200190565b608060405180830381865afa1580156113b8573d6000803e3d6000fd5b505050506040513d601f19601f820116820180604052508101906113dc9190613585565b93509350935093508388610220018181525050828861020001818152505081886101e001818152505080886102400181815250508b8860000181815250508a88602001818152505084602001518860800190151590811515815250508460400151886060019015159081151581525050866001600160a01b03166338d52e0f6040518163ffffffff1660e01b8152600401602060405180830381865afa15801561148a573d6000803e3d6000fd5b505050506040513d601f19601f820116820180604052508101906114ae919061327f565b6101408601516040516370a0823160e01b81526001600160a01b0391821660048201529116906370a0823190602401602060405180830381865afa1580156114fa573d6000803e3d6000fd5b505050506040513d601f19601f8201168201806040525081019061151e919061356c565b60a089015260c085015160e0808a0191909152850151610100808a0191909152850151610120808a0191909152850151610140890152610160850151610180890190600581111561157157611571612d6f565b9081600581111561158457611584612d6f565b9052506101808501516101a08901526101408501516001600160a01b039081166101608a01528616604089015284516101c0890152600285610160015160058111156115d2576115d2612d6f565b036115ee576115e38c8c8c8c611a20565b610260890152611621565b6001856101600151600581111561160757611607612d6f565b036116215761161a88610160015161214e565b6102808901525b50505050505050949350505050565b6116386127b6565b60405163a40c63f760e01b8152600481018490526001600160a01b0383169063a40c63f790602401602060405180830381865afa15801561167d573d6000803e3d6000fd5b505050506040513d601f19601f820116820180604052508101906116a1919061356c565b60408281019190915251633ec8dc3b60e01b8152600481018490526001600160a01b03831690633ec8dc3b90602401600060405180830381865afa1580156116ed573d6000803e3d6000fd5b505050506040513d6000823e601f3d908101601f1916820160405261171591908101906139af565b815260405163037bc93b60e41b8152600481018490526001600160a01b038316906337bc93b090602401602060405180830381865afa15801561175c573d6000803e3d6000fd5b505050506040513d601f19601f82011682018060405250810190611780919061356c565b6060820152604051632f8899f360e01b8152600481018490526001600160a01b03831690632f8899f390602401602060405180830381865afa1580156117ca573d6000803e3d6000fd5b505050506040513d601f19601f820116820180604052508101906117ee919061356c565b6080820152604051632015e62b60e21b8152600481018490526001600160a01b0383169063805798ac90602401602060405180830381865afa158015611838573d6000803e3d6000fd5b505050506040513d601f19601f8201168201806040525081019061185c919061356c565b60a08201526040516343af243f60e11b8152600481018490526001600160a01b0383169063875e487e90602401602060405180830381865afa1580156118a6573d6000803e3d6000fd5b505050506040513d601f19601f820116820180604052508101906118ca919061356c565b60c082015260405163937b6feb60e01b8152600481018490526001600160a01b0383169063937b6feb90602401602060405180830381865afa158015611914573d6000803e3d6000fd5b505050506040513d601f19601f82011682018060405250810190611938919061356c565b60e08201526040516375ea6e2360e11b8152600481018490526001600160a01b0383169063ebd4dc4690602401602060405180830381865afa158015611982573d6000803e3d6000fd5b505050506040513d601f19601f820116820180604052508101906119a6919061356c565b610100820152604051633519918760e21b8152600481018490526001600160a01b0383169063d466461c90602401602060405180830381865afa1580156119f1573d6000803e3d6000fd5b505050506040513d601f19601f82011682018060405250810190611a15919061356c565b602082015292915050565b611a28612802565b604051634632752560e11b8152600481018590526000906001600160a01b03851690638c64ea4a90602401602060405180830381865afa158015611a70573d6000803e3d6000fd5b505050506040513d601f19601f82011682018060405250810190611a94919061327f565b6040516350c6e6cf60e01b8152600481018890529091506000906001600160a01b038316906350c6e6cf90602401602060405180830381865afa158015611adf573d6000803e3d6000fd5b505050506040513d601f19601f82011682018060405250810190611b03919061327f565b604051634f626a0760e11b8152600481018990529091506000906001600160a01b03841690639ec4d40e90602401600060405180830381865afa158015611b4e573d6000803e3d6000fd5b505050506040513d6000823e601f3d908101601f19168201604052611b76919081019061388a565b6101a081018051518652805160209081015190870152805160409081015181880152815160609081015190880152815160809081015190880152815160a09081015190880152905160c0908101519087015251630ca13e4560e41b8152600481018a905290915060009081906001600160a01b0386169063ca13e45090602401606060405180830381865afa158015611c13573d6000803e3d6000fd5b505050506040513d601f19601f82011682018060405250810190611c379190613a3d565b50915091508186610100018181525050808660e00181815250506000846001600160a01b0316638354cc596040518163ffffffff1660e01b8152600401600060405180830381865afa158015611c91573d6000803e3d6000fd5b505050506040513d6000823e601f3d908101601f19168201604052611cb99190810190613a6b565b8051909150806001600160401b03811115611cd657611cd66132a3565b604051908082528060200260200182016040528015611d0f57816020015b611cfc61288c565b815260200190600190039081611cf45790505b506101a089015260005b81811015611f66576000806000808a6001600160a01b0316639189ed1c888781518110611d4857611d486135bb565b602002602001015160000151898881518110611d6657611d666135bb565b6020026020010151602001516040518363ffffffff1660e01b8152600401611da39291906001600160a01b03929092168252602082015260400190565b608060405180830381865afa158015611dc0573d6000803e3d6000fd5b505050506040513d601f19601f82011682018060405250810190611de49190613b1e565b9350935093509350611e34878681518110611e0157611e016135bb565b602002602001015160000151888781518110611e1f57611e1f6135bb565b602002602001015160200151858585896122a7565b8d6101a001518681518110611e4b57611e4b6135bb565b60200260200101819052508a6001600160a01b031663838e9ae3888781518110611e7757611e776135bb565b602002602001015160000151898881518110611e9557611e956135bb565b6020026020010151602001516040518363ffffffff1660e01b8152600401611ed29291906001600160a01b03929092168252602082015260400190565b602060405180830381865afa158015611eef573d6000803e3d6000fd5b505050506040513d601f19601f82011682018060405250810190611f13919061327f565b8d6101a001518681518110611f2a57611f2a6135bb565b602002602001015161012001906001600160a01b031690816001600160a01b031681525050505050508080611f5e906135d1565b915050611d19565b506000866001600160a01b03166395d14ca86040518163ffffffff1660e01b8152600401606060405180830381865afa158015611fa7573d6000803e3d6000fd5b505050506040513d601f19601f82011682018060405250810190611fcb9190613b74565b6001600160401b0381166101808d01526040805163020a17bd60e61b81528151929550600094506001600160a01b038c169350638285ef4092600480830193928290030181865afa158015612024573d6000803e3d6000fd5b505050506040513d601f19601f820116820180604052508101906120489190613bce565b5090506000886001600160a01b031663f9557ccb6040518163ffffffff1660e01b81526004016040805180830381865afa15801561208a573d6000803e3d6000fd5b505050506040513d601f19601f820116820180604052508101906120ae9190613bce565b506001600160801b038084166101208e015281166101408d015260408051631d09b9e960e21b815290519192506001600160a01b038b1691637426e7a4916004808201926020929091908290030181865afa158015612111573d6000803e3d6000fd5b505050506040513d601f19601f82011682018060405250810190612135919061356c565b6101608c015250989d9c50505050505050505050505050565b6121566128f3565b60008290506000806000806000806000876001600160a01b03166329bb64c86040518163ffffffff1660e01b815260040160e060405180830381865afa1580156121a4573d6000803e3d6000fd5b505050506040513d601f19601f820116820180604052508101906121c89190613c01565b96509650965096509650965096508689600001818152505085896020018181525050848960400181815250508389606001818152505082896080018181525050818960a0018181525050808960c001906001600160a01b031690816001600160a01b031681525050876001600160a01b03166383e754a06040518163ffffffff1660e01b8152600401602060405180830381865afa15801561226e573d6000803e3d6000fd5b505050506040513d601f19601f820116820180604052508101906122929190613551565b151560e08a0152509698975050505050505050565b6122af61288c565b6001600160a01b03871681526020810186905260608101859052608081018490528215801561010083015260a0820183905261243057866001600160a01b03166306fdde036040518163ffffffff1660e01b8152600401600060405180830381865afa158015612323573d6000803e3d6000fd5b505050506040513d6000823e601f3d908101601f1916820160405261234b91908101906133c1565b8160e00181905250866001600160a01b03166395d89b416040518163ffffffff1660e01b8152600401600060405180830381865afa158015612391573d6000803e3d6000fd5b505050506040513d6000823e601f3d908101601f191682016040526123b991908101906133c1565b8160c00181905250866001600160a01b031663313ce5676040518163ffffffff1660e01b8152600401602060405180830381865afa1580156123ff573d6000803e3d6000fd5b505050506040513d601f19601f8201168201806040525081019061242391906135f8565b60ff16604082015261250a565b866001600160a01b03166306fdde036040518163ffffffff1660e01b8152600401600060405180830381865afa15801561246e573d6000803e3d6000fd5b505050506040513d6000823e601f3d908101601f1916820160405261249691908101906133c1565b8160e00181905250866001600160a01b03166395d89b416040518163ffffffff1660e01b8152600401600060405180830381865afa1580156124dc573d6000803e3d6000fd5b505050506040513d6000823e601f3d908101601f1916820160405261250491908101906133c1565b60c08201525b9695505050505050565b60405180610220016040528060608152602001600081526020016060815260200161253d612943565b8152602001600015158152602001600081526020016000815260200160008152602001612594604051806080016040528060006001600160a01b031681526020016060815260200160008152602001606081525090565b81526020016000815260200160006001600160a01b031681526020016000815260200160008152602001600081526020016000815260200160008152602001600081525090565b60405180610300016040528060008152602001600081526020016000815260200160008152602001600015158152602001600081526020016000815260200160008152602001600081526020016000815260200160006001600160a01b0316815260200160006001600160a01b031681526020016000815260200160006001600160a01b031681526020016000815260200160008152602001600081526020016000815260200160008152602001600081526020016000815260200161269f612943565b81526040805160c08101825260008082526020828101829052928201819052606082018190526080820181905260a082015291019081526020016126e16127b6565b905290565b604051806102a00160405280600081526020016000815260200160006001600160a01b0316815260200160001515815260200160001515815260200160008152602001600081526020016000815260200160008152602001600081526020016060815260200160006001600160a01b031681526020016000600581111561276f5761276f612d6f565b81526020016000815260200160008019168152602001600081526020016000815260200160008152602001600081526020016127a9612802565b81526020016126e16128f3565b6040518061012001604052806060815260200160008152602001600081526020016000815260200160008152602001600081526020016000815260200160008152602001600081525090565b604051806101c0016040528060008152602001600081526020016000815260200160008152602001600081526020016000815260200160008152602001600081526020016000815260200160006001600160801b0316815260200160006001600160801b031681526020016000815260200160006001600160401b03168152602001606081525090565b60405180610140016040528060006001600160a01b031681526020016000815260200160008152602001600081526020016000815260200160008152602001606081526020016060815260200160001515815260200160006001600160a01b031681525090565b60405180610100016040528060008152602001600081526020016000815260200160008152602001600081526020016000815260200160006001600160a01b031681526020016000151581525090565b60405180610100016040528060008152602001600081526020016000815260200160008152602001600081526020016000815260200160008152602001600081525090565b6001600160a01b038116811461299d57600080fd5b50565b6000806000606084860312156129b557600080fd5b83356129c081612988565b925060208401356129d081612988565b929592945050506040919091013590565b60005b838110156129fc5781810151838201526020016129e4565b50506000910152565b60008151808452612a1d8160208601602086016129e1565b601f01601f19169290920160200192915050565b600081518084526020808501945080840160005b83811015612a6157815187529582019590820190600101612a45565b509495945050505050565b805182526020810151602083015260408101516040830152606081015160608301526080810151608083015260a081015160a083015260c081015160c083015260e081015160e08301525050565b60018060a01b0381511682526000602082015160806020850152612ae16080850182612a05565b90506040830151604085015260608301518482036060860152612b048282612a05565b95945050505050565b80516101208084528151908401819052600091610140850191602091820190845b81811015612b535782516001600160a01b031685529383019391830191600101612b2e565b50505080840151818601525060408301516040850152606083015160608501526080830151608085015260a083015160a085015260c083015160c085015260e083015160e08501526101008084015181860152508091505092915050565b600081518084526020808501808196508360051b8101915082860160005b85811015612d625782840389528151805185528581015186860152604080820151908601526060808201519086015260808082015115159086015260a0808201519086015260c0808201519086015260e0808201519086015261010080820151908601526101208082015190860152610140808201516001600160a01b03908116918701919091526101608083015182169087015261018080830151908701526101a080830151909116908601526101c080820151908601526101e08082015190860152610200808201519086015261022080820151908601526102408082015190860152610260808201519086015261028080820151908601526102a0808201516104809190612ce282890182612a6c565b50506102c0820151805115156103a0880152602081015115156103c0880152604081015115156103e0880152606081015115156104008801526080810151151561042088015260a001516104408701526102e090910151610460860182905290612d4e81870183612b0d565b9a87019a9550505090840190600101612bcf565b5091979650505050505050565b634e487b7160e01b600052602160045260246000fd5b60068110612da357634e487b7160e01b600052602160045260246000fd5b9052565b600081518084526020808501808196508360051b8101915082860160005b85811015612d62578284038952815180516001600160a01b03168552610140818701518688015260408083015190870152606080830151908701526080808301519087015260a0808301519087015260c080830151818801839052612e2c83890182612a05565b9250505060e08083015187830382890152612e478382612a05565b9250505061010080830151612e5f8289018215159052565b5050610120918201516001600160a01b031695909101949094529784019790840190600101612dc5565b60006101c0825184526020830151602085015260408301516040850152606083015160608501526080830151608085015260a083015160a085015260c083015160c085015260e083015160e085015261010080840151818601525061012080840151612eff828701826001600160801b03169052565b5050610140838101516001600160801b0316908501526101608084015190850152610180808401516001600160401b0316908501526101a08084015181860183905261250a83870182612da7565b600081518084526020808501808196508360051b8101915082860160005b85811015612d625782840389528151610380815186528682015187870152604080830151612fa3828901826001600160a01b03169052565b505060608281015115159087015260808083015115159087015260a0808301519087015260c0808301519087015260e08083015190870152610100808301519087015261012080830151908701526101408083015181880183905261300a83890182612a05565b9250505061016080830151613029828901826001600160a01b03169052565b50506101808083015161303e82890182612d85565b50506101a082810151908701526101c080830151908701526101e08083015190870152610200808301519087015261022080830151908701526102408083015190870152610260808301518783038289015261309a8382612e89565b6102809485015180518a87015260208101516102a08b015260408101516102c08b015260608101516102e08b015260808101516103008b015260a08101516103208b015260c08101516001600160a01b03166103408b015260e081015115156103608b015294909350915061310c9050565b509986019994505090840190600101612f6b565b608081526000855161030080608085015261313f610380850183612a05565b9150602088015160a08501526040880151607f19808685030160c08701526131678483612a31565b935060608a0151915061317d60e0870183612a6c565b60808a015191506101e06131948188018415159052565b60a08b01519250610200838189015260c08c015161022089015260e08c01516102408901526101008c0151935082888703016102608901526131d68685612aba565b95506101208c01516102808901526101408c015193506132026102a08901856001600160a01b03169052565b6101608c01516102c08901526101808c01516102e08901526101a08c0151948801949094526101c08b01516103208801528a0151610340870152505087015161036084015282810360208401526132598187612bb1565b9050828103604084015261326d8186612f4d565b91505082606083015295945050505050565b60006020828403121561329157600080fd5b815161329c81612988565b9392505050565b634e487b7160e01b600052604160045260246000fd5b60405160e081016001600160401b03811182821017156132db576132db6132a3565b60405290565b6040516101c081016001600160401b03811182821017156132db576132db6132a3565b604080519081016001600160401b03811182821017156132db576132db6132a3565b604051601f8201601f191681016001600160401b038111828210171561334e5761334e6132a3565b604052919050565b600082601f83011261336757600080fd5b81516001600160401b03811115613380576133806132a3565b613393601f8201601f1916602001613326565b8181528460208386010111156133a857600080fd5b6133b98260208301602087016129e1565b949350505050565b6000602082840312156133d357600080fd5b81516001600160401b038111156133e957600080fd5b6133b984828501613356565b60006001600160401b0382111561340e5761340e6132a3565b5060051b60200190565b6000602080838503121561342b57600080fd5b82516001600160401b0381111561344157600080fd5b8301601f8101851361345257600080fd5b8051613465613460826133f5565b613326565b81815260059190911b8201830190838101908783111561348457600080fd5b928401925b828410156134a257835182529284019290840190613489565b979650505050505050565b60006101008083850312156134c157600080fd5b604051908101906001600160401b03821181831017156134e3576134e36132a3565b81604052835181526020840151602082015260408401516040820152606084015160608201526080840151608082015260a084015160a082015260c084015160c082015260e084015160e0820152809250505092915050565b8051801515811461354c57600080fd5b919050565b60006020828403121561356357600080fd5b61329c8261353c565b60006020828403121561357e57600080fd5b5051919050565b6000806000806080858703121561359b57600080fd5b505082516020840151604085015160609095015191969095509092509050565b634e487b7160e01b600052603260045260246000fd5b6000600182016135f157634e487b7160e01b600052601160045260246000fd5b5060010190565b60006020828403121561360a57600080fd5b815160ff8116811461329c57600080fd5b805161354c81612988565b60006020828403121561363857600080fd5b81516001600160401b038082111561364f57600080fd5b9083019060e0828603121561366357600080fd5b61366b6132b9565b6136748361361b565b81526136826020840161361b565b60208201526136936040840161361b565b60408201526060830151828111156136aa57600080fd5b6136b687828601613356565b6060830152506080830151608082015260a083015160a08201526136dc60c0840161353c565b60c082015295945050505050565b6000606082840312156136fc57600080fd5b604051606081018181106001600160401b038211171561371e5761371e6132a3565b80604052508251815260208301516020820152604083015160408201528091505092915050565b600060c0828403121561375757600080fd5b60405160c081018181106001600160401b0382111715613779576137796132a3565b6040526137858361353c565b81526137936020840161353c565b60208201526137a46040840161353c565b60408201526137b56060840161353c565b60608201526137c66080840161353c565b608082015260a083015160a08201528091505092915050565b600080604083850312156137f257600080fd5b82516137fd81612988565b602084015190925061380e81612988565b809150509250929050565b80516006811061354c57600080fd5b600060e0828403121561383a57600080fd5b6138426132b9565b9050815181526020820151602082015260408201516040820152606082015160608201526080820151608082015260a082015160a082015260c082015160c082015292915050565b60006020828403121561389c57600080fd5b81516001600160401b03808211156138b357600080fd5b9083019061028082860312156138c857600080fd5b6138d06132e1565b825181526138e06020840161353c565b60208201526138f16040840161353c565b6040820152606083015160608201526080830151608082015260a083015160a082015260c083015160c082015260e083015160e0820152610100808401518183015250610120808401518381111561394857600080fd5b61395488828701613356565b828401525050610140915061396a82840161361b565b82820152610160915061397e828401613819565b82820152610180915081830151828201526101a091506139a086838501613828565b91810191909152949350505050565b600060208083850312156139c257600080fd5b82516001600160401b038111156139d857600080fd5b8301601f810185136139e957600080fd5b80516139f7613460826133f5565b81815260059190911b82018301908381019087831115613a1657600080fd5b928401925b828410156134a2578351613a2e81612988565b82529284019290840190613a1b565b600080600060608486031215613a5257600080fd5b8351925060208401519150604084015190509250925092565b60006020808385031215613a7e57600080fd5b82516001600160401b03811115613a9457600080fd5b8301601f81018513613aa557600080fd5b8051613ab3613460826133f5565b81815260069190911b82018301908381019087831115613ad257600080fd5b928401925b828410156134a25760408489031215613af05760008081fd5b613af8613304565b8451613b0381612988565b81528486015186820152825260409093019290840190613ad7565b60008060008060808587031215613b3457600080fd5b845193506020850151925060408501519150613b526060860161353c565b905092959194509250565b80516001600160401b038116811461354c57600080fd5b600080600060608486031215613b8957600080fd5b613b9284613b5d565b9250613ba060208501613b5d565b9150613bae60408501613b5d565b90509250925092565b80516001600160801b038116811461354c57600080fd5b60008060408385031215613be157600080fd5b613bea83613bb7565b9150613bf860208401613bb7565b90509250929050565b600080600080600080600060e0888a031215613c1c57600080fd5b875196506020880151955060408801519450606088015193506080880151925060a0880151915060c0880151613c5181612988565b809150509295989194975092955056fea26469706673582212204a73c3e72fdb1d0df53ecbda5c085a2bb3f8c37e8804cb8b9f6b3197c5c2100164736f6c63430008100033",
  "libraries": {
    "LinearCurve": "0x7FC71430580dA437e7ae0E04BC30AE2122aa4Ecd"
  },
  "devdoc": {
    "kind": "dev",
    "methods": {
      "fetchInitial(address,address,uint256)": {
        "details": "vaultId retrieved from vaultIds public array in controller."
      }
    },
    "version": 1
  },
  "userdoc": {
    "kind": "user",
    "methods": {
      "fetchInitial(address,address,uint256)": {
        "notice": "retrieves all the static data associated with a vaultId."
      }
    },
    "version": 1
  },
  "storageLayout": {
    "storage": [],
    "types": null
  }
}