{
  "address": "0x0DeC1d504D91cF208F9914b337Fe26cCE49Ef56e",
  "abi": [
    {
      "inputs": [
        {
          "internalType": "address",
          "name": "_controller",
          "type": "address"
        },
        {
          "internalType": "address",
          "name": "_marketManager",
          "type": "address"
        }
      ],
      "stateMutability": "nonpayable",
      "type": "constructor"
    },
    {
      "inputs": [
        {
          "internalType": "uint256",
          "name": "percentile",
          "type": "uint256"
        }
      ],
      "name": "calculateMinScore",
      "outputs": [
        {
          "internalType": "uint256",
          "name": "",
          "type": "uint256"
        }
      ],
      "stateMutability": "view",
      "type": "function"
    },
    {
      "inputs": [
        {
          "internalType": "address",
          "name": "trader",
          "type": "address"
        },
        {
          "internalType": "uint256",
          "name": "update",
          "type": "uint256"
        }
      ],
      "name": "decrementScore",
      "outputs": [],
      "stateMutability": "nonpayable",
      "type": "function"
    },
    {
      "inputs": [
        {
          "internalType": "uint256",
          "name": "percentile",
          "type": "uint256"
        },
        {
          "internalType": "address",
          "name": "utilizer",
          "type": "address"
        }
      ],
      "name": "filterTraders",
      "outputs": [
        {
          "internalType": "address[]",
          "name": "",
          "type": "address[]"
        }
      ],
      "stateMutability": "view",
      "type": "function"
    },
    {
      "inputs": [
        {
          "internalType": "address",
          "name": "trader",
          "type": "address"
        }
      ],
      "name": "findTrader",
      "outputs": [
        {
          "internalType": "uint256",
          "name": "",
          "type": "uint256"
        }
      ],
      "stateMutability": "view",
      "type": "function"
    },
    {
      "inputs": [],
      "name": "getTraders",
      "outputs": [
        {
          "internalType": "address[]",
          "name": "",
          "type": "address[]"
        }
      ],
      "stateMutability": "view",
      "type": "function"
    },
    {
      "inputs": [
        {
          "internalType": "address",
          "name": "trader",
          "type": "address"
        },
        {
          "internalType": "uint256",
          "name": "update",
          "type": "uint256"
        }
      ],
      "name": "incrementScore",
      "outputs": [],
      "stateMutability": "nonpayable",
      "type": "function"
    },
    {
      "inputs": [
        {
          "internalType": "address",
          "name": "",
          "type": "address"
        }
      ],
      "name": "isRated",
      "outputs": [
        {
          "internalType": "bool",
          "name": "",
          "type": "bool"
        }
      ],
      "stateMutability": "view",
      "type": "function"
    },
    {
      "inputs": [
        {
          "internalType": "address",
          "name": "trader",
          "type": "address"
        },
        {
          "internalType": "uint256",
          "name": "percentile",
          "type": "uint256"
        }
      ],
      "name": "isReputable",
      "outputs": [
        {
          "internalType": "bool",
          "name": "",
          "type": "bool"
        }
      ],
      "stateMutability": "view",
      "type": "function"
    },
    {
      "inputs": [
        {
          "internalType": "address",
          "name": "trader",
          "type": "address"
        },
        {
          "internalType": "uint256",
          "name": "score",
          "type": "uint256"
        }
      ],
      "name": "setTraderScore",
      "outputs": [],
      "stateMutability": "nonpayable",
      "type": "function"
    },
    {
      "inputs": [
        {
          "internalType": "address",
          "name": "",
          "type": "address"
        }
      ],
      "name": "trader_scores",
      "outputs": [
        {
          "internalType": "uint256",
          "name": "",
          "type": "uint256"
        }
      ],
      "stateMutability": "view",
      "type": "function"
    },
    {
      "inputs": [
        {
          "internalType": "uint256",
          "name": "",
          "type": "uint256"
        }
      ],
      "name": "traders",
      "outputs": [
        {
          "internalType": "address",
          "name": "",
          "type": "address"
        }
      ],
      "stateMutability": "view",
      "type": "function"
    }
  ],
  "transactionHash": "0x123df6402fa3995dad47b5c58b6a02c93a50dfdad185044d927056d8c21b035f",
  "args": [
    "0xda96D4256411235c2B61028c689169DcB95105Df",
    "0x09Ea06586A65f3844825730410D6951677B88701"
  ],
  "numDeployments": 1,
  "solcInputHash": "21027de7b02e984801310d7b31045241",
  "bytecode": "0x608060405234801561001057600080fd5b5060405161118f38038061118f83398101604081905261002f9161008c565b600380546001600160a01b039384166001600160a01b03199182161790915560048054929093169181169190911790915560058054909116331790556100bf565b80516001600160a01b038116811461008757600080fd5b919050565b6000806040838503121561009f57600080fd5b6100a883610070565b91506100b660208401610070565b90509250929050565b6110c1806100ce6000396000f3fe608060405234801561001057600080fd5b50600436106100a95760003560e01c806323ba61071161007157806323ba61071461013a5780632a6b80821461016d57806344c743931461018d57806357b61360146101ad578063e1648cd2146101b5578063e8a78026146101c857600080fd5b80630622fd17146100ae5780630d159896146100c35780630e2ebf06146100e9578063135e563d146100fc578063224e1c2d14610127575b600080fd5b6100c16100bc366004610edc565b6101db565b005b6100d66100d1366004610f06565b610225565b6040519081526020015b60405180910390f35b6100d66100f7366004610f1f565b6102d4565b61010f61010a366004610f06565b610332565b6040516001600160a01b0390911681526020016100e0565b6100c1610135366004610edc565b61035c565b61015d610148366004610f1f565b60016020526000908152604090205460ff1681565b60405190151581526020016100e0565b61018061017b366004610f3a565b610417565b6040516100e09190610f66565b6100d661019b366004610f1f565b60006020819052908152604090205481565b610180610846565b6100c16101c3366004610edc565b6108a8565b61015d6101d6366004610edc565b610922565b6001600160a01b0382166000908152602081905260409020548082111561020f5761020a836101c38385610fbd565b505050565b8082101561020a5761020a836101358484610fbd565b600254600090819061024090670de0b6b3a764000090610fd4565b905061024d606484610ff3565b61025a5750600092915050565b600061027161026a606486610ff3565b83906109b5565b9050610285670de0b6b3a764000082610ff3565b90506000806002610297600185610fbd565b815481106102a7576102a7611015565b60009182526020808320909101546001600160a01b03168352820192909252604001902054949350505050565b6000805b60025481101561032c57600281815481106102f5576102f5611015565b6000918252602090912001546001600160a01b038481169116141561031a5792915050565b806103248161102b565b9150506102d8565b50919050565b6002818154811061034257600080fd5b6000918252602090912001546001600160a01b0316905081565b6003546001600160a01b031633148061037f57506004546001600160a01b031633145b8061039457506005546001600160a01b031633145b61039d57600080fd5b6001600160a01b03821660009081526020819052604090205481106103da576001600160a01b038216600090815260208190526040812055610408565b6001600160a01b03821660009081526020819052604081208054839290610402908490610fbd565b90915550505b6104138260006109d1565b5050565b60025460609060009061043390670de0b6b3a764000090610fd4565b9050610440606485610ff3565b6105e9576001600160a01b03831660009081526001602052604090205460ff16156105865760025460009061047790600190610fbd565b67ffffffffffffffff81111561048f5761048f611046565b6040519080825280602002602001820160405280156104b8578160200160208202803683370190505b5090506000805b60025481101561057a57600281815481106104dc576104dc611015565b6000918252602090912001546001600160a01b03878116911614156105045760019150610568565b6002818154811061051757610517611015565b6000918252602090912001546001600160a01b0316836105378484610fbd565b8151811061054757610547611015565b60200260200101906001600160a01b031690816001600160a01b0316815250505b806105728161102b565b9150506104bf565b50819350505050610840565b60028054806020026020016040519081016040528092919081815260200182805480156105dc57602002820191906000526020600020905b81546001600160a01b031681526001909101906020018083116105be575b5050505050915050610840565b6000610617606486610603670de0b6b3a764000083610fd4565b61060d9190610fbd565b61026a9190610ff3565b905061062b670de0b6b3a764000082610ff3565b905060606001600160a01b038516158061065e57506001600160a01b03851660009081526001602052604090205460ff16155b15610726578167ffffffffffffffff81111561067c5761067c611046565b6040519080825280602002602001820160405280156106a5578160200160208202803683370190505b50905060005b8281101561072057600281815481106106c6576106c6611015565b9060005260206000200160009054906101000a90046001600160a01b03168282815181106106f6576106f6611015565b6001600160a01b0390921660209283029190910190910152806107188161102b565b9150506106ab565b5061083b565b610731600183610fbd565b67ffffffffffffffff81111561074957610749611046565b604051908082528060200260200182016040528015610772578160200160208202803683370190505b5090506000805b8381101561083857866001600160a01b03166002828154811061079e5761079e611015565b6000918252602090912001546001600160a01b031614156107c25760019150610826565b600281815481106107d5576107d5611015565b6000918252602090912001546001600160a01b0316836107f58484610fbd565b8151811061080557610805611015565b60200260200101906001600160a01b031690816001600160a01b0316815250505b806108308161102b565b915050610779565b50505b925050505b92915050565b6060600280548060200260200160405190810160405280929190818152602001828054801561089e57602002820191906000526020600020905b81546001600160a01b03168152600190910190602001808311610880575b5050505050905090565b6003546001600160a01b03163314806108cb57506004546001600160a01b031633145b806108e057506005546001600160a01b031633145b6108e957600080fd5b6001600160a01b0382166000908152602081905260408120805483929061091190849061105c565b9091555061041390508260016109d1565b60008061092e846102d4565b90506000670de0b6b3a764000061094683600161105c565b6002546109539190610fbd565b61095d9190610fd4565b60025490915060009061097990670de0b6b3a764000090610fd4565b905060006109878383610d74565b610992906064610fd4565b90508581106109a8576001945050505050610840565b6000945050505050610840565b60006109ca8383670de0b6b3a7640000610d85565b9392505050565b6001600160a01b0382166000908152602081815260408083205460019092529091205460ff16610bf0576001600160a01b0383166000908152600160208190526040909120805460ff19169091179055600254610a7c575050600280546001810182556000919091527f405787fa12a823e0f2b7631cc41b3ba8828b3321ca811111fa75cd3aa3bb5ace0180546001600160a01b0319166001600160a01b0392909216919091179055565b60005b600254811015610bea5760008060028381548110610a9f57610a9f611015565b60009182526020808320909101546001600160a01b03168352820192909252604001902054821115610b6c57600280546001818101835560008390527f405787fa12a823e0f2b7631cc41b3ba8828b3321ca811111fa75cd3aa3bb5ace90910180546001600160a01b03191690559054610b24918391610b1f9190610fbd565b610da4565b8360028281548110610b3857610b38611015565b9060005260206000200160006101000a8154816001600160a01b0302191690836001600160a01b0316021790555050505050565b600254610b7b90600190610fbd565b811415610bd8575050600280546001810182556000919091527f405787fa12a823e0f2b7631cc41b3ba8828b3321ca811111fa75cd3aa3bb5ace0180546001600160a01b0319166001600160a01b03939093169290921790915550565b80610be28161102b565b915050610a7f565b50505050565b6000610bfb846102d4565b905080158015610c085750825b80610c295750600254610c1d90600190610fbd565b81148015610c29575082155b15610c345750505050565b8215610cf25760005b81811015610cec5760008060028381548110610c5b57610c5b611015565b60009182526020808320909101546001600160a01b03168352820192909252604001902054831115610cda57610c918183610da4565b8460028281548110610ca557610ca5611015565b9060005260206000200160006101000a8154816001600160a01b0302191690836001600160a01b031602179055505050505050565b80610ce48161102b565b915050610c3d565b50610bea565b600254600090610d0490600190610fbd565b90505b81811115610d6d5760008060028381548110610d2557610d25611015565b60009182526020808320909101546001600160a01b03168352820192909252604001902054831015610d5b57610c918282610e32565b80610d6581611074565b915050610d07565b5050505050565b60006109ca83670de0b6b3a7640000845b828202811515841585830485141716610d9d57600080fd5b0492915050565b805b8281111561020a576002610dbb600183610fbd565b81548110610dcb57610dcb611015565b600091825260209091200154600280546001600160a01b039092169183908110610df757610df7611015565b600091825260209091200180546001600160a01b0319166001600160a01b039290921691909117905580610e2a81611074565b915050610da6565b815b8181101561020a576002610e4982600161105c565b81548110610e5957610e59611015565b600091825260209091200154600280546001600160a01b039092169183908110610e8557610e85611015565b600091825260209091200180546001600160a01b0319166001600160a01b039290921691909117905580610eb88161102b565b915050610e34565b80356001600160a01b0381168114610ed757600080fd5b919050565b60008060408385031215610eef57600080fd5b610ef883610ec0565b946020939093013593505050565b600060208284031215610f1857600080fd5b5035919050565b600060208284031215610f3157600080fd5b6109ca82610ec0565b60008060408385031215610f4d57600080fd5b82359150610f5d60208401610ec0565b90509250929050565b6020808252825182820181905260009190848201906040850190845b818110156108385783516001600160a01b031683529284019291840191600101610f82565b634e487b7160e01b600052601160045260246000fd5b600082821015610fcf57610fcf610fa7565b500390565b6000816000190483118215151615610fee57610fee610fa7565b500290565b60008261101057634e487b7160e01b600052601260045260246000fd5b500490565b634e487b7160e01b600052603260045260246000fd5b600060001982141561103f5761103f610fa7565b5060010190565b634e487b7160e01b600052604160045260246000fd5b6000821982111561106f5761106f610fa7565b500190565b60008161108357611083610fa7565b50600019019056fea2646970667358221220e1f3805e6bf88fd415b7ed599983cae6192afa6f418c1eaa6c60ad7c40895a5f64736f6c634300080c0033",
  "devdoc": {
    "kind": "dev",
    "methods": {
      "decrementScore(address,uint256)": {
        "details": "score >= 0, update > 0"
      },
      "filterTraders(uint256,address)": {
        "details": "percentile is is wad 0-100"
      },
      "incrementScore(address,uint256)": {
        "details": "score >= 0, update > 0"
      }
    },
    "version": 1
  },
  "userdoc": {
    "kind": "user",
    "methods": {
      "decrementScore(address,uint256)": {
        "notice": "decrements trader's score"
      },
      "filterTraders(uint256,address)": {
        "notice": "returns a list of top X percentile traders excluding the utilizer. "
      },
      "incrementScore(address,uint256)": {
        "notice": "increments trader's score"
      }
    },
    "version": 1
  },
  "storageLayout": {
    "storage": [
      {
        "astId": 12350,
        "contract": "contracts/protocol/reputationmanager.sol:ReputationManager",
        "label": "trader_scores",
        "offset": 0,
        "slot": "0",
        "type": "t_mapping(t_address,t_uint256)"
      },
      {
        "astId": 12354,
        "contract": "contracts/protocol/reputationmanager.sol:ReputationManager",
        "label": "isRated",
        "offset": 0,
        "slot": "1",
        "type": "t_mapping(t_address,t_bool)"
      },
      {
        "astId": 12357,
        "contract": "contracts/protocol/reputationmanager.sol:ReputationManager",
        "label": "traders",
        "offset": 0,
        "slot": "2",
        "type": "t_array(t_address)dyn_storage"
      },
      {
        "astId": 12359,
        "contract": "contracts/protocol/reputationmanager.sol:ReputationManager",
        "label": "controller",
        "offset": 0,
        "slot": "3",
        "type": "t_address"
      },
      {
        "astId": 12361,
        "contract": "contracts/protocol/reputationmanager.sol:ReputationManager",
        "label": "marketManager",
        "offset": 0,
        "slot": "4",
        "type": "t_address"
      },
      {
        "astId": 12363,
        "contract": "contracts/protocol/reputationmanager.sol:ReputationManager",
        "label": "deployer",
        "offset": 0,
        "slot": "5",
        "type": "t_address"
      }
    ],
    "types": {
      "t_address": {
        "encoding": "inplace",
        "label": "address",
        "numberOfBytes": "20"
      },
      "t_array(t_address)dyn_storage": {
        "base": "t_address",
        "encoding": "dynamic_array",
        "label": "address[]",
        "numberOfBytes": "32"
      },
      "t_bool": {
        "encoding": "inplace",
        "label": "bool",
        "numberOfBytes": "1"
      },
      "t_mapping(t_address,t_bool)": {
        "encoding": "mapping",
        "key": "t_address",
        "label": "mapping(address => bool)",
        "numberOfBytes": "32",
        "value": "t_bool"
      },
      "t_mapping(t_address,t_uint256)": {
        "encoding": "mapping",
        "key": "t_address",
        "label": "mapping(address => uint256)",
        "numberOfBytes": "32",
        "value": "t_uint256"
      },
      "t_uint256": {
        "encoding": "inplace",
        "label": "uint256",
        "numberOfBytes": "32"
      }
    }
  }
}