{
  "address": "0x45F7b2226ca14ABf1FEE4AED6F0C193158E56F47",
  "abi": [
    {
      "inputs": [
        {
          "internalType": "address",
          "name": "_controller",
          "type": "address"
        },
        {
          "internalType": "address",
          "name": "_marketManager",
          "type": "address"
        }
      ],
      "stateMutability": "nonpayable",
      "type": "constructor"
    },
    {
      "inputs": [
        {
          "internalType": "uint256",
          "name": "percentile",
          "type": "uint256"
        }
      ],
      "name": "calculateMinScore",
      "outputs": [
        {
          "internalType": "uint256",
          "name": "",
          "type": "uint256"
        }
      ],
      "stateMutability": "view",
      "type": "function"
    },
    {
      "inputs": [
        {
          "internalType": "address",
          "name": "trader",
          "type": "address"
        },
        {
          "internalType": "uint256",
          "name": "update",
          "type": "uint256"
        }
      ],
      "name": "decrementScore",
      "outputs": [],
      "stateMutability": "nonpayable",
      "type": "function"
    },
    {
      "inputs": [
        {
          "internalType": "uint256",
          "name": "percentile",
          "type": "uint256"
        },
        {
          "internalType": "address",
          "name": "utilizer",
          "type": "address"
        }
      ],
      "name": "filterTraders",
      "outputs": [
        {
          "internalType": "address[]",
          "name": "",
          "type": "address[]"
        }
      ],
      "stateMutability": "view",
      "type": "function"
    },
    {
      "inputs": [
        {
          "internalType": "address",
          "name": "trader",
          "type": "address"
        }
      ],
      "name": "findTrader",
      "outputs": [
        {
          "internalType": "uint256",
          "name": "",
          "type": "uint256"
        }
      ],
      "stateMutability": "view",
      "type": "function"
    },
    {
      "inputs": [],
      "name": "getTraders",
      "outputs": [
        {
          "internalType": "address[]",
          "name": "",
          "type": "address[]"
        }
      ],
      "stateMutability": "view",
      "type": "function"
    },
    {
      "inputs": [
        {
          "internalType": "address",
          "name": "trader",
          "type": "address"
        },
        {
          "internalType": "uint256",
          "name": "update",
          "type": "uint256"
        }
      ],
      "name": "incrementScore",
      "outputs": [],
      "stateMutability": "nonpayable",
      "type": "function"
    },
    {
      "inputs": [
        {
          "internalType": "address",
          "name": "",
          "type": "address"
        }
      ],
      "name": "isRated",
      "outputs": [
        {
          "internalType": "bool",
          "name": "",
          "type": "bool"
        }
      ],
      "stateMutability": "view",
      "type": "function"
    },
    {
      "inputs": [
        {
          "internalType": "address",
          "name": "trader",
          "type": "address"
        },
        {
          "internalType": "uint256",
          "name": "percentile",
          "type": "uint256"
        }
      ],
      "name": "isReputable",
      "outputs": [
        {
          "internalType": "bool",
          "name": "",
          "type": "bool"
        }
      ],
      "stateMutability": "view",
      "type": "function"
    },
    {
      "inputs": [
        {
          "internalType": "address",
          "name": "trader",
          "type": "address"
        },
        {
          "internalType": "uint256",
          "name": "score",
          "type": "uint256"
        }
      ],
      "name": "setTraderScore",
      "outputs": [],
      "stateMutability": "nonpayable",
      "type": "function"
    },
    {
      "inputs": [
        {
          "internalType": "uint256",
          "name": "update",
          "type": "uint256"
        }
      ],
      "name": "testIncrementScore",
      "outputs": [],
      "stateMutability": "nonpayable",
      "type": "function"
    },
    {
      "inputs": [
        {
          "internalType": "address",
          "name": "",
          "type": "address"
        }
      ],
      "name": "trader_scores",
      "outputs": [
        {
          "internalType": "uint256",
          "name": "",
          "type": "uint256"
        }
      ],
      "stateMutability": "view",
      "type": "function"
    },
    {
      "inputs": [
        {
          "internalType": "uint256",
          "name": "",
          "type": "uint256"
        }
      ],
      "name": "traders",
      "outputs": [
        {
          "internalType": "address",
          "name": "",
          "type": "address"
        }
      ],
      "stateMutability": "view",
      "type": "function"
    }
  ],
  "transactionHash": "0x64c1e5bac9fe209639e4bc28f9a38d1003242e28722df7da2f76045f960fc614",
  "args": [
    "0x24B680C041a4A6746A2482ED883cAFA4B1b1735b",
    "0xDE89D18e25319fD04053786e20B34a0D85dC43Dd"
  ],
  "numDeployments": 9,
  "solcInputHash": "bd167a652f359940c7551fa168731062",
  "bytecode": "0x608060405234801561001057600080fd5b5060405161126438038061126483398101604081905261002f9161008c565b600380546001600160a01b039384166001600160a01b03199182161790915560048054929093169181169190911790915560058054909116331790556100bf565b80516001600160a01b038116811461008757600080fd5b919050565b6000806040838503121561009f57600080fd5b6100a883610070565b91506100b660208401610070565b90509250929050565b611196806100ce6000396000f3fe608060405234801561001057600080fd5b50600436106100b45760003560e01c80632a6b8082116100715780632a6b80821461017857806344c743931461019857806357b61360146101b8578063a87541f8146101c0578063e1648cd2146101d3578063e8a78026146101e657600080fd5b80630622fd17146100b95780630d159896146100ce5780630e2ebf06146100f4578063135e563d14610107578063224e1c2d1461013257806323ba610714610145575b600080fd5b6100cc6100c7366004610fbc565b6101f9565b005b6100e16100dc366004610fe6565b610243565b6040519081526020015b60405180910390f35b6100e1610102366004610fff565b6102f5565b61011a610115366004610fe6565b610353565b6040516001600160a01b0390911681526020016100eb565b6100cc610140366004610fbc565b61037d565b610168610153366004610fff565b60016020526000908152604090205460ff1681565b60405190151581526020016100eb565b61018b61018636600461101a565b610480565b6040516100eb9190611046565b6100e16101a6366004610fff565b60006020819052908152604090205481565b61018b6108b1565b6100cc6101ce366004610fe6565b610913565b6100cc6101e1366004610fbc565b610946565b6101686101f4366004610fbc565b610a03565b6001600160a01b0382166000908152602081905260409020548082111561022d57610228836101e1838561109d565b505050565b808210156102285761022883610140848461109d565b600254600090819061025e90670de0b6b3a7640000906110b0565b905061026b6064846110cf565b60000361027b5750600092915050565b600061029261028b6064866110cf565b8390610a96565b90506102a6670de0b6b3a7640000826110cf565b905060008060026102b860018561109d565b815481106102c8576102c86110f1565b60009182526020808320909101546001600160a01b03168352820192909252604001902054949350505050565b6000805b60025481101561034d5760028181548110610316576103166110f1565b6000918252602090912001546001600160a01b039081169084160361033b5792915050565b8061034581611107565b9150506102f9565b50919050565b6002818154811061036357600080fd5b6000918252602090912001546001600160a01b0316905081565b6003546001600160a01b03163314806103a057506004546001600160a01b031633145b806103b557506005546001600160a01b031633145b6104065760405162461bcd60e51b815260206004820152601c60248201527f52657075746174696f6e4d616e616765723a202170726f746f636f6c0000000060448201526064015b60405180910390fd5b6001600160a01b0382166000908152602081905260409020548110610443576001600160a01b038216600090815260208190526040812055610471565b6001600160a01b0382166000908152602081905260408120805483929061046b90849061109d565b90915550505b61047c826000610ab2565b5050565b60025460609060009061049c90670de0b6b3a7640000906110b0565b90506104a96064856110cf565b600003610655576001600160a01b03831660009081526001602052604090205460ff16156105f2576002546000906104e39060019061109d565b67ffffffffffffffff8111156104fb576104fb611120565b604051908082528060200260200182016040528015610524578160200160208202803683370190505b5090506000805b6002548110156105e65760028181548110610548576105486110f1565b6000918252602090912001546001600160a01b039081169087160361057057600191506105d4565b60028181548110610583576105836110f1565b6000918252602090912001546001600160a01b0316836105a3848461109d565b815181106105b3576105b36110f1565b60200260200101906001600160a01b031690816001600160a01b0316815250505b806105de81611107565b91505061052b565b508193505050506108ab565b600280548060200260200160405190810160405280929190818152602001828054801561064857602002820191906000526020600020905b81546001600160a01b0316815260019091019060200180831161062a575b50505050509150506108ab565b600061068360648661066f670de0b6b3a7640000836110b0565b610679919061109d565b61028b91906110cf565b9050610697670de0b6b3a7640000826110cf565b905060606001600160a01b03851615806106ca57506001600160a01b03851660009081526001602052604090205460ff16155b15610792578167ffffffffffffffff8111156106e8576106e8611120565b604051908082528060200260200182016040528015610711578160200160208202803683370190505b50905060005b8281101561078c5760028181548110610732576107326110f1565b9060005260206000200160009054906101000a90046001600160a01b0316828281518110610762576107626110f1565b6001600160a01b03909216602092830291909101909101528061078481611107565b915050610717565b506108a6565b61079d60018361109d565b67ffffffffffffffff8111156107b5576107b5611120565b6040519080825280602002602001820160405280156107de578160200160208202803683370190505b5090506000805b838110156108a357866001600160a01b03166002828154811061080a5761080a6110f1565b6000918252602090912001546001600160a01b03160361082d5760019150610891565b60028181548110610840576108406110f1565b6000918252602090912001546001600160a01b031683610860848461109d565b81518110610870576108706110f1565b60200260200101906001600160a01b031690816001600160a01b0316815250505b8061089b81611107565b9150506107e5565b50505b925050505b92915050565b6060600280548060200260200160405190810160405280929190818152602001828054801561090957602002820191906000526020600020905b81546001600160a01b031681526001909101906020018083116108eb575b5050505050905090565b3360009081526020819052604081208054839290610932908490611136565b909155506109439050336001610ab2565b50565b6003546001600160a01b031633148061096957506004546001600160a01b031633145b8061097e57506005546001600160a01b031633145b6109ca5760405162461bcd60e51b815260206004820152601c60248201527f52657075746174696f6e4d616e616765723a202170726f746f636f6c0000000060448201526064016103fd565b6001600160a01b038216600090815260208190526040812080548392906109f2908490611136565b9091555061047c9050826001610ab2565b600080610a0f846102f5565b90506000670de0b6b3a7640000610a27836001611136565b600254610a34919061109d565b610a3e91906110b0565b600254909150600090610a5a90670de0b6b3a7640000906110b0565b90506000610a688383610e55565b610a739060646110b0565b9050858110610a895760019450505050506108ab565b60009450505050506108ab565b6000610aab8383670de0b6b3a7640000610e66565b9392505050565b6001600160a01b0382166000908152602081815260408083205460019092529091205460ff16610cd1576001600160a01b03831660009081526001602081905260408220805460ff191690911790556002549003610b5e575050600280546001810182556000919091527f405787fa12a823e0f2b7631cc41b3ba8828b3321ca811111fa75cd3aa3bb5ace0180546001600160a01b0319166001600160a01b0392909216919091179055565b60005b600254811015610ccb5760008060028381548110610b8157610b816110f1565b60009182526020808320909101546001600160a01b03168352820192909252604001902054821115610c4e57600280546001818101835560008390527f405787fa12a823e0f2b7631cc41b3ba8828b3321ca811111fa75cd3aa3bb5ace90910180546001600160a01b03191690559054610c06918391610c01919061109d565b610e84565b8360028281548110610c1a57610c1a6110f1565b9060005260206000200160006101000a8154816001600160a01b0302191690836001600160a01b0316021790555050505050565b600254610c5d9060019061109d565b8103610cb9575050600280546001810182556000919091527f405787fa12a823e0f2b7631cc41b3ba8828b3321ca811111fa75cd3aa3bb5ace0180546001600160a01b0319166001600160a01b03939093169290921790915550565b80610cc381611107565b915050610b61565b50505050565b6000610cdc846102f5565b905080158015610ce95750825b80610d0a5750600254610cfe9060019061109d565b81148015610d0a575082155b15610d155750505050565b8215610dd35760005b81811015610dcd5760008060028381548110610d3c57610d3c6110f1565b60009182526020808320909101546001600160a01b03168352820192909252604001902054831115610dbb57610d728183610e84565b8460028281548110610d8657610d866110f1565b9060005260206000200160006101000a8154816001600160a01b0302191690836001600160a01b031602179055505050505050565b80610dc581611107565b915050610d1e565b50610ccb565b600254600090610de59060019061109d565b90505b81811115610e4e5760008060028381548110610e0657610e066110f1565b60009182526020808320909101546001600160a01b03168352820192909252604001902054831015610e3c57610d728282610f12565b80610e4681611149565b915050610de8565b5050505050565b6000610aab83670de0b6b3a7640000845b6000826000190484118302158202610e7d57600080fd5b5091020490565b805b82811115610228576002610e9b60018361109d565b81548110610eab57610eab6110f1565b600091825260209091200154600280546001600160a01b039092169183908110610ed757610ed76110f1565b600091825260209091200180546001600160a01b0319166001600160a01b039290921691909117905580610f0a81611149565b915050610e86565b815b81811015610228576002610f29826001611136565b81548110610f3957610f396110f1565b600091825260209091200154600280546001600160a01b039092169183908110610f6557610f656110f1565b600091825260209091200180546001600160a01b0319166001600160a01b039290921691909117905580610f9881611107565b915050610f14565b80356001600160a01b0381168114610fb757600080fd5b919050565b60008060408385031215610fcf57600080fd5b610fd883610fa0565b946020939093013593505050565b600060208284031215610ff857600080fd5b5035919050565b60006020828403121561101157600080fd5b610aab82610fa0565b6000806040838503121561102d57600080fd5b8235915061103d60208401610fa0565b90509250929050565b6020808252825182820181905260009190848201906040850190845b818110156108a35783516001600160a01b031683529284019291840191600101611062565b634e487b7160e01b600052601160045260246000fd5b818103818111156108ab576108ab611087565b60008160001904831182151516156110ca576110ca611087565b500290565b6000826110ec57634e487b7160e01b600052601260045260246000fd5b500490565b634e487b7160e01b600052603260045260246000fd5b60006001820161111957611119611087565b5060010190565b634e487b7160e01b600052604160045260246000fd5b808201808211156108ab576108ab611087565b60008161115857611158611087565b50600019019056fea2646970667358221220d4c41b4abe5fd37253e43e277caa12dc8d7d3a6a1580ae326275e56eda4ec5f164736f6c63430008100033",
  "devdoc": {
    "kind": "dev",
    "methods": {
      "decrementScore(address,uint256)": {
        "details": "score >= 0, update > 0"
      },
      "filterTraders(uint256,address)": {
        "details": "percentile is is wad 0-100"
      },
      "incrementScore(address,uint256)": {
        "details": "score >= 0, update > 0"
      }
    },
    "version": 1
  },
  "userdoc": {
    "kind": "user",
    "methods": {
      "decrementScore(address,uint256)": {
        "notice": "decrements trader's score"
      },
      "filterTraders(uint256,address)": {
        "notice": "returns a list of top X percentile traders excluding the utilizer. "
      },
      "incrementScore(address,uint256)": {
        "notice": "increments trader's score"
      }
    },
    "version": 1
  },
  "storageLayout": {
    "storage": [
      {
        "astId": 16827,
        "contract": "contracts/protocol/reputationmanager.sol:ReputationManager",
        "label": "trader_scores",
        "offset": 0,
        "slot": "0",
        "type": "t_mapping(t_address,t_uint256)"
      },
      {
        "astId": 16831,
        "contract": "contracts/protocol/reputationmanager.sol:ReputationManager",
        "label": "isRated",
        "offset": 0,
        "slot": "1",
        "type": "t_mapping(t_address,t_bool)"
      },
      {
        "astId": 16834,
        "contract": "contracts/protocol/reputationmanager.sol:ReputationManager",
        "label": "traders",
        "offset": 0,
        "slot": "2",
        "type": "t_array(t_address)dyn_storage"
      },
      {
        "astId": 16836,
        "contract": "contracts/protocol/reputationmanager.sol:ReputationManager",
        "label": "controller",
        "offset": 0,
        "slot": "3",
        "type": "t_address"
      },
      {
        "astId": 16838,
        "contract": "contracts/protocol/reputationmanager.sol:ReputationManager",
        "label": "marketManager",
        "offset": 0,
        "slot": "4",
        "type": "t_address"
      },
      {
        "astId": 16840,
        "contract": "contracts/protocol/reputationmanager.sol:ReputationManager",
        "label": "deployer",
        "offset": 0,
        "slot": "5",
        "type": "t_address"
      }
    ],
    "types": {
      "t_address": {
        "encoding": "inplace",
        "label": "address",
        "numberOfBytes": "20"
      },
      "t_array(t_address)dyn_storage": {
        "base": "t_address",
        "encoding": "dynamic_array",
        "label": "address[]",
        "numberOfBytes": "32"
      },
      "t_bool": {
        "encoding": "inplace",
        "label": "bool",
        "numberOfBytes": "1"
      },
      "t_mapping(t_address,t_bool)": {
        "encoding": "mapping",
        "key": "t_address",
        "label": "mapping(address => bool)",
        "numberOfBytes": "32",
        "value": "t_bool"
      },
      "t_mapping(t_address,t_uint256)": {
        "encoding": "mapping",
        "key": "t_address",
        "label": "mapping(address => uint256)",
        "numberOfBytes": "32",
        "value": "t_uint256"
      },
      "t_uint256": {
        "encoding": "inplace",
        "label": "uint256",
        "numberOfBytes": "32"
      }
    }
  }
}