{
  "address": "0x9c490dC32De04998417aD6E2a1D5476aF76AB97E",
  "abi": [
    {
      "inputs": [
        {
          "internalType": "address",
          "name": "_controller",
          "type": "address"
        },
        {
          "internalType": "address",
          "name": "_zcbFactory",
          "type": "address"
        }
      ],
      "stateMutability": "nonpayable",
      "type": "constructor"
    },
    {
      "inputs": [],
      "name": "controller",
      "outputs": [
        {
          "internalType": "address",
          "name": "",
          "type": "address"
        }
      ],
      "stateMutability": "view",
      "type": "function"
    },
    {
      "inputs": [
        {
          "internalType": "address",
          "name": "base",
          "type": "address"
        },
        {
          "internalType": "address",
          "name": "entry",
          "type": "address"
        }
      ],
      "name": "newPool",
      "outputs": [
        {
          "internalType": "address",
          "name": "longZCB",
          "type": "address"
        },
        {
          "internalType": "address",
          "name": "shortZCB",
          "type": "address"
        },
        {
          "internalType": "contract SyntheticZCBPool",
          "name": "pool",
          "type": "address"
        }
      ],
      "stateMutability": "nonpayable",
      "type": "function"
    },
    {
      "inputs": [],
      "name": "zcbFactory",
      "outputs": [
        {
          "internalType": "address",
          "name": "",
          "type": "address"
        }
      ],
      "stateMutability": "view",
      "type": "function"
    }
  ],
  "transactionHash": "0xdaa24c1cbf80a244596c286e0b0c7de448bcf04206a7603efe2af2111e62fe8f",
  "args": [
    "0xFdeE43628CC24e583dEfaB4036aAb0B52eB5FB85",
    "0x76a7135E21899D4cCeA462faC1c1073110Cf3B26"
  ],
  "numDeployments": 4,
  "solcInputHash": "34f61006326c0a3144152c9fb105e450",
  "bytecode": "0x60c060405234801561001057600080fd5b5060405161604938038061604983398101604081905261002f91610062565b6001600160a01b039182166080521660a052610095565b80516001600160a01b038116811461005d57600080fd5b919050565b6000806040838503121561007557600080fd5b61007e83610046565b915061008c60208401610046565b90509250929050565b60805160a051615f7d6100cc60003960008181608d0152818160f5015261020701526000818160cc01526102840152615f7d6000f3fe608060405234801561001057600080fd5b50600436106100415760003560e01c8063981f513614610046578063a1a76dc014610088578063f77c4791146100c7575b600080fd5b610059610054366004610329565b6100ee565b604080516001600160a01b03948516815292841660208401529216918101919091526060015b60405180910390f35b6100af7f000000000000000000000000000000000000000000000000000000000000000081565b6040516001600160a01b03909116815260200161007f565b6100af7f000000000000000000000000000000000000000000000000000000000000000081565b60008060007f00000000000000000000000000000000000000000000000000000000000000006001600160a01b031663c15583026040518163ffffffff1660e01b8152600401610175906040808252600790820152663637b733ad21a160c91b6060820152608060208201819052600490820152636c6f6e6760e01b60a082015260c00190565b6020604051808303816000875af1158015610194573d6000803e3d6000fd5b505050506040513d601f19601f820116820180604052508101906101b89190610362565b604080516360aac18160e11b81526004810191909152600860448201526739b437b93a2d21a160c11b60648201526080602482015260056084820152641cda1bdc9d60da1b60a48201529093507f00000000000000000000000000000000000000000000000000000000000000006001600160a01b03169063c15583029060c4016020604051808303816000875af1158015610258573d6000803e3d6000fd5b505050506040513d601f19601f8201168201806040525081019061027c9190610362565b9150848383867f00000000000000000000000000000000000000000000000000000000000000006040516102af90610304565b6001600160a01b0395861681529385166020850152918416604084015283166060830152909116608082015260a001604051809103906000f0801580156102fa573d6000803e3d6000fd5b5090509250925092565b615bc18061038783390190565b6001600160a01b038116811461032657600080fd5b50565b6000806040838503121561033c57600080fd5b823561034781610311565b9150602083013561035781610311565b809150509250929050565b60006020828403121561037457600080fd5b815161037f81610311565b939250505056fe6101806040523480156200001257600080fd5b5060405162005bc138038062005bc1833981016040819052620000359162000120565b6001600160a01b0380851660e052851661010052600060a081905260c0819052610120819052859085908590838362000078670de0b6b3a7640000606462000190565b600280546001600160801b0319166001600160801b0392909216919091179055505033608052600980546001600160a01b03199081166001600160a01b0396871617909155600a8054821694861694909417909355600b80548416928516929092179091551515610140526005805490911693821693909317909255166101605250620001ce915050565b80516001600160a01b03811681146200011b57600080fd5b919050565b600080600080600060a086880312156200013957600080fd5b620001448662000103565b9450620001546020870162000103565b9350620001646040870162000103565b9250620001746060870162000103565b9150620001846080870162000103565b90509295509295909350565b60006001600160801b0382811684821681151582840482111615620001c557634e487b7160e01b600052601160045260246000fd5b02949350505050565b60805160a05160c05160e051610100516101205161014051610160516159396200028860003960008181610c47015281816122e001528181612e02015281816130f2015261332b015260008181611db701528181611f4701528181612920015261299f01526000610b4c015260008181610b120152818161194e0152611c60015260008181610b86015281816119740152611c8601526000610aeb015260008181610bad015261101a015260006108af01526159396000f3fe608060405234801561001057600080fd5b506004361061043d5760003560e01c806375e2d94611610236578063b501c2841161013b578063ddca3f43116100c3578063e7ca189a11610087578063e7ca189a14610c1c578063f0bb81b314610c2f578063f77c479114610c42578063f83d08ba14610c69578063f9734a2414610c7157600080fd5b8063ddca3f4314610ba8578063df99f8bf14610be3578063e37699c914610bf6578063e38d6b5c14610969578063e7c3614f14610c0957600080fd5b8063c55dae631161010a578063c55dae6314610b0d578063c93ac3ed14610b34578063d0c93a7c14610b47578063d3b5dc3b14610969578063d83678ac14610b8157600080fd5b8063b501c284146109b1578063b9033a39146109c4578063ba52fe61146106ab578063c45a015514610ae657600080fd5b806396fd1c42116101be578063a74d74d41161018d578063a74d74d414610956578063aaf5eb6814610969578063af0d37bc14610978578063b04a69fd1461098b578063b29d9b6e1461099e57600080fd5b806396fd1c421461090a5780639b6080891461091d5780639c9d7d3f14610930578063a1217e7d1461094357600080fd5b80638d01450f116102055780638d01450f146108a25780638da5cb5b146108aa57806390f81702146108d15780639314b03f146108e4578063957343f0146108f757600080fd5b806375e2d946146108565780637f1d9ae61461086957806380c0c3e71461087c5780638ce269991461088f57600080fd5b8063402d44fb11610347578063558bdb29116102cf57806368087cc31161029357806368087cc3146107fb578063681504cd1461080e5780636e2f7ad3146108215780636ed755961461082a5780637063b06c1461084d57600080fd5b8063558bdb29146107b5578063578c8579146107be5780635bfa896a146107d1578063659a544a146107df57806367f239dd146107e857600080fd5b80634970aa88116103165780634970aa88146106ad5780634a3ca717146106c05780634df7e3d0146106d3578063514ea4bf146106dc578063556769ba146107a257600080fd5b8063402d44fb1461067257806342b6c9fb1461068557806342bc52921461069857806348af71321461048257600080fd5b80631816eb13116103ca5780632353b18e116103995780632353b18e14610583578063244d59cb146105a957806332530d7f146105bc57806334327d8b146105cf5780633850c7bd146105e257600080fd5b80631816eb13146105165780631a6865021461051f5780631d2637ab1461054a5780632130ce0d1461055357600080fd5b806310f222211161041157806310f22221146104ab57806311e715d6146104d65780631376ff3e146104e757806314e2b929146104fa578063159054ea1461050d57600080fd5b80624b204514610442578063082167121461046f57806308ef2b4c14610482578063098bcc5614610498575b600080fd5b610455610450366004614e9e565b610c84565b604080519283526020830191909152015b60405180910390f35b61045561047d366004614f2c565b61155e565b61048a611696565b604051908152602001610466565b6104556104a6366004614f9d565b611708565b600b546104be906001600160a01b031681565b6040516001600160a01b039091168152602001610466565b6001546001600160a01b031661048a565b61048a6104f5366004615004565b611823565b61048a610508366004615051565b611a2b565b61048a61271081565b61048a60105481565b600254610532906001600160801b031681565b6040516001600160801b039091168152602001610466565b61048a60075481565b610566610561366004615004565b611aed565b604080519283526001600160801b03909116602083015201610466565b610596610591366004615051565b611d6c565b60405161ffff9091168152602001610466565b6104556105b736600461506a565b611d98565b6104556105ca3660046150d4565b6120ac565b61048a6105dd36600461511d565b6122d3565b60015461062d906001600160a01b0381169061ffff600160a01b820481169160ff600160b01b8204811692600160b81b8304821692600160c01b810490921691600160c81b90041686565b604080516001600160a01b03909716875261ffff958616602088015260ff909416938601939093529015156060850152151560808401521660a082015260c001610466565b61053261068036600461514f565b61250b565b61048a6106933660046150d4565b6125cb565b6106ab6106a636600461518c565b61279e565b005b6106ab6106bb3660046151a9565b6127ea565b61048a6106ce366004615202565b6128e4565b61048a600e5481565b6107476106ea366004615051565b600460208190526000918252604090912080546001820154600283015460038401549484015460058501546006909501546001600160801b0380861697600160801b96879004821697828716979096048216959190941693929189565b604080516001600160801b039a8b168152988a1660208a015296891696880196909652938716606087015295909116608085015260a084015260c083019390935260e082019290925261010081019190915261012001610466565b6104556107b036600461506a565b612901565b61048a600d5481565b6106ab6107cc3660046151a9565b6129f6565b61048a662386f26fc1000081565b61048a60065481565b6005546104be906001600160a01b031681565b61056661080936600461522e565b612ac7565b6106ab61081c366004615264565b612c95565b61048a600c5481565b61083d6108383660046150d4565b612d3e565b6040519015158152602001610466565b61048a600f5481565b6106ab610864366004615290565b612df7565b6104556108773660046152bc565b612f85565b61048a61088a366004615290565b61308a565b6104be61089d366004615312565b6130c8565b6106ab6130e7565b6104be7f000000000000000000000000000000000000000000000000000000000000000081565b6009546104be906001600160a01b031681565b61048a6108f2366004615290565b613159565b6106ab61090536600461522e565b61316f565b6106ab610918366004615264565b613320565b61053261092b3660046150d4565b613422565b6106ab61093e36600461522e565b613477565b61048a61095136600461532d565b6135af565b61048a61096436600461536b565b61371b565b61048a670de0b6b3a764000081565b610455610986366004615390565b613773565b61048a610999366004615290565b61386a565b61048a6109ac366004615290565b6138a0565b61048a6109bf3660046153fa565b6138be565b610a626109d2366004615312565b60036020819052600091825260409091208054600182015460028301549383015460048401546005909401546001600160801b0380851696600160801b95869004600f0b9694959094600685900b94600160381b81046001600160a01b031694600160d81b820463ffffffff1694600160f81b90920460ff1693828416938190048316928083169291909104168c565b604080516001600160801b039d8e168152600f9c909c0b60208d01528b019990995260608a019790975260069590950b60808901526001600160a01b0390931660a088015263ffffffff90911660c0870152151560e08601528516610100850152841661012084015283166101408301529190911661016082015261018001610466565b6104be7f000000000000000000000000000000000000000000000000000000000000000081565b6104be7f000000000000000000000000000000000000000000000000000000000000000081565b6106ab610b4236600461542f565b6138f5565b610b6e7f000000000000000000000000000000000000000000000000000000000000000081565b60405160029190910b8152602001610466565b6104be7f000000000000000000000000000000000000000000000000000000000000000081565b610bcf7f000000000000000000000000000000000000000000000000000000000000000081565b60405162ffffff9091168152602001610466565b600a546104be906001600160a01b031681565b61048a610c04366004615202565b6139c0565b61048a610c17366004615290565b6139ce565b610566610c2a36600461522e565b613a16565b61048a610c3d36600461532d565b613aee565b6104be7f000000000000000000000000000000000000000000000000000000000000000081565b6106ab613c22565b61048a610c7f366004615290565b613c6d565b60055460009081906001600160a01b03163314610cbc5760405162461bcd60e51b8152600401610cb39061544f565b60405180910390fd5b60005460ff1615610cdf5760405162461bcd60e51b8152600401610cb390615472565b6000805460ff1916600117905560408051808201909152600f81526e2d2d2d4e65772054726164652d2d2d60881b6020820152610d1b90613d33565b6040805160c0810182526001546001600160a01b03808216835261ffff600160a01b83048116602080860182905260ff600160b01b8604811687890152600160b81b860481161515606080890191909152600160c01b87049091161515608080890191909152600160c81b90960490931660a08701528651610100810188528d81526000918101829052865190941696840196909652908201529192662386f26fc1000092909181018b610dd157600754610dd5565b6006545b8152600060208083018290526002546001600160801b03166040808501829052606094850191909152805193840181528284529083018290528281018290528301519293509091908b1390610e2a9085613d79565b8015610e3457508b155b15610e8457600183604001818151610e4c91906154ad565b9052506040830151610e5d90611d6c565b61ffff16606084018190526001805461ffff60a01b1916600160a01b830217905560208601525b825115801590610e98575089836040015114155b1561142357610ef460405180610100016040528060008152602001600061ffff1681526020016000151581526020016000815260200160008152602001600081526020016000815260200160006001600160801b031681525090565b604084015181526060840151610f0b90868f6138be565b60608201528c610f2b5760018460600151610f2691906154c5565b610f3b565b6060840151610f3b9060016154e8565b61ffff1660208201526060840151610f5590600390613d8d565b6001600160801b031660e082015281610f9257610f8d8160e001518560c00151610f7f919061550e565b6001600160801b0316613e9c565b610fb7565b610fb78160e001518560c00151610fa9919061550e565b6001600160801b0316613ed3565b83526040840151610fc8908e61371b565b60408085018290528501518451610fdf92906138a0565b60208401908152604085810151606084015187518351631922027560e11b815260048101939093526024830191909152604482015262ffffff7f000000000000000000000000000000000000000000000000000000000000000016606482015285516084820152915160a483015284015160c4820152730C578ca279f7ad3E64729f2679658F03cbb30DFe9063324404ea9060e401608060405180830381865af4158015611091573d6000803e3d6000fd5b505050506040513d601f19601f820116820180604052508101906110b59190615530565b60c085015260a08401526080830152604080860191909152805180820190915260088152675f5f5f5f5f5f5f5f60c01b60208201526110f390613d33565b61112160405180604001604052806008815260200167435552505249434560c01b8152508560400151613f0a565b61116d6040518060400160405280601e81526020017f74726164696e673b206c69717569646974792c20616d6f756e746c65667400008152508560c001516001600160801b0316613f0a565b83516111819061117c90615566565b613f4f565b6111cd6040518060400160405280601881526020017f6e65787470726963656c696d69742f706f696e746e65787400000000000000008152508260600151836020015161ffff16613f94565b6111f4604051806040016040528060018152602001606160f81b8152508460000151613f0a565b61122d6040518060400160405280600e81526020016d185b5bdd5b9d1a5b985b991bdd5d60921b81525082608001518360a00151613f94565b61125b6040518060400160405280600381526020016239963160e91b81525084602001518560400151613f94565b811561127d57608081015184518590611275908390615583565b905250611295565b6080810151845185906112919083906155c2565b9052505b8060a00151846020018181516112ab91906154ad565b90525060c08401516001600160801b0316156112f25760c080850151908201516112dd916001600160801b0316613fdb565b846080018181516112ee91906154ad565b9052505b80606001518460400151141561141d5760e08101516001600160801b031615611327576060840151611327906003908f613ff0565b6020810151600654600754600092611341926003926140e7565b9050866080015115801561136457508660a0015161ffff16826020015161ffff16145b156113925760208083015161ffff1660009081526008909152604090205461138f90600f0b82615603565b90505b604080518082018252600a81526964796e616d69634c697160b01b6020808301919091528481015161ffff166000908152600890915291909120546113e09190600f90810b9084900b613f94565b8d6113f1576113ee81615652565b90505b6113ff8560c001518261250b565b6001600160801b031660c086015250602081015161ffff1660608501525b50610e84565b611430836040015161413a565b600180546001600160a01b0319166001600160a01b03929092169190911790556020850151606084015161ffff91821691161461148d5760608301516001805461ffff909216600160a01b0261ffff60a01b199092169190911790555b8260c001516001600160801b03168360e001516001600160801b0316146114d35760c0830151600280546001600160801b0319166001600160801b039092169190911790555b8b156114e25760808301516006555b806115135761271083602001516114f991906154ad565b83516115048d615566565b61150e91906155c2565b611540565b8b61152e578251611524908c615583565b8360200151611540565b825161153a908c615583565b83602001515b6000805460ff19169055909e909d509b505050505050505050505050565b600080831561158f57841561158357611579838760006120ac565b90925090506115b3565b611579838760016120ac565b84156115a157611579838760016120ac565b6115ad838760006120ac565b90925090505b60095460405163a9059cbb60e01b81526001600160a01b039091169063a9059cbb906115e59086908690600401615679565b6020604051808303816000875af1158015611604573d6000803e3d6000fd5b505050506040513d601f19601f820116820180604052508101906116289190615692565b50600a546040516340c10f1960e01b81526001600160a01b03909116906340c10f199061165b9086908590600401615679565b600060405180830381600087803b15801561167557600080fd5b505af1158015611689573d6000803e3d6000fd5b5050505094509492505050565b6009546040516370a0823160e01b81523060048201526000916001600160a01b0316906370a0823190602401602060405180830381865afa1580156116df573d6000803e3d6000fd5b505050506040513d601f19601f8201168201806040525081019061170391906156af565b905090565b60055460009081906001600160a01b031633146117375760405162461bcd60e51b8152600401610cb39061544f565b60005460ff161561175a5760405162461bcd60e51b8152600401610cb390615472565b6000805460ff191660011781556117746004338989614155565b90508060050154856001600160801b03161161179957846001600160801b031661179f565b80600501545b92508060060154846001600160801b0316116117c457836001600160801b03166117ca565b80600601545b915082156117ec57828160050160008282546117e691906156c8565b90915550505b811561180c578181600601600082825461180691906156c8565b90915550505b506000805460ff1916905590969095509350505050565b6005546000906001600160a01b031633146118505760405162461bcd60e51b8152600401610cb39061544f565b60005460ff16156118735760405162461bcd60e51b8152600401610cb390615472565b6000805460ff191660019081179091555461ffff85169061189c906001600160a01b0316611d6c565b61ffff1614156118fa5760405162461bcd60e51b815260206004820152602360248201527f43616e277420726564756365206f7264657220666f722063757272656e74207460448201526269636b60e81b6064820152608401610cb3565b6000611916338661190c8160016154e8565b6004929190614155565b905061192e61192485615652565b82908560006141c0565b6119458561193b86615652565b6003919086614295565b600083611972577f0000000000000000000000000000000000000000000000000000000000000000611994565b7f00000000000000000000000000000000000000000000000000000000000000005b9050836119db576119d66119ac61089d8860016154e8565b6001600160a01b03166119be886130c8565b6001600160a01b0316876001600160801b0316613c6d565b611a16565b611a166119ec61089d8860016154e8565b6001600160a01b03166119fe886130c8565b6001600160a01b0316876001600160801b031661308a565b6000805460ff19169055979650505050505050565b600c54600d5460405163018b035160e01b81526004810184905260006024820181905260448201939093526064810191909152600160848201528190730C578ca279f7ad3E64729f2679658F03cbb30DFe9063018b03519060a4016040805180830381865af4158015611aa2573d6000803e3d6000fd5b505050506040513d601f19601f82011682018060405250810190611ac691906156df565b50905082611adc82670de0b6b3a7640000614366565b611ae691906156c8565b9392505050565b60055460009081906001600160a01b03163314611b1c5760405162461bcd60e51b8152600401610cb39061544f565b60005460ff1615611b3f5760405162461bcd60e51b8152600401610cb390615472565b6000805460ff19166001179055828015611b7557506001546001600160a01b0316611b69866130c8565b6001600160a01b031611155b15611bb35760405162461bcd60e51b815260206004820152600e60248201526d61736b2062656c6f77207072696560901b6044820152606401610cb3565b82158015611bdd57506001546001600160a01b0316611bd1866130c8565b6001600160a01b031610155b15611c1c5760405162461bcd60e51b815260206004820152600f60248201526e626964732061626f7665207072696560881b6044820152606401610cb3565b6000611c2e878761190c8160016154e8565b9050611c3c6003878661437b565b9150611c4a818686856141c0565b611c576003878787614295565b600084611c84577f0000000000000000000000000000000000000000000000000000000000000000611ca6565b7f00000000000000000000000000000000000000000000000000000000000000005b905084611ced57611ce8611cbe61089d8960016154e8565b6001600160a01b0316611cd0896130c8565b6001600160a01b0316886001600160801b0316613c6d565b611d28565b611d28611cfe61089d8960016154e8565b6001600160a01b0316611d10896130c8565b6001600160a01b0316886001600160801b031661308a565b9350611d5560405180604001604052806009815260200168185b5bdd5b9d189a5960ba1b81525085613f0a565b50506000805460ff19169055909590945092505050565b6000670de0b6b3a7640000611d8883662386f26fc10000613fdb565b611d929190615719565b92915050565b6000808615611f1157611db033600188888888610c84565b90925090507f000000000000000000000000000000000000000000000000000000000000000015611ded57611de833828460016143d3565b6120a2565b6000611df7611696565b604051636d29069f60e11b8152909150339063da520d3e90611e219086908990899060040161572d565b600060405180830381600087803b158015611e3b57600080fd5b505af1158015611e4f573d6000803e3d6000fd5b505050508083611e5f91906154ad565b611e67611696565b1015611e9e5760405162461bcd60e51b81526020600482015260066024820152653130b622a92960d11b6044820152606401610cb3565b600a546001600160a01b03166340c10f19611ebb8688018861518c565b846040518363ffffffff1660e01b8152600401611ed9929190615679565b600060405180830381600087803b158015611ef357600080fd5b505af1158015611f07573d6000803e3d6000fd5b50505050506120a2565b611f2030600088888888610c84565b90925090508080611f3984670de0b6b3a7640000614366565b611f4391906156c8565b91507f000000000000000000000000000000000000000000000000000000000000000015611f7d57611f7833848460006143d3565b6120a0565b6000611f87611696565b604051636d29069f60e11b8152909150339063da520d3e90611fb19086908a908a9060040161572d565b600060405180830381600087803b158015611fcb57600080fd5b505af1158015611fdf573d6000803e3d6000fd5b505050508083611fef91906154ad565b611ff7611696565b101561202e5760405162461bcd60e51b81526020600482015260066024820152653130b622a92960d11b6044820152606401610cb3565b600b546001600160a01b03166340c10f1961204b8789018961518c565b866040518363ffffffff1660e01b8152600401612069929190615679565b600060405180830381600087803b15801561208357600080fd5b505af1158015612097573d6000803e3d6000fd5b50505050819350505b505b9550959350505050565b60055460009081906001600160a01b031633146120db5760405162461bcd60e51b8152600401610cb39061544f565b60005460ff16156120fe5760405162461bcd60e51b8152600401610cb390615472565b6000805460ff1916600190811782556040805160c08101825282546001600160a01b038116825261ffff600160a01b820481166020840152600160b01b820460ff90811694840194909452600160b81b8204841615156060840152600160c01b820490931615156080830152600160c81b900490911660a0820152919061218e908890889061190c9082906154e8565b60015490915061ffff8716906121ac906001600160a01b0316611d6c565b61ffff16146121f15760405162461bcd60e51b81526020600482015260116024820152704e6f742063757272656e7420707269636560781b6044820152606401610cb3565b600085612212576001820154600160801b90046001600160801b0316612221565b60018201546001600160801b03165b905061223961222f82615652565b83908860006141c0565b6122508761224683615652565b6003919089614295565b61228761226161089d8960016154e8565b6001600160a01b031684600001516001600160a01b0316836001600160801b031661308a565b93506122bb83600001516001600160a01b03166122a3896130c8565b6001600160a01b0316836001600160801b0316613c6d565b6000805460ff19169055989397509295505050505050565b6000336001600160a01b037f0000000000000000000000000000000000000000000000000000000000000000161461233c5760405162461bcd60e51b815260206004820152600c60248201526b1d5b985d5d1a1bdc9a5e995960a21b6044820152606401610cb3565b600061235c61234b85876154ad565b612356886002615763565b90613fdb565b9050600061236e8261235688886156c8565b9050730C578ca279f7ad3E64729f2679658F03cbb30DFe63018b03516123948987614366565b6040516001600160e01b031960e084901b16815260048101919091526000602482015260448101849052606481018990526001608482015260a4016040805180830381865af41580156123eb573d6000803e3d6000fd5b505050506040513d601f19601f8201168201806040525081019061240f91906156df565b50600f55600e869055866124238387614366565b61242d8987614366565b600f5461243a9089614366565b61244491906156c8565b61244e91906154ad565b61245891906156c8565b925061249161246f670de0b6b3a764000083613fdb565b600280546001600160801b0319166001600160801b0392909216919091179055565b61249c600e54614525565b6124d36124a886611d6c565b61ffff16600090815260086020526040902080546001600160801b03191660016001607f1b03179055565b6125016124df86611d6c565b6001805461ffff909216600160c81b0261ffff60c81b19909216919091179055565b5050949350505050565b60008082600f0b1215612578576001600160801b03831661252b83615652565b6125359085615782565b9150816001600160801b0316106125735760405162461bcd60e51b81526020600482015260026024820152614c5360f01b6044820152606401610cb3565b611d92565b6001600160801b03831661258c838561550e565b9150816001600160801b03161015611d925760405162461bcd60e51b81526020600482015260026024820152614c4160f01b6044820152606401610cb3565b6005546000906001600160a01b031633146125f85760405162461bcd60e51b8152600401610cb39061544f565b60005460ff161561261b5760405162461bcd60e51b8152600401610cb390615472565b6000805460ff19166001908117825561263d908690869061190c9082906154e8565b9050600061264d6003868661437b565b90506000846126665782546001600160801b0316612679565b8254600160801b90046001600160801b03165b9050806001600160801b0316826001600160801b0316116126d25760405162461bcd60e51b8152602060048201526013602482015272141bdcda5d1a5bdb881b9bdd08199a5b1b1959606a1b6044820152606401610cb3565b6000856126f3576001840154600160801b90046001600160801b0316612702565b60018401546001600160801b03165b905085156127345761272d61271b61089d8960016154e8565b6001600160a01b03166122a3896130c8565b9450612772565b61276f61274561089d8960016154e8565b6001600160a01b0316612757896130c8565b6001600160a01b0316836001600160801b031661308a565b94505b61278861277e82615652565b85908860006141c0565b50506000805460ff191690555090949350505050565b6005546001600160a01b031633146127c85760405162461bcd60e51b8152600401610cb39061544f565b600580546001600160a01b0319166001600160a01b0392909216919091179055565b6000806127fb338888888888613773565b6009546040516323b872dd60e01b81529294509092506001600160a01b0316906323b872dd90612833903390309087906004016157a2565b6020604051808303816000875af1158015612852573d6000803e3d6000fd5b505050506040513d601f19601f820116820180604052508101906128769190615692565b50600a54604051632770a7eb60e21b81526001600160a01b0390911690639dc29fac906128a99033908590600401615679565b600060405180830381600087803b1580156128c357600080fd5b505af11580156128d7573d6000803e3d6000fd5b5050505050505050505050565b60006128f1600384613d8d565b6001600160801b03169392505050565b60008086156129695761291933600088888888610c84565b90925090507f00000000000000000000000000000000000000000000000000000000000000001561295157611de8338284600161457b565b611de86129608486018661518c565b8284600161457b565b61297833600188888888610c84565b9092509050818061299183670de0b6b3a7640000614366565b61299b91906156c8565b92507f0000000000000000000000000000000000000000000000000000000000000000156129d057611f78338484600061457b565b6129e86129df8587018761518c565b8484600061457b565b809150509550959350505050565b600080612a0533888888612f85565b91509150612a1d3388886001600160801b0380611708565b505060095460405163a9059cbb60e01b81526001600160a01b039091169063a9059cbb90612a519033908690600401615679565b6020604051808303816000875af1158015612a70573d6000803e3d6000fd5b505050506040513d601f19601f82011682018060405250810190612a949190615692565b50600a546040516340c10f1960e01b81526001600160a01b03909116906340c10f19906128a99033908590600401615679565b6000808315612b8f57612b0e8387612b07612ae661089d8360016154e8565b6001600160a01b0316612af88b6130c8565b6001600160a01b03168a6139ce565b6000611aed565b6009546040516323b872dd60e01b81529294509092506001600160a01b0316906323b872dd90612b46908690309087906004016157a2565b6020604051808303816000875af1158015612b65573d6000803e3d6000fd5b505050506040513d601f19601f82011682018060405250810190612b899190615692565b50612c8c565b612bcd8387612bc6612ba561089d8360016154e8565b6001600160a01b0316612bb78b6130c8565b6001600160a01b03168a61386a565b6001611aed565b90925090506000612c06612be561089d8960016154e8565b6001600160a01b0316612bf7896130c8565b6001600160a01b031688613c6d565b612c1090846156c8565b6009546040516323b872dd60e01b81529192506001600160a01b0316906323b872dd90612c45908790309086906004016157a2565b6020604051808303816000875af1158015612c64573d6000803e3d6000fd5b505050506040513d601f19601f82011682018060405250810190612c889190615692565b5091505b94509492505050565b6005546001600160a01b03163314612cbf5760405162461bcd60e51b8152600401610cb3906157c6565b600a546040516340c10f1960e01b81526001600160a01b03909116906340c10f1990612cf19085908590600401615679565b600060405180830381600087803b158015612d0b57600080fd5b505af1158015612d1f573d6000803e3d6000fd5b505050508060106000828254612d3591906154ad565b90915550505050565b600080612d51858561190c8160016154e8565b90506000612d616003868661437b565b9050600084612d7a5782546001600160801b0316612d8d565b8254600160801b90046001600160801b03165b9050600085612db0576001840154600160801b90046001600160801b0316612dbf565b60018401546001600160801b03165b90506000816001600160801b0316118015612deb5750816001600160801b0316836001600160801b0316115b98975050505050505050565b336001600160a01b037f00000000000000000000000000000000000000000000000000000000000000001614612e5e5760405162461bcd60e51b815260206004820152600c60248201526b1d5b985d5d1a1bdc9a5e995960a21b6044820152606401610cb3565b670de0b6b3a7640000612e7f612e7484866154ad565b612356866002615763565b612e8991906156c8565b600d55612eae612e9983856154ad565b600d5461235690670de0b6b3a76400006156c8565b600c55730C578ca279f7ad3E64729f2679658F03cbb30DFe63018b0351612ed58584614366565b600c54600d546040516001600160e01b031960e086901b168152600481019390935260006024840152604483019190915260648201526001608482015260a4016040805180830381865af4158015612f31573d6000803e3d6000fd5b505050506040513d601f19601f82011682018060405250810190612f5591906156df565b600e55600f55600c54612f759061246f90670de0b6b3a764000090613fdb565b612f80600e54614525565b505050565b60055460009081906001600160a01b03163314612fb45760405162461bcd60e51b8152600401610cb39061544f565b60005460ff1615612fd75760405162461bcd60e51b8152600401610cb390615472565b6000805460ff19166001178155604080516080810182526001600160a01b038916815261ffff80891660208301528716918101919091528190819061302d906060810161302389615652565b600f0b9052614681565b92509250925060008211806130425750600081115b156130725781836005015461305791906154ad565b81846006015461306791906154ad565b600685015560058401555b6000805460ff19169055909890975095505050505050565b6000828410156130ac5760405162461bcd60e51b8152600401610cb3906157e8565b6130c0826130ba85876156c8565b90614366565b949350505050565b6000611d926130e2662386f26fc1000061ffff8516615763565b61413a565b336001600160a01b037f0000000000000000000000000000000000000000000000000000000000000000161461312f5760405162461bcd60e51b8152600401610cb3906157c6565b600280546001600160801b03191690556131576001805460ff60c01b1916600160c01b179055565b565b60006130c08261316985876156c8565b90614919565b811561321957600061319c8286613195613190612ae661089d8460016154e8565b61492e565b6000611823565b60095460405163a9059cbb60e01b81529192506001600160a01b03169063a9059cbb906131cf9085908590600401615679565b6020604051808303816000875af11580156131ee573d6000803e3d6000fd5b505050506040513d601f19601f820116820180604052508101906132129190615692565b505061331a565b600061325061319061322f61089d8860016154e8565b6001600160a01b0316613241886130c8565b6001600160a01b03168761386a565b905061325f8286836001611823565b506009546001600160a01b031663a9059cbb836132ad61328361089d8a60016154e8565b6001600160a01b03166132958a6130c8565b6001600160a01b0316866001600160801b0316613c6d565b6132b790886156c8565b6040518363ffffffff1660e01b81526004016132d4929190615679565b6020604051808303816000875af11580156132f3573d6000803e3d6000fd5b505050506040513d601f19601f820116820180604052508101906133179190615692565b50505b50505050565b336001600160a01b037f000000000000000000000000000000000000000000000000000000000000000016146133685760405162461bcd60e51b8152600401610cb3906157c6565b6000198114156133ec576009546001600160a01b031663a9059cbb8361338c611696565b6040518363ffffffff1660e01b81526004016133a9929190615679565b6020604051808303816000875af11580156133c8573d6000803e3d6000fd5b505050506040513d601f19601f82011682018060405250810190612f809190615692565b60095460405163a9059cbb60e01b81526001600160a01b039091169063a9059cbb906133a99085908590600401615679565b5050565b60008161345257613439848461190c8160016154e8565b60010154600160801b90046001600160801b03166130c0565b613462848461190c8160016154e8565b600101546001600160801b0316949350505050565b811561350a57600061349f8286613498613190612ba561089d8460016154e8565b6001611823565b600a546040516340c10f1960e01b81529192506001600160a01b0316906340c10f19906134d29085908590600401615679565b600060405180830381600087803b1580156134ec57600080fd5b505af1158015613500573d6000803e3d6000fd5b505050505061331a565b613544818561319561319061352361089d8460016154e8565b6001600160a01b03166135358a6130c8565b6001600160a01b03168961386a565b50600b546040516340c10f1960e01b81526001600160a01b03909116906340c10f19906135779084908790600401615679565b600060405180830381600087803b15801561359157600080fd5b505af11580156135a5573d6000803e3d6000fd5b5050505050505050565b6000821561363f576135c3828560016125cb565b60095460405163a9059cbb60e01b81529192506001600160a01b03169063a9059cbb906135f69085908590600401615679565b6020604051808303816000875af1158015613615573d6000803e3d6000fd5b505050506040513d601f19601f820116820180604052508101906136399190615692565b50611ae6565b600061364d83866000613422565b905061365b838660006125cb565b915061368061366e61089d8760016154e8565b6001600160a01b03166122a3876130c8565b61369283670de0b6b3a7640000614366565b61369c91906156c8565b60095460405163a9059cbb60e01b81529193506001600160a01b03169063a9059cbb906136cf9086908690600401615679565b6020604051808303816000875af11580156136ee573d6000803e3d6000fd5b505050506040513d601f19601f820116820180604052508101906137129190615692565b50509392505050565b60008061372784611d6c565b905082158015613742575061374061ffff82168561580b565b155b6137545761374f816130c8565b613762565b61376261089d6001836154c5565b6001600160a01b0316949350505050565b60055460009081906001600160a01b031633146137a25760405162461bcd60e51b8152600401610cb39061544f565b60005460ff16156137c55760405162461bcd60e51b8152600401610cb390615472565b6000805460ff191660011790556001600160801b0385166138135760405162461bcd60e51b81526020600482015260086024820152670c08185b5bdd5b9d60c21b6044820152606401610cb3565b61385060405180608001604052808a6001600160a01b031681526020018961ffff1681526020018861ffff16815260200187600f0b815250614681565b6000805460ff19169055909a909950975050505050505050565b60008284101561388c5760405162461bcd60e51b8152600401610cb3906157e8565b6130c061389984866156c8565b8390613fdb565b6000816138b05750600019611ae6565b6130c08261235685876156c8565b600081156138e757826138d28560016154e8565b61ffff166138e09190615763565b9050611ae6565b6138e08361ffff8616615763565b6005546001600160a01b0316331461391f5760405162461bcd60e51b8152600401610cb3906157c6565b801561398e57600a54604051632770a7eb60e21b81526001600160a01b0390911690639dc29fac906139579086908690600401615679565b600060405180830381600087803b15801561397157600080fd5b505af1158015613985573d6000803e3d6000fd5b50505050505050565b600b54604051632770a7eb60e21b81526001600160a01b0390911690639dc29fac906139579086908690600401615679565b60006128f16003848461437b565b6000828410156139f05760405162461bcd60e51b8152600401610cb3906157e8565b6130c06138996002613a0286886154ad565b613a0c9190615719565b6130ba86886156c8565b6000808315613aa257613a358387612bc6612ba561089d8360016154e8565b600a54604051632770a7eb60e21b81529294509092506001600160a01b031690639dc29fac90613a6b9086908690600401615679565b600060405180830381600087803b158015613a8557600080fd5b505af1158015613a99573d6000803e3d6000fd5b50505050612c8c565b613ab88387612b07612ba561089d8360016154e8565b600b54604051632770a7eb60e21b81529294509092506001600160a01b031690639dc29fac9061165b9086908990600401615679565b60008215613b6f576000613b04838660006125cb565b600a546040516340c10f1960e01b81529192506001600160a01b0316906340c10f1990613b379086908590600401615679565b600060405180830381600087803b158015613b5157600080fd5b505af1158015613b65573d6000803e3d6000fd5b5050505050611ae6565b600b546001600160a01b03166340c10f1983613bc7613b9261089d8960016154e8565b6001600160a01b0316613ba4896130c8565b6001600160a01b0316613bb9338b6001613422565b6001600160801b031661308a565b6040518363ffffffff1660e01b8152600401613be4929190615679565b600060405180830381600087803b158015613bfe57600080fd5b505af1158015613c12573d6000803e3d6000fd5b505050506130c0828560016125cb565b6005546001600160a01b03163314613c4c5760405162461bcd60e51b8152600401610cb39061544f565b6001805460ff60b81b198116600160b81b9182900460ff1615909102179055565b600082841015613c8f5760405162461bcd60e51b8152600401610cb3906157e8565b730C578ca279f7ad3E64729f2679658F03cbb30DFe636ca35e9e613cb486868661308a565b6000613cbf86613ed3565b6040516001600160e01b031960e086901b16815260048101939093526024830191909152604482015260648101869052608401602060405180830381865af4158015613d0f573d6000803e3d6000fd5b505050506040513d601f19601f820116820180604052508101906130c091906156af565b613d7681604051602401613d47919061586c565b60408051601f198184030181529190526020810180516001600160e01b031663104c13eb60e21b179052614944565b50565b6000613d85828461580b565b159392505050565b61ffff811660009081526020838152604080832081516101808101835281546001600160801b038082168352600160801b91829004600f0b95830195909552600183015493820193909352600282015460608201526003820154600681900b6080830152600160381b81046001600160a01b031660a0830152600160d81b810463ffffffff1660c0830152600160f81b900460ff16151560e08201526004820154808516610100830181905290849004851661012083015260059092015480851661014083015292909204909216610160820152901580613e7a57506101208101516001600160801b0316155b613e8657613e8661587f565b8061012001518161010001516130c0919061550e565b60008115613eb657612573670de0b6b3a764000083614919565b611d92613ec48360016154ad565b670de0b6b3a764000090614919565b60008115613eed57612573670de0b6b3a764000083613fdb565b611d92613efb8360016154ad565b670de0b6b3a764000090613fdb565b61341e8282604051602401613f20929190615895565b60408051601f198184030181529190526020810180516001600160e01b03166309710a9d60e41b179052614944565b613d7681604051602401613f6591815260200190565b60408051601f198184030181529190526020810180516001600160e01b031663f5b1bba960e01b179052614944565b612f80838383604051602401613fac939291906158b7565b60408051601f198184030181529190526020810180516001600160e01b031663969cdd0360e01b179052614944565b6000611ae683670de0b6b3a764000084614965565b61ffff82166000908152602084905260409020811561408c576004810180546001600160801b03191690556005810180546001600160801b0316906000614036836158dc565b91906101000a8154816001600160801b0302191690836001600160801b0316021790555050614087604051806040016040528060068152602001657469636b3f3f60d01b8152508461ffff16613f0a565b61331a565b6004810180546001600160801b03908116909155600582018054600160801b90049091169060106140bc836158dc565b91906101000a8154816001600160801b0302191690836001600160801b031602179055505050505050565b61ffff8316600090815260208590526040902080546001820154600160801b909104600f0b919061411890856156c8565b6001820155600281015461412c90846156c8565b600290910155949350505050565b806001600160a01b038116811461415057600080fd5b919050565b6040805160609490941b6bffffffffffffffffffffffff191660208086019190915260f093841b6001600160f01b031990811660348701529290931b909116603684015280516018818503018152603890930181528251928201929092206000908152929052902090565b811561422a5760018401546141de906001600160801b03168461250b565b6001850180546001600160801b0319166001600160801b03929092169190911790556000600f84900b13156140875783546001600160801b03808316600160801b02911617845561331a565b600184015461424990600160801b90046001600160801b03168461250b565b6001850180546001600160801b03928316600160801b0292169190911790556000600f84900b131561331a5783546001600160801b0319166001600160801b0391909116179092555050565b80156142fe5761ffff83166000908152602085905260409020600401546142c5906001600160801b03168361250b565b61ffff8416600090815260208690526040902060040180546001600160801b0319166001600160801b039290921691909117905561331a565b61ffff831660009081526020859052604090206004015461432f90600160801b90046001600160801b03168361250b565b61ffff8416600090815260208690526040902060040180546001600160801b03928316600160801b02921691909117905550505050565b6000611ae68383670de0b6b3a7640000614965565b6000816143ae5761ffff8316600090815260208590526040902060050154600160801b90046001600160801b03166130c0565b505061ffff16600090815260209190915260409020600501546001600160801b031690565b801561444257600a546040516340c10f1960e01b81526001600160a01b03909116906340c10f199061440b9087908790600401615679565b600060405180830381600087803b15801561442557600080fd5b505af1158015614439573d6000803e3d6000fd5b505050506144a7565b600b546040516340c10f1960e01b81526001600160a01b03909116906340c10f19906144749087908790600401615679565b600060405180830381600087803b15801561448e57600080fd5b505af11580156144a2573d6000803e3d6000fd5b505050505b6009546040516323b872dd60e01b81526001600160a01b03909116906323b872dd906144db908790309087906004016157a2565b6020604051808303816000875af11580156144fa573d6000803e3d6000fd5b505050506040513d601f19601f8201168201806040525081019061451e9190615692565b5050505050565b61452e81611d6c565b6001805461ffff92909216600160a01b0261ffff60a01b199092169190911790556145588161413a565b600180546001600160a01b0319166001600160a01b039290921691909117905550565b80156145ea57600a54604051632770a7eb60e21b81526001600160a01b0390911690639dc29fac906145b39087908690600401615679565b600060405180830381600087803b1580156145cd57600080fd5b505af11580156145e1573d6000803e3d6000fd5b5050505061464f565b600b54604051632770a7eb60e21b81526001600160a01b0390911690639dc29fac9061461c9087908690600401615679565b600060405180830381600087803b15801561463657600080fd5b505af115801561464a573d6000803e3d6000fd5b505050505b60095460405163a9059cbb60e01b81526001600160a01b039091169063a9059cbb906144db9087908790600401615679565b6040805160c0810182526001546001600160a01b038116825261ffff600160a01b82048116602080850182905260ff600160b01b8504811686880152600160b81b850481161515606080880191909152600160c01b860490911615156080870152600160c81b90940490921660a0850152855191860151948601519286015160009586958695909461471594909390614984565b93508460600151600f0b60001461491157846020015161ffff16816020015161ffff1610156147a7576147a061474e86604001516130c8565b6001600160a01b031661476487602001516130c8565b6001600160a01b031660008860600151600f0b121561479357876060015161478b90615652565b600f0b61308a565b8760600151600f0b61308a565b9150614911565b846040015161ffff16816020015161ffff1610156148b45760025460408601516001600160801b0390911690614822906147e0906130c8565b6001600160a01b031683600001516001600160a01b031660008960600151600f0b121561481557886060015161478b90615652565b8860600151600f0b61308a565b925061487e82600001516001600160a01b031661484288602001516130c8565b6001600160a01b031660008960600151600f0b121561487157886060015161486990615652565b600f0b613c6d565b8860600151600f0b613c6d565b935061488e81876060015161250b565b600280546001600160801b0319166001600160801b039290921691909117905550614911565b61490e6148c486604001516130c8565b6001600160a01b03166148da87602001516130c8565b6001600160a01b031660008860600151600f0b121561490157876060015161486990615652565b8760600151600f0b613c6d565b92505b509193909250565b6000611ae683670de0b6b3a764000084614a10565b806001600160801b038116811461415057600080fd5b80516a636f6e736f6c652e6c6f67602083016000808483855afa5050505050565b82820281151584158583048514171661497d57600080fd5b0492915050565b60006149936004878787614155565b60065460075491925090600f85900b156149e0576006546007546149c2916003918a9188918a91906000614a3e565b506006546007546149de91600391899188918a91906001614a3e565b505b6000806149f260038a8a898888614b45565b9092509050614a0385888484614c31565b5050505095945050505050565b828202811515841585830485141716614a2857600080fd5b6001826001830304018115150290509392505050565b61ffff8616600090815260208890526040812080546001600160801b031682614a67828961250b565b6001600160801b038381161590821615811415955090915015614aba578861ffff168a61ffff1611614aa25760018301879055600283018690555b6003830180546001600160f81b0316600160f81b1790555b82546001600160801b0319166001600160801b03821617835584614b00578254614afb90614af690600f8b810b91600160801b9004900b6155c2565b614e21565b614b1e565b8254614b1e90614af690600f8b810b91600160801b9004900b615583565b83546001600160801b03918216600160801b02911617909255509098975050505050505050565b61ffff80861660008181526020899052604080822088851683529082209193849391929184918291908a1610614b8657505060018201546002830154614baa565b6001840154614b9590896156c8565b9150836002015487614ba791906156c8565b90505b6000808b61ffff168b61ffff161015614bce57505060018301546002840154614bf2565b6001850154614bdd908b6156c8565b9150846002015489614bef91906156c8565b90505b81614bfd858c6156c8565b614c0791906156c8565b975080614c14848b6156c8565b614c1e91906156c8565b9650505050505050965096945050505050565b604080516101208101825285546001600160801b038082168352600160801b918290048116602084015260018801548082169484019490945292048216606082015260028601549091166080820152600385015460a0820152600485015460c0820152600585015460e082015260068501546101008201526000600f85900b614d0157600082608001516001600160801b031611614cf65760405162461bcd60e51b815260206004820152600260248201526104e560f41b6044820152606401610cb3565b506080810151614d12565b614d0f82608001518661250b565b90505b6000614d4583608001516001600160801b0316670de0b6b3a76400008560a0015188614d3e91906156c8565b9190614965565b90506000614d7384608001516001600160801b0316670de0b6b3a76400008660c0015188614d3e91906156c8565b905086600f0b600014614d9e576002880180546001600160801b0319166001600160801b0385161790555b60038801869055600488018590556001600160801b038216151580614dcc57506000816001600160801b0316115b156135a557816001600160801b0316886005016000828254614dee91906154ad565b92505081905550806001600160801b0316886006016000828254614e1291906154ad565b90915550505050505050505050565b80600f81900b811461415057600080fd5b6001600160a01b0381168114613d7657600080fd5b8015158114613d7657600080fd5b60008083601f840112614e6757600080fd5b50813567ffffffffffffffff811115614e7f57600080fd5b602083019150836020828501011115614e9757600080fd5b9250929050565b60008060008060008060a08789031215614eb757600080fd5b8635614ec281614e32565b95506020870135614ed281614e47565b94506040870135935060608701359250608087013567ffffffffffffffff811115614efc57600080fd5b614f0889828a01614e55565b979a9699509497509295939492505050565b803561ffff8116811461415057600080fd5b60008060008060808587031215614f4257600080fd5b614f4b85614f1a565b93506020850135614f5b81614e47565b92506040850135614f6b81614e47565b91506060850135614f7b81614e32565b939692955090935050565b80356001600160801b038116811461415057600080fd5b600080600080600060a08688031215614fb557600080fd5b8535614fc081614e32565b9450614fce60208701614f1a565b9350614fdc60408701614f1a565b9250614fea60608701614f86565b9150614ff860808701614f86565b90509295509295909350565b6000806000806080858703121561501a57600080fd5b843561502581614e32565b935061503360208601614f1a565b925061504160408601614f86565b91506060850135614f7b81614e47565b60006020828403121561506357600080fd5b5035919050565b60008060008060006080868803121561508257600080fd5b853561508d81614e47565b94506020860135935060408601359250606086013567ffffffffffffffff8111156150b757600080fd5b6150c388828901614e55565b969995985093965092949392505050565b6000806000606084860312156150e957600080fd5b83356150f481614e32565b925061510260208501614f1a565b9150604084013561511281614e47565b809150509250925092565b6000806000806080858703121561513357600080fd5b5050823594602084013594506040840135936060013592509050565b6000806040838503121561516257600080fd5b61516b83614f86565b9150602083013580600f0b811461518157600080fd5b809150509250929050565b60006020828403121561519e57600080fd5b8135611ae681614e32565b6000806000806000608086880312156151c157600080fd5b6151ca86614f1a565b94506151d860208701614f1a565b93506151e660408701614f86565b9250606086013567ffffffffffffffff8111156150b757600080fd5b6000806040838503121561521557600080fd5b61521e83614f1a565b9150602083013561518181614e47565b6000806000806080858703121561524457600080fd5b61524d85614f1a565b9350602085013592506040850135614f6b81614e47565b6000806040838503121561527757600080fd5b823561528281614e32565b946020939093013593505050565b6000806000606084860312156152a557600080fd5b505081359360208301359350604090920135919050565b600080600080608085870312156152d257600080fd5b84356152dd81614e32565b93506152eb60208601614f1a565b92506152f960408601614f1a565b915061530760608601614f86565b905092959194509250565b60006020828403121561532457600080fd5b611ae682614f1a565b60008060006060848603121561534257600080fd5b61534b84614f1a565b9250602084013561535b81614e47565b9150604084013561511281614e32565b6000806040838503121561537e57600080fd5b82359150602083013561518181614e47565b60008060008060008060a087890312156153a957600080fd5b86356153b481614e32565b95506153c260208801614f1a565b94506153d060408801614f1a565b93506153de60608801614f86565b9250608087013567ffffffffffffffff811115614efc57600080fd5b60008060006060848603121561540f57600080fd5b61541884614f1a565b925060208401359150604084013561511281614e47565b60008060006060848603121561544457600080fd5b833561541881614e32565b6020808252600990820152684e6f7420456e74727960b81b604082015260600190565b6020808252600b908201526a4552525f5245454e54525960a81b604082015260600190565b634e487b7160e01b600052601160045260246000fd5b600082198211156154c0576154c0615497565b500190565b600061ffff838116908316818110156154e0576154e0615497565b039392505050565b600061ffff80831681851680830382111561550557615505615497565b01949350505050565b60006001600160801b0380831681851680830382111561550557615505615497565b6000806000806080858703121561554657600080fd5b505082516020840151604085015160609095015191969095509092509050565b6000600160ff1b82141561557c5761557c615497565b5060000390565b60008083128015600160ff1b8501841216156155a1576155a1615497565b6001600160ff1b03840183138116156155bc576155bc615497565b50500390565b600080821280156001600160ff1b03849003851316156155e4576155e4615497565b600160ff1b83900384128116156155fd576155fd615497565b50500190565b600081600f0b83600f0b600082128260016001607f1b030382138115161561562d5761562d615497565b8260016001607f1b031903821281161561564957615649615497565b50019392505050565b600081600f0b60016001607f1b031981141561567057615670615497565b60000392915050565b6001600160a01b03929092168252602082015260400190565b6000602082840312156156a457600080fd5b8151611ae681614e47565b6000602082840312156156c157600080fd5b5051919050565b6000828210156156da576156da615497565b500390565b600080604083850312156156f257600080fd5b505080516020909101519092909150565b634e487b7160e01b600052601260045260246000fd5b60008261572857615728615703565b500490565b83815260406020820152816040820152818360608301376000818301606090810191909152601f909201601f1916010192915050565b600081600019048311821515161561577d5761577d615497565b500290565b60006001600160801b03838116908316818110156154e0576154e0615497565b6001600160a01b039384168152919092166020820152604081019190915260600190565b60208082526008908201526732b73a393ca2a92960c11b604082015260600190565b602080825260099082015268383934b1b29022a92960b91b604082015260600190565b60008261581a5761581a615703565b500690565b6000815180845260005b8181101561584557602081850181015186830182015201615829565b81811115615857576000602083870101525b50601f01601f19169290920160200192915050565b602081526000611ae6602083018461581f565b634e487b7160e01b600052600160045260246000fd5b6040815260006158a8604083018561581f565b90508260208301529392505050565b6060815260006158ca606083018661581f565b60208301949094525060400152919050565b60006001600160801b03808316818114156158f9576158f9615497565b600101939250505056fea26469706673582212205df39d00f814999ac63913012f71ddb3bb0a008f9e197cc8436e6b102a1032df64736f6c634300080c0033a264697066735822122007a740e815947da9043b7998d6711d27e25d64403e00e3f46cef16922d2a73a764736f6c634300080c0033",
  "deployedBytecode": "0x608060405234801561001057600080fd5b50600436106100415760003560e01c8063981f513614610046578063a1a76dc014610088578063f77c4791146100c7575b600080fd5b610059610054366004610329565b6100ee565b604080516001600160a01b03948516815292841660208401529216918101919091526060015b60405180910390f35b6100af7f000000000000000000000000000000000000000000000000000000000000000081565b6040516001600160a01b03909116815260200161007f565b6100af7f000000000000000000000000000000000000000000000000000000000000000081565b60008060007f00000000000000000000000000000000000000000000000000000000000000006001600160a01b031663c15583026040518163ffffffff1660e01b8152600401610175906040808252600790820152663637b733ad21a160c91b6060820152608060208201819052600490820152636c6f6e6760e01b60a082015260c00190565b6020604051808303816000875af1158015610194573d6000803e3d6000fd5b505050506040513d601f19601f820116820180604052508101906101b89190610362565b604080516360aac18160e11b81526004810191909152600860448201526739b437b93a2d21a160c11b60648201526080602482015260056084820152641cda1bdc9d60da1b60a48201529093507f00000000000000000000000000000000000000000000000000000000000000006001600160a01b03169063c15583029060c4016020604051808303816000875af1158015610258573d6000803e3d6000fd5b505050506040513d601f19601f8201168201806040525081019061027c9190610362565b9150848383867f00000000000000000000000000000000000000000000000000000000000000006040516102af90610304565b6001600160a01b0395861681529385166020850152918416604084015283166060830152909116608082015260a001604051809103906000f0801580156102fa573d6000803e3d6000fd5b5090509250925092565b615bc18061038783390190565b6001600160a01b038116811461032657600080fd5b50565b6000806040838503121561033c57600080fd5b823561034781610311565b9150602083013561035781610311565b809150509250929050565b60006020828403121561037457600080fd5b815161037f81610311565b939250505056fe6101806040523480156200001257600080fd5b5060405162005bc138038062005bc1833981016040819052620000359162000120565b6001600160a01b0380851660e052851661010052600060a081905260c0819052610120819052859085908590838362000078670de0b6b3a7640000606462000190565b600280546001600160801b0319166001600160801b0392909216919091179055505033608052600980546001600160a01b03199081166001600160a01b0396871617909155600a8054821694861694909417909355600b80548416928516929092179091551515610140526005805490911693821693909317909255166101605250620001ce915050565b80516001600160a01b03811681146200011b57600080fd5b919050565b600080600080600060a086880312156200013957600080fd5b620001448662000103565b9450620001546020870162000103565b9350620001646040870162000103565b9250620001746060870162000103565b9150620001846080870162000103565b90509295509295909350565b60006001600160801b0382811684821681151582840482111615620001c557634e487b7160e01b600052601160045260246000fd5b02949350505050565b60805160a05160c05160e051610100516101205161014051610160516159396200028860003960008181610c47015281816122e001528181612e02015281816130f2015261332b015260008181611db701528181611f4701528181612920015261299f01526000610b4c015260008181610b120152818161194e0152611c60015260008181610b86015281816119740152611c8601526000610aeb015260008181610bad015261101a015260006108af01526159396000f3fe608060405234801561001057600080fd5b506004361061043d5760003560e01c806375e2d94611610236578063b501c2841161013b578063ddca3f43116100c3578063e7ca189a11610087578063e7ca189a14610c1c578063f0bb81b314610c2f578063f77c479114610c42578063f83d08ba14610c69578063f9734a2414610c7157600080fd5b8063ddca3f4314610ba8578063df99f8bf14610be3578063e37699c914610bf6578063e38d6b5c14610969578063e7c3614f14610c0957600080fd5b8063c55dae631161010a578063c55dae6314610b0d578063c93ac3ed14610b34578063d0c93a7c14610b47578063d3b5dc3b14610969578063d83678ac14610b8157600080fd5b8063b501c284146109b1578063b9033a39146109c4578063ba52fe61146106ab578063c45a015514610ae657600080fd5b806396fd1c42116101be578063a74d74d41161018d578063a74d74d414610956578063aaf5eb6814610969578063af0d37bc14610978578063b04a69fd1461098b578063b29d9b6e1461099e57600080fd5b806396fd1c421461090a5780639b6080891461091d5780639c9d7d3f14610930578063a1217e7d1461094357600080fd5b80638d01450f116102055780638d01450f146108a25780638da5cb5b146108aa57806390f81702146108d15780639314b03f146108e4578063957343f0146108f757600080fd5b806375e2d946146108565780637f1d9ae61461086957806380c0c3e71461087c5780638ce269991461088f57600080fd5b8063402d44fb11610347578063558bdb29116102cf57806368087cc31161029357806368087cc3146107fb578063681504cd1461080e5780636e2f7ad3146108215780636ed755961461082a5780637063b06c1461084d57600080fd5b8063558bdb29146107b5578063578c8579146107be5780635bfa896a146107d1578063659a544a146107df57806367f239dd146107e857600080fd5b80634970aa88116103165780634970aa88146106ad5780634a3ca717146106c05780634df7e3d0146106d3578063514ea4bf146106dc578063556769ba146107a257600080fd5b8063402d44fb1461067257806342b6c9fb1461068557806342bc52921461069857806348af71321461048257600080fd5b80631816eb13116103ca5780632353b18e116103995780632353b18e14610583578063244d59cb146105a957806332530d7f146105bc57806334327d8b146105cf5780633850c7bd146105e257600080fd5b80631816eb13146105165780631a6865021461051f5780631d2637ab1461054a5780632130ce0d1461055357600080fd5b806310f222211161041157806310f22221146104ab57806311e715d6146104d65780631376ff3e146104e757806314e2b929146104fa578063159054ea1461050d57600080fd5b80624b204514610442578063082167121461046f57806308ef2b4c14610482578063098bcc5614610498575b600080fd5b610455610450366004614e9e565b610c84565b604080519283526020830191909152015b60405180910390f35b61045561047d366004614f2c565b61155e565b61048a611696565b604051908152602001610466565b6104556104a6366004614f9d565b611708565b600b546104be906001600160a01b031681565b6040516001600160a01b039091168152602001610466565b6001546001600160a01b031661048a565b61048a6104f5366004615004565b611823565b61048a610508366004615051565b611a2b565b61048a61271081565b61048a60105481565b600254610532906001600160801b031681565b6040516001600160801b039091168152602001610466565b61048a60075481565b610566610561366004615004565b611aed565b604080519283526001600160801b03909116602083015201610466565b610596610591366004615051565b611d6c565b60405161ffff9091168152602001610466565b6104556105b736600461506a565b611d98565b6104556105ca3660046150d4565b6120ac565b61048a6105dd36600461511d565b6122d3565b60015461062d906001600160a01b0381169061ffff600160a01b820481169160ff600160b01b8204811692600160b81b8304821692600160c01b810490921691600160c81b90041686565b604080516001600160a01b03909716875261ffff958616602088015260ff909416938601939093529015156060850152151560808401521660a082015260c001610466565b61053261068036600461514f565b61250b565b61048a6106933660046150d4565b6125cb565b6106ab6106a636600461518c565b61279e565b005b6106ab6106bb3660046151a9565b6127ea565b61048a6106ce366004615202565b6128e4565b61048a600e5481565b6107476106ea366004615051565b600460208190526000918252604090912080546001820154600283015460038401549484015460058501546006909501546001600160801b0380861697600160801b96879004821697828716979096048216959190941693929189565b604080516001600160801b039a8b168152988a1660208a015296891696880196909652938716606087015295909116608085015260a084015260c083019390935260e082019290925261010081019190915261012001610466565b6104556107b036600461506a565b612901565b61048a600d5481565b6106ab6107cc3660046151a9565b6129f6565b61048a662386f26fc1000081565b61048a60065481565b6005546104be906001600160a01b031681565b61056661080936600461522e565b612ac7565b6106ab61081c366004615264565b612c95565b61048a600c5481565b61083d6108383660046150d4565b612d3e565b6040519015158152602001610466565b61048a600f5481565b6106ab610864366004615290565b612df7565b6104556108773660046152bc565b612f85565b61048a61088a366004615290565b61308a565b6104be61089d366004615312565b6130c8565b6106ab6130e7565b6104be7f000000000000000000000000000000000000000000000000000000000000000081565b6009546104be906001600160a01b031681565b61048a6108f2366004615290565b613159565b6106ab61090536600461522e565b61316f565b6106ab610918366004615264565b613320565b61053261092b3660046150d4565b613422565b6106ab61093e36600461522e565b613477565b61048a61095136600461532d565b6135af565b61048a61096436600461536b565b61371b565b61048a670de0b6b3a764000081565b610455610986366004615390565b613773565b61048a610999366004615290565b61386a565b61048a6109ac366004615290565b6138a0565b61048a6109bf3660046153fa565b6138be565b610a626109d2366004615312565b60036020819052600091825260409091208054600182015460028301549383015460048401546005909401546001600160801b0380851696600160801b95869004600f0b9694959094600685900b94600160381b81046001600160a01b031694600160d81b820463ffffffff1694600160f81b90920460ff1693828416938190048316928083169291909104168c565b604080516001600160801b039d8e168152600f9c909c0b60208d01528b019990995260608a019790975260069590950b60808901526001600160a01b0390931660a088015263ffffffff90911660c0870152151560e08601528516610100850152841661012084015283166101408301529190911661016082015261018001610466565b6104be7f000000000000000000000000000000000000000000000000000000000000000081565b6104be7f000000000000000000000000000000000000000000000000000000000000000081565b6106ab610b4236600461542f565b6138f5565b610b6e7f000000000000000000000000000000000000000000000000000000000000000081565b60405160029190910b8152602001610466565b6104be7f000000000000000000000000000000000000000000000000000000000000000081565b610bcf7f000000000000000000000000000000000000000000000000000000000000000081565b60405162ffffff9091168152602001610466565b600a546104be906001600160a01b031681565b61048a610c04366004615202565b6139c0565b61048a610c17366004615290565b6139ce565b610566610c2a36600461522e565b613a16565b61048a610c3d36600461532d565b613aee565b6104be7f000000000000000000000000000000000000000000000000000000000000000081565b6106ab613c22565b61048a610c7f366004615290565b613c6d565b60055460009081906001600160a01b03163314610cbc5760405162461bcd60e51b8152600401610cb39061544f565b60405180910390fd5b60005460ff1615610cdf5760405162461bcd60e51b8152600401610cb390615472565b6000805460ff1916600117905560408051808201909152600f81526e2d2d2d4e65772054726164652d2d2d60881b6020820152610d1b90613d33565b6040805160c0810182526001546001600160a01b03808216835261ffff600160a01b83048116602080860182905260ff600160b01b8604811687890152600160b81b860481161515606080890191909152600160c01b87049091161515608080890191909152600160c81b90960490931660a08701528651610100810188528d81526000918101829052865190941696840196909652908201529192662386f26fc1000092909181018b610dd157600754610dd5565b6006545b8152600060208083018290526002546001600160801b03166040808501829052606094850191909152805193840181528284529083018290528281018290528301519293509091908b1390610e2a9085613d79565b8015610e3457508b155b15610e8457600183604001818151610e4c91906154ad565b9052506040830151610e5d90611d6c565b61ffff16606084018190526001805461ffff60a01b1916600160a01b830217905560208601525b825115801590610e98575089836040015114155b1561142357610ef460405180610100016040528060008152602001600061ffff1681526020016000151581526020016000815260200160008152602001600081526020016000815260200160006001600160801b031681525090565b604084015181526060840151610f0b90868f6138be565b60608201528c610f2b5760018460600151610f2691906154c5565b610f3b565b6060840151610f3b9060016154e8565b61ffff1660208201526060840151610f5590600390613d8d565b6001600160801b031660e082015281610f9257610f8d8160e001518560c00151610f7f919061550e565b6001600160801b0316613e9c565b610fb7565b610fb78160e001518560c00151610fa9919061550e565b6001600160801b0316613ed3565b83526040840151610fc8908e61371b565b60408085018290528501518451610fdf92906138a0565b60208401908152604085810151606084015187518351631922027560e11b815260048101939093526024830191909152604482015262ffffff7f000000000000000000000000000000000000000000000000000000000000000016606482015285516084820152915160a483015284015160c482015273__$7f722a1af7b4060aab6915c87e2e2208cb$__9063324404ea9060e401608060405180830381865af4158015611091573d6000803e3d6000fd5b505050506040513d601f19601f820116820180604052508101906110b59190615530565b60c085015260a08401526080830152604080860191909152805180820190915260088152675f5f5f5f5f5f5f5f60c01b60208201526110f390613d33565b61112160405180604001604052806008815260200167435552505249434560c01b8152508560400151613f0a565b61116d6040518060400160405280601e81526020017f74726164696e673b206c69717569646974792c20616d6f756e746c65667400008152508560c001516001600160801b0316613f0a565b83516111819061117c90615566565b613f4f565b6111cd6040518060400160405280601881526020017f6e65787470726963656c696d69742f706f696e746e65787400000000000000008152508260600151836020015161ffff16613f94565b6111f4604051806040016040528060018152602001606160f81b8152508460000151613f0a565b61122d6040518060400160405280600e81526020016d185b5bdd5b9d1a5b985b991bdd5d60921b81525082608001518360a00151613f94565b61125b6040518060400160405280600381526020016239963160e91b81525084602001518560400151613f94565b811561127d57608081015184518590611275908390615583565b905250611295565b6080810151845185906112919083906155c2565b9052505b8060a00151846020018181516112ab91906154ad565b90525060c08401516001600160801b0316156112f25760c080850151908201516112dd916001600160801b0316613fdb565b846080018181516112ee91906154ad565b9052505b80606001518460400151141561141d5760e08101516001600160801b031615611327576060840151611327906003908f613ff0565b6020810151600654600754600092611341926003926140e7565b9050866080015115801561136457508660a0015161ffff16826020015161ffff16145b156113925760208083015161ffff1660009081526008909152604090205461138f90600f0b82615603565b90505b604080518082018252600a81526964796e616d69634c697160b01b6020808301919091528481015161ffff166000908152600890915291909120546113e09190600f90810b9084900b613f94565b8d6113f1576113ee81615652565b90505b6113ff8560c001518261250b565b6001600160801b031660c086015250602081015161ffff1660608501525b50610e84565b611430836040015161413a565b600180546001600160a01b0319166001600160a01b03929092169190911790556020850151606084015161ffff91821691161461148d5760608301516001805461ffff909216600160a01b0261ffff60a01b199092169190911790555b8260c001516001600160801b03168360e001516001600160801b0316146114d35760c0830151600280546001600160801b0319166001600160801b039092169190911790555b8b156114e25760808301516006555b806115135761271083602001516114f991906154ad565b83516115048d615566565b61150e91906155c2565b611540565b8b61152e578251611524908c615583565b8360200151611540565b825161153a908c615583565b83602001515b6000805460ff19169055909e909d509b505050505050505050505050565b600080831561158f57841561158357611579838760006120ac565b90925090506115b3565b611579838760016120ac565b84156115a157611579838760016120ac565b6115ad838760006120ac565b90925090505b60095460405163a9059cbb60e01b81526001600160a01b039091169063a9059cbb906115e59086908690600401615679565b6020604051808303816000875af1158015611604573d6000803e3d6000fd5b505050506040513d601f19601f820116820180604052508101906116289190615692565b50600a546040516340c10f1960e01b81526001600160a01b03909116906340c10f199061165b9086908590600401615679565b600060405180830381600087803b15801561167557600080fd5b505af1158015611689573d6000803e3d6000fd5b5050505094509492505050565b6009546040516370a0823160e01b81523060048201526000916001600160a01b0316906370a0823190602401602060405180830381865afa1580156116df573d6000803e3d6000fd5b505050506040513d601f19601f8201168201806040525081019061170391906156af565b905090565b60055460009081906001600160a01b031633146117375760405162461bcd60e51b8152600401610cb39061544f565b60005460ff161561175a5760405162461bcd60e51b8152600401610cb390615472565b6000805460ff191660011781556117746004338989614155565b90508060050154856001600160801b03161161179957846001600160801b031661179f565b80600501545b92508060060154846001600160801b0316116117c457836001600160801b03166117ca565b80600601545b915082156117ec57828160050160008282546117e691906156c8565b90915550505b811561180c578181600601600082825461180691906156c8565b90915550505b506000805460ff1916905590969095509350505050565b6005546000906001600160a01b031633146118505760405162461bcd60e51b8152600401610cb39061544f565b60005460ff16156118735760405162461bcd60e51b8152600401610cb390615472565b6000805460ff191660019081179091555461ffff85169061189c906001600160a01b0316611d6c565b61ffff1614156118fa5760405162461bcd60e51b815260206004820152602360248201527f43616e277420726564756365206f7264657220666f722063757272656e74207460448201526269636b60e81b6064820152608401610cb3565b6000611916338661190c8160016154e8565b6004929190614155565b905061192e61192485615652565b82908560006141c0565b6119458561193b86615652565b6003919086614295565b600083611972577f0000000000000000000000000000000000000000000000000000000000000000611994565b7f00000000000000000000000000000000000000000000000000000000000000005b9050836119db576119d66119ac61089d8860016154e8565b6001600160a01b03166119be886130c8565b6001600160a01b0316876001600160801b0316613c6d565b611a16565b611a166119ec61089d8860016154e8565b6001600160a01b03166119fe886130c8565b6001600160a01b0316876001600160801b031661308a565b6000805460ff19169055979650505050505050565b600c54600d5460405163018b035160e01b8152600481018490526000602482018190526044820193909352606481019190915260016084820152819073__$7f722a1af7b4060aab6915c87e2e2208cb$__9063018b03519060a4016040805180830381865af4158015611aa2573d6000803e3d6000fd5b505050506040513d601f19601f82011682018060405250810190611ac691906156df565b50905082611adc82670de0b6b3a7640000614366565b611ae691906156c8565b9392505050565b60055460009081906001600160a01b03163314611b1c5760405162461bcd60e51b8152600401610cb39061544f565b60005460ff1615611b3f5760405162461bcd60e51b8152600401610cb390615472565b6000805460ff19166001179055828015611b7557506001546001600160a01b0316611b69866130c8565b6001600160a01b031611155b15611bb35760405162461bcd60e51b815260206004820152600e60248201526d61736b2062656c6f77207072696560901b6044820152606401610cb3565b82158015611bdd57506001546001600160a01b0316611bd1866130c8565b6001600160a01b031610155b15611c1c5760405162461bcd60e51b815260206004820152600f60248201526e626964732061626f7665207072696560881b6044820152606401610cb3565b6000611c2e878761190c8160016154e8565b9050611c3c6003878661437b565b9150611c4a818686856141c0565b611c576003878787614295565b600084611c84577f0000000000000000000000000000000000000000000000000000000000000000611ca6565b7f00000000000000000000000000000000000000000000000000000000000000005b905084611ced57611ce8611cbe61089d8960016154e8565b6001600160a01b0316611cd0896130c8565b6001600160a01b0316886001600160801b0316613c6d565b611d28565b611d28611cfe61089d8960016154e8565b6001600160a01b0316611d10896130c8565b6001600160a01b0316886001600160801b031661308a565b9350611d5560405180604001604052806009815260200168185b5bdd5b9d189a5960ba1b81525085613f0a565b50506000805460ff19169055909590945092505050565b6000670de0b6b3a7640000611d8883662386f26fc10000613fdb565b611d929190615719565b92915050565b6000808615611f1157611db033600188888888610c84565b90925090507f000000000000000000000000000000000000000000000000000000000000000015611ded57611de833828460016143d3565b6120a2565b6000611df7611696565b604051636d29069f60e11b8152909150339063da520d3e90611e219086908990899060040161572d565b600060405180830381600087803b158015611e3b57600080fd5b505af1158015611e4f573d6000803e3d6000fd5b505050508083611e5f91906154ad565b611e67611696565b1015611e9e5760405162461bcd60e51b81526020600482015260066024820152653130b622a92960d11b6044820152606401610cb3565b600a546001600160a01b03166340c10f19611ebb8688018861518c565b846040518363ffffffff1660e01b8152600401611ed9929190615679565b600060405180830381600087803b158015611ef357600080fd5b505af1158015611f07573d6000803e3d6000fd5b50505050506120a2565b611f2030600088888888610c84565b90925090508080611f3984670de0b6b3a7640000614366565b611f4391906156c8565b91507f000000000000000000000000000000000000000000000000000000000000000015611f7d57611f7833848460006143d3565b6120a0565b6000611f87611696565b604051636d29069f60e11b8152909150339063da520d3e90611fb19086908a908a9060040161572d565b600060405180830381600087803b158015611fcb57600080fd5b505af1158015611fdf573d6000803e3d6000fd5b505050508083611fef91906154ad565b611ff7611696565b101561202e5760405162461bcd60e51b81526020600482015260066024820152653130b622a92960d11b6044820152606401610cb3565b600b546001600160a01b03166340c10f1961204b8789018961518c565b866040518363ffffffff1660e01b8152600401612069929190615679565b600060405180830381600087803b15801561208357600080fd5b505af1158015612097573d6000803e3d6000fd5b50505050819350505b505b9550959350505050565b60055460009081906001600160a01b031633146120db5760405162461bcd60e51b8152600401610cb39061544f565b60005460ff16156120fe5760405162461bcd60e51b8152600401610cb390615472565b6000805460ff1916600190811782556040805160c08101825282546001600160a01b038116825261ffff600160a01b820481166020840152600160b01b820460ff90811694840194909452600160b81b8204841615156060840152600160c01b820490931615156080830152600160c81b900490911660a0820152919061218e908890889061190c9082906154e8565b60015490915061ffff8716906121ac906001600160a01b0316611d6c565b61ffff16146121f15760405162461bcd60e51b81526020600482015260116024820152704e6f742063757272656e7420707269636560781b6044820152606401610cb3565b600085612212576001820154600160801b90046001600160801b0316612221565b60018201546001600160801b03165b905061223961222f82615652565b83908860006141c0565b6122508761224683615652565b6003919089614295565b61228761226161089d8960016154e8565b6001600160a01b031684600001516001600160a01b0316836001600160801b031661308a565b93506122bb83600001516001600160a01b03166122a3896130c8565b6001600160a01b0316836001600160801b0316613c6d565b6000805460ff19169055989397509295505050505050565b6000336001600160a01b037f0000000000000000000000000000000000000000000000000000000000000000161461233c5760405162461bcd60e51b815260206004820152600c60248201526b1d5b985d5d1a1bdc9a5e995960a21b6044820152606401610cb3565b600061235c61234b85876154ad565b612356886002615763565b90613fdb565b9050600061236e8261235688886156c8565b905073__$7f722a1af7b4060aab6915c87e2e2208cb$__63018b03516123948987614366565b6040516001600160e01b031960e084901b16815260048101919091526000602482015260448101849052606481018990526001608482015260a4016040805180830381865af41580156123eb573d6000803e3d6000fd5b505050506040513d601f19601f8201168201806040525081019061240f91906156df565b50600f55600e869055866124238387614366565b61242d8987614366565b600f5461243a9089614366565b61244491906156c8565b61244e91906154ad565b61245891906156c8565b925061249161246f670de0b6b3a764000083613fdb565b600280546001600160801b0319166001600160801b0392909216919091179055565b61249c600e54614525565b6124d36124a886611d6c565b61ffff16600090815260086020526040902080546001600160801b03191660016001607f1b03179055565b6125016124df86611d6c565b6001805461ffff909216600160c81b0261ffff60c81b19909216919091179055565b5050949350505050565b60008082600f0b1215612578576001600160801b03831661252b83615652565b6125359085615782565b9150816001600160801b0316106125735760405162461bcd60e51b81526020600482015260026024820152614c5360f01b6044820152606401610cb3565b611d92565b6001600160801b03831661258c838561550e565b9150816001600160801b03161015611d925760405162461bcd60e51b81526020600482015260026024820152614c4160f01b6044820152606401610cb3565b6005546000906001600160a01b031633146125f85760405162461bcd60e51b8152600401610cb39061544f565b60005460ff161561261b5760405162461bcd60e51b8152600401610cb390615472565b6000805460ff19166001908117825561263d908690869061190c9082906154e8565b9050600061264d6003868661437b565b90506000846126665782546001600160801b0316612679565b8254600160801b90046001600160801b03165b9050806001600160801b0316826001600160801b0316116126d25760405162461bcd60e51b8152602060048201526013602482015272141bdcda5d1a5bdb881b9bdd08199a5b1b1959606a1b6044820152606401610cb3565b6000856126f3576001840154600160801b90046001600160801b0316612702565b60018401546001600160801b03165b905085156127345761272d61271b61089d8960016154e8565b6001600160a01b03166122a3896130c8565b9450612772565b61276f61274561089d8960016154e8565b6001600160a01b0316612757896130c8565b6001600160a01b0316836001600160801b031661308a565b94505b61278861277e82615652565b85908860006141c0565b50506000805460ff191690555090949350505050565b6005546001600160a01b031633146127c85760405162461bcd60e51b8152600401610cb39061544f565b600580546001600160a01b0319166001600160a01b0392909216919091179055565b6000806127fb338888888888613773565b6009546040516323b872dd60e01b81529294509092506001600160a01b0316906323b872dd90612833903390309087906004016157a2565b6020604051808303816000875af1158015612852573d6000803e3d6000fd5b505050506040513d601f19601f820116820180604052508101906128769190615692565b50600a54604051632770a7eb60e21b81526001600160a01b0390911690639dc29fac906128a99033908590600401615679565b600060405180830381600087803b1580156128c357600080fd5b505af11580156128d7573d6000803e3d6000fd5b5050505050505050505050565b60006128f1600384613d8d565b6001600160801b03169392505050565b60008086156129695761291933600088888888610c84565b90925090507f00000000000000000000000000000000000000000000000000000000000000001561295157611de8338284600161457b565b611de86129608486018661518c565b8284600161457b565b61297833600188888888610c84565b9092509050818061299183670de0b6b3a7640000614366565b61299b91906156c8565b92507f0000000000000000000000000000000000000000000000000000000000000000156129d057611f78338484600061457b565b6129e86129df8587018761518c565b8484600061457b565b809150509550959350505050565b600080612a0533888888612f85565b91509150612a1d3388886001600160801b0380611708565b505060095460405163a9059cbb60e01b81526001600160a01b039091169063a9059cbb90612a519033908690600401615679565b6020604051808303816000875af1158015612a70573d6000803e3d6000fd5b505050506040513d601f19601f82011682018060405250810190612a949190615692565b50600a546040516340c10f1960e01b81526001600160a01b03909116906340c10f19906128a99033908590600401615679565b6000808315612b8f57612b0e8387612b07612ae661089d8360016154e8565b6001600160a01b0316612af88b6130c8565b6001600160a01b03168a6139ce565b6000611aed565b6009546040516323b872dd60e01b81529294509092506001600160a01b0316906323b872dd90612b46908690309087906004016157a2565b6020604051808303816000875af1158015612b65573d6000803e3d6000fd5b505050506040513d601f19601f82011682018060405250810190612b899190615692565b50612c8c565b612bcd8387612bc6612ba561089d8360016154e8565b6001600160a01b0316612bb78b6130c8565b6001600160a01b03168a61386a565b6001611aed565b90925090506000612c06612be561089d8960016154e8565b6001600160a01b0316612bf7896130c8565b6001600160a01b031688613c6d565b612c1090846156c8565b6009546040516323b872dd60e01b81529192506001600160a01b0316906323b872dd90612c45908790309086906004016157a2565b6020604051808303816000875af1158015612c64573d6000803e3d6000fd5b505050506040513d601f19601f82011682018060405250810190612c889190615692565b5091505b94509492505050565b6005546001600160a01b03163314612cbf5760405162461bcd60e51b8152600401610cb3906157c6565b600a546040516340c10f1960e01b81526001600160a01b03909116906340c10f1990612cf19085908590600401615679565b600060405180830381600087803b158015612d0b57600080fd5b505af1158015612d1f573d6000803e3d6000fd5b505050508060106000828254612d3591906154ad565b90915550505050565b600080612d51858561190c8160016154e8565b90506000612d616003868661437b565b9050600084612d7a5782546001600160801b0316612d8d565b8254600160801b90046001600160801b03165b9050600085612db0576001840154600160801b90046001600160801b0316612dbf565b60018401546001600160801b03165b90506000816001600160801b0316118015612deb5750816001600160801b0316836001600160801b0316115b98975050505050505050565b336001600160a01b037f00000000000000000000000000000000000000000000000000000000000000001614612e5e5760405162461bcd60e51b815260206004820152600c60248201526b1d5b985d5d1a1bdc9a5e995960a21b6044820152606401610cb3565b670de0b6b3a7640000612e7f612e7484866154ad565b612356866002615763565b612e8991906156c8565b600d55612eae612e9983856154ad565b600d5461235690670de0b6b3a76400006156c8565b600c5573__$7f722a1af7b4060aab6915c87e2e2208cb$__63018b0351612ed58584614366565b600c54600d546040516001600160e01b031960e086901b168152600481019390935260006024840152604483019190915260648201526001608482015260a4016040805180830381865af4158015612f31573d6000803e3d6000fd5b505050506040513d601f19601f82011682018060405250810190612f5591906156df565b600e55600f55600c54612f759061246f90670de0b6b3a764000090613fdb565b612f80600e54614525565b505050565b60055460009081906001600160a01b03163314612fb45760405162461bcd60e51b8152600401610cb39061544f565b60005460ff1615612fd75760405162461bcd60e51b8152600401610cb390615472565b6000805460ff19166001178155604080516080810182526001600160a01b038916815261ffff80891660208301528716918101919091528190819061302d906060810161302389615652565b600f0b9052614681565b92509250925060008211806130425750600081115b156130725781836005015461305791906154ad565b81846006015461306791906154ad565b600685015560058401555b6000805460ff19169055909890975095505050505050565b6000828410156130ac5760405162461bcd60e51b8152600401610cb3906157e8565b6130c0826130ba85876156c8565b90614366565b949350505050565b6000611d926130e2662386f26fc1000061ffff8516615763565b61413a565b336001600160a01b037f0000000000000000000000000000000000000000000000000000000000000000161461312f5760405162461bcd60e51b8152600401610cb3906157c6565b600280546001600160801b03191690556131576001805460ff60c01b1916600160c01b179055565b565b60006130c08261316985876156c8565b90614919565b811561321957600061319c8286613195613190612ae661089d8460016154e8565b61492e565b6000611823565b60095460405163a9059cbb60e01b81529192506001600160a01b03169063a9059cbb906131cf9085908590600401615679565b6020604051808303816000875af11580156131ee573d6000803e3d6000fd5b505050506040513d601f19601f820116820180604052508101906132129190615692565b505061331a565b600061325061319061322f61089d8860016154e8565b6001600160a01b0316613241886130c8565b6001600160a01b03168761386a565b905061325f8286836001611823565b506009546001600160a01b031663a9059cbb836132ad61328361089d8a60016154e8565b6001600160a01b03166132958a6130c8565b6001600160a01b0316866001600160801b0316613c6d565b6132b790886156c8565b6040518363ffffffff1660e01b81526004016132d4929190615679565b6020604051808303816000875af11580156132f3573d6000803e3d6000fd5b505050506040513d601f19601f820116820180604052508101906133179190615692565b50505b50505050565b336001600160a01b037f000000000000000000000000000000000000000000000000000000000000000016146133685760405162461bcd60e51b8152600401610cb3906157c6565b6000198114156133ec576009546001600160a01b031663a9059cbb8361338c611696565b6040518363ffffffff1660e01b81526004016133a9929190615679565b6020604051808303816000875af11580156133c8573d6000803e3d6000fd5b505050506040513d601f19601f82011682018060405250810190612f809190615692565b60095460405163a9059cbb60e01b81526001600160a01b039091169063a9059cbb906133a99085908590600401615679565b5050565b60008161345257613439848461190c8160016154e8565b60010154600160801b90046001600160801b03166130c0565b613462848461190c8160016154e8565b600101546001600160801b0316949350505050565b811561350a57600061349f8286613498613190612ba561089d8460016154e8565b6001611823565b600a546040516340c10f1960e01b81529192506001600160a01b0316906340c10f19906134d29085908590600401615679565b600060405180830381600087803b1580156134ec57600080fd5b505af1158015613500573d6000803e3d6000fd5b505050505061331a565b613544818561319561319061352361089d8460016154e8565b6001600160a01b03166135358a6130c8565b6001600160a01b03168961386a565b50600b546040516340c10f1960e01b81526001600160a01b03909116906340c10f19906135779084908790600401615679565b600060405180830381600087803b15801561359157600080fd5b505af11580156135a5573d6000803e3d6000fd5b5050505050505050565b6000821561363f576135c3828560016125cb565b60095460405163a9059cbb60e01b81529192506001600160a01b03169063a9059cbb906135f69085908590600401615679565b6020604051808303816000875af1158015613615573d6000803e3d6000fd5b505050506040513d601f19601f820116820180604052508101906136399190615692565b50611ae6565b600061364d83866000613422565b905061365b838660006125cb565b915061368061366e61089d8760016154e8565b6001600160a01b03166122a3876130c8565b61369283670de0b6b3a7640000614366565b61369c91906156c8565b60095460405163a9059cbb60e01b81529193506001600160a01b03169063a9059cbb906136cf9086908690600401615679565b6020604051808303816000875af11580156136ee573d6000803e3d6000fd5b505050506040513d601f19601f820116820180604052508101906137129190615692565b50509392505050565b60008061372784611d6c565b905082158015613742575061374061ffff82168561580b565b155b6137545761374f816130c8565b613762565b61376261089d6001836154c5565b6001600160a01b0316949350505050565b60055460009081906001600160a01b031633146137a25760405162461bcd60e51b8152600401610cb39061544f565b60005460ff16156137c55760405162461bcd60e51b8152600401610cb390615472565b6000805460ff191660011790556001600160801b0385166138135760405162461bcd60e51b81526020600482015260086024820152670c08185b5bdd5b9d60c21b6044820152606401610cb3565b61385060405180608001604052808a6001600160a01b031681526020018961ffff1681526020018861ffff16815260200187600f0b815250614681565b6000805460ff19169055909a909950975050505050505050565b60008284101561388c5760405162461bcd60e51b8152600401610cb3906157e8565b6130c061389984866156c8565b8390613fdb565b6000816138b05750600019611ae6565b6130c08261235685876156c8565b600081156138e757826138d28560016154e8565b61ffff166138e09190615763565b9050611ae6565b6138e08361ffff8616615763565b6005546001600160a01b0316331461391f5760405162461bcd60e51b8152600401610cb3906157c6565b801561398e57600a54604051632770a7eb60e21b81526001600160a01b0390911690639dc29fac906139579086908690600401615679565b600060405180830381600087803b15801561397157600080fd5b505af1158015613985573d6000803e3d6000fd5b50505050505050565b600b54604051632770a7eb60e21b81526001600160a01b0390911690639dc29fac906139579086908690600401615679565b60006128f16003848461437b565b6000828410156139f05760405162461bcd60e51b8152600401610cb3906157e8565b6130c06138996002613a0286886154ad565b613a0c9190615719565b6130ba86886156c8565b6000808315613aa257613a358387612bc6612ba561089d8360016154e8565b600a54604051632770a7eb60e21b81529294509092506001600160a01b031690639dc29fac90613a6b9086908690600401615679565b600060405180830381600087803b158015613a8557600080fd5b505af1158015613a99573d6000803e3d6000fd5b50505050612c8c565b613ab88387612b07612ba561089d8360016154e8565b600b54604051632770a7eb60e21b81529294509092506001600160a01b031690639dc29fac9061165b9086908990600401615679565b60008215613b6f576000613b04838660006125cb565b600a546040516340c10f1960e01b81529192506001600160a01b0316906340c10f1990613b379086908590600401615679565b600060405180830381600087803b158015613b5157600080fd5b505af1158015613b65573d6000803e3d6000fd5b5050505050611ae6565b600b546001600160a01b03166340c10f1983613bc7613b9261089d8960016154e8565b6001600160a01b0316613ba4896130c8565b6001600160a01b0316613bb9338b6001613422565b6001600160801b031661308a565b6040518363ffffffff1660e01b8152600401613be4929190615679565b600060405180830381600087803b158015613bfe57600080fd5b505af1158015613c12573d6000803e3d6000fd5b505050506130c0828560016125cb565b6005546001600160a01b03163314613c4c5760405162461bcd60e51b8152600401610cb39061544f565b6001805460ff60b81b198116600160b81b9182900460ff1615909102179055565b600082841015613c8f5760405162461bcd60e51b8152600401610cb3906157e8565b73__$7f722a1af7b4060aab6915c87e2e2208cb$__636ca35e9e613cb486868661308a565b6000613cbf86613ed3565b6040516001600160e01b031960e086901b16815260048101939093526024830191909152604482015260648101869052608401602060405180830381865af4158015613d0f573d6000803e3d6000fd5b505050506040513d601f19601f820116820180604052508101906130c091906156af565b613d7681604051602401613d47919061586c565b60408051601f198184030181529190526020810180516001600160e01b031663104c13eb60e21b179052614944565b50565b6000613d85828461580b565b159392505050565b61ffff811660009081526020838152604080832081516101808101835281546001600160801b038082168352600160801b91829004600f0b95830195909552600183015493820193909352600282015460608201526003820154600681900b6080830152600160381b81046001600160a01b031660a0830152600160d81b810463ffffffff1660c0830152600160f81b900460ff16151560e08201526004820154808516610100830181905290849004851661012083015260059092015480851661014083015292909204909216610160820152901580613e7a57506101208101516001600160801b0316155b613e8657613e8661587f565b8061012001518161010001516130c0919061550e565b60008115613eb657612573670de0b6b3a764000083614919565b611d92613ec48360016154ad565b670de0b6b3a764000090614919565b60008115613eed57612573670de0b6b3a764000083613fdb565b611d92613efb8360016154ad565b670de0b6b3a764000090613fdb565b61341e8282604051602401613f20929190615895565b60408051601f198184030181529190526020810180516001600160e01b03166309710a9d60e41b179052614944565b613d7681604051602401613f6591815260200190565b60408051601f198184030181529190526020810180516001600160e01b031663f5b1bba960e01b179052614944565b612f80838383604051602401613fac939291906158b7565b60408051601f198184030181529190526020810180516001600160e01b031663969cdd0360e01b179052614944565b6000611ae683670de0b6b3a764000084614965565b61ffff82166000908152602084905260409020811561408c576004810180546001600160801b03191690556005810180546001600160801b0316906000614036836158dc565b91906101000a8154816001600160801b0302191690836001600160801b0316021790555050614087604051806040016040528060068152602001657469636b3f3f60d01b8152508461ffff16613f0a565b61331a565b6004810180546001600160801b03908116909155600582018054600160801b90049091169060106140bc836158dc565b91906101000a8154816001600160801b0302191690836001600160801b031602179055505050505050565b61ffff8316600090815260208590526040902080546001820154600160801b909104600f0b919061411890856156c8565b6001820155600281015461412c90846156c8565b600290910155949350505050565b806001600160a01b038116811461415057600080fd5b919050565b6040805160609490941b6bffffffffffffffffffffffff191660208086019190915260f093841b6001600160f01b031990811660348701529290931b909116603684015280516018818503018152603890930181528251928201929092206000908152929052902090565b811561422a5760018401546141de906001600160801b03168461250b565b6001850180546001600160801b0319166001600160801b03929092169190911790556000600f84900b13156140875783546001600160801b03808316600160801b02911617845561331a565b600184015461424990600160801b90046001600160801b03168461250b565b6001850180546001600160801b03928316600160801b0292169190911790556000600f84900b131561331a5783546001600160801b0319166001600160801b0391909116179092555050565b80156142fe5761ffff83166000908152602085905260409020600401546142c5906001600160801b03168361250b565b61ffff8416600090815260208690526040902060040180546001600160801b0319166001600160801b039290921691909117905561331a565b61ffff831660009081526020859052604090206004015461432f90600160801b90046001600160801b03168361250b565b61ffff8416600090815260208690526040902060040180546001600160801b03928316600160801b02921691909117905550505050565b6000611ae68383670de0b6b3a7640000614965565b6000816143ae5761ffff8316600090815260208590526040902060050154600160801b90046001600160801b03166130c0565b505061ffff16600090815260209190915260409020600501546001600160801b031690565b801561444257600a546040516340c10f1960e01b81526001600160a01b03909116906340c10f199061440b9087908790600401615679565b600060405180830381600087803b15801561442557600080fd5b505af1158015614439573d6000803e3d6000fd5b505050506144a7565b600b546040516340c10f1960e01b81526001600160a01b03909116906340c10f19906144749087908790600401615679565b600060405180830381600087803b15801561448e57600080fd5b505af11580156144a2573d6000803e3d6000fd5b505050505b6009546040516323b872dd60e01b81526001600160a01b03909116906323b872dd906144db908790309087906004016157a2565b6020604051808303816000875af11580156144fa573d6000803e3d6000fd5b505050506040513d601f19601f8201168201806040525081019061451e9190615692565b5050505050565b61452e81611d6c565b6001805461ffff92909216600160a01b0261ffff60a01b199092169190911790556145588161413a565b600180546001600160a01b0319166001600160a01b039290921691909117905550565b80156145ea57600a54604051632770a7eb60e21b81526001600160a01b0390911690639dc29fac906145b39087908690600401615679565b600060405180830381600087803b1580156145cd57600080fd5b505af11580156145e1573d6000803e3d6000fd5b5050505061464f565b600b54604051632770a7eb60e21b81526001600160a01b0390911690639dc29fac9061461c9087908690600401615679565b600060405180830381600087803b15801561463657600080fd5b505af115801561464a573d6000803e3d6000fd5b505050505b60095460405163a9059cbb60e01b81526001600160a01b039091169063a9059cbb906144db9087908790600401615679565b6040805160c0810182526001546001600160a01b038116825261ffff600160a01b82048116602080850182905260ff600160b01b8504811686880152600160b81b850481161515606080880191909152600160c01b860490911615156080870152600160c81b90940490921660a0850152855191860151948601519286015160009586958695909461471594909390614984565b93508460600151600f0b60001461491157846020015161ffff16816020015161ffff1610156147a7576147a061474e86604001516130c8565b6001600160a01b031661476487602001516130c8565b6001600160a01b031660008860600151600f0b121561479357876060015161478b90615652565b600f0b61308a565b8760600151600f0b61308a565b9150614911565b846040015161ffff16816020015161ffff1610156148b45760025460408601516001600160801b0390911690614822906147e0906130c8565b6001600160a01b031683600001516001600160a01b031660008960600151600f0b121561481557886060015161478b90615652565b8860600151600f0b61308a565b925061487e82600001516001600160a01b031661484288602001516130c8565b6001600160a01b031660008960600151600f0b121561487157886060015161486990615652565b600f0b613c6d565b8860600151600f0b613c6d565b935061488e81876060015161250b565b600280546001600160801b0319166001600160801b039290921691909117905550614911565b61490e6148c486604001516130c8565b6001600160a01b03166148da87602001516130c8565b6001600160a01b031660008860600151600f0b121561490157876060015161486990615652565b8760600151600f0b613c6d565b92505b509193909250565b6000611ae683670de0b6b3a764000084614a10565b806001600160801b038116811461415057600080fd5b80516a636f6e736f6c652e6c6f67602083016000808483855afa5050505050565b82820281151584158583048514171661497d57600080fd5b0492915050565b60006149936004878787614155565b60065460075491925090600f85900b156149e0576006546007546149c2916003918a9188918a91906000614a3e565b506006546007546149de91600391899188918a91906001614a3e565b505b6000806149f260038a8a898888614b45565b9092509050614a0385888484614c31565b5050505095945050505050565b828202811515841585830485141716614a2857600080fd5b6001826001830304018115150290509392505050565b61ffff8616600090815260208890526040812080546001600160801b031682614a67828961250b565b6001600160801b038381161590821615811415955090915015614aba578861ffff168a61ffff1611614aa25760018301879055600283018690555b6003830180546001600160f81b0316600160f81b1790555b82546001600160801b0319166001600160801b03821617835584614b00578254614afb90614af690600f8b810b91600160801b9004900b6155c2565b614e21565b614b1e565b8254614b1e90614af690600f8b810b91600160801b9004900b615583565b83546001600160801b03918216600160801b02911617909255509098975050505050505050565b61ffff80861660008181526020899052604080822088851683529082209193849391929184918291908a1610614b8657505060018201546002830154614baa565b6001840154614b9590896156c8565b9150836002015487614ba791906156c8565b90505b6000808b61ffff168b61ffff161015614bce57505060018301546002840154614bf2565b6001850154614bdd908b6156c8565b9150846002015489614bef91906156c8565b90505b81614bfd858c6156c8565b614c0791906156c8565b975080614c14848b6156c8565b614c1e91906156c8565b9650505050505050965096945050505050565b604080516101208101825285546001600160801b038082168352600160801b918290048116602084015260018801548082169484019490945292048216606082015260028601549091166080820152600385015460a0820152600485015460c0820152600585015460e082015260068501546101008201526000600f85900b614d0157600082608001516001600160801b031611614cf65760405162461bcd60e51b815260206004820152600260248201526104e560f41b6044820152606401610cb3565b506080810151614d12565b614d0f82608001518661250b565b90505b6000614d4583608001516001600160801b0316670de0b6b3a76400008560a0015188614d3e91906156c8565b9190614965565b90506000614d7384608001516001600160801b0316670de0b6b3a76400008660c0015188614d3e91906156c8565b905086600f0b600014614d9e576002880180546001600160801b0319166001600160801b0385161790555b60038801869055600488018590556001600160801b038216151580614dcc57506000816001600160801b0316115b156135a557816001600160801b0316886005016000828254614dee91906154ad565b92505081905550806001600160801b0316886006016000828254614e1291906154ad565b90915550505050505050505050565b80600f81900b811461415057600080fd5b6001600160a01b0381168114613d7657600080fd5b8015158114613d7657600080fd5b60008083601f840112614e6757600080fd5b50813567ffffffffffffffff811115614e7f57600080fd5b602083019150836020828501011115614e9757600080fd5b9250929050565b60008060008060008060a08789031215614eb757600080fd5b8635614ec281614e32565b95506020870135614ed281614e47565b94506040870135935060608701359250608087013567ffffffffffffffff811115614efc57600080fd5b614f0889828a01614e55565b979a9699509497509295939492505050565b803561ffff8116811461415057600080fd5b60008060008060808587031215614f4257600080fd5b614f4b85614f1a565b93506020850135614f5b81614e47565b92506040850135614f6b81614e47565b91506060850135614f7b81614e32565b939692955090935050565b80356001600160801b038116811461415057600080fd5b600080600080600060a08688031215614fb557600080fd5b8535614fc081614e32565b9450614fce60208701614f1a565b9350614fdc60408701614f1a565b9250614fea60608701614f86565b9150614ff860808701614f86565b90509295509295909350565b6000806000806080858703121561501a57600080fd5b843561502581614e32565b935061503360208601614f1a565b925061504160408601614f86565b91506060850135614f7b81614e47565b60006020828403121561506357600080fd5b5035919050565b60008060008060006080868803121561508257600080fd5b853561508d81614e47565b94506020860135935060408601359250606086013567ffffffffffffffff8111156150b757600080fd5b6150c388828901614e55565b969995985093965092949392505050565b6000806000606084860312156150e957600080fd5b83356150f481614e32565b925061510260208501614f1a565b9150604084013561511281614e47565b809150509250925092565b6000806000806080858703121561513357600080fd5b5050823594602084013594506040840135936060013592509050565b6000806040838503121561516257600080fd5b61516b83614f86565b9150602083013580600f0b811461518157600080fd5b809150509250929050565b60006020828403121561519e57600080fd5b8135611ae681614e32565b6000806000806000608086880312156151c157600080fd5b6151ca86614f1a565b94506151d860208701614f1a565b93506151e660408701614f86565b9250606086013567ffffffffffffffff8111156150b757600080fd5b6000806040838503121561521557600080fd5b61521e83614f1a565b9150602083013561518181614e47565b6000806000806080858703121561524457600080fd5b61524d85614f1a565b9350602085013592506040850135614f6b81614e47565b6000806040838503121561527757600080fd5b823561528281614e32565b946020939093013593505050565b6000806000606084860312156152a557600080fd5b505081359360208301359350604090920135919050565b600080600080608085870312156152d257600080fd5b84356152dd81614e32565b93506152eb60208601614f1a565b92506152f960408601614f1a565b915061530760608601614f86565b905092959194509250565b60006020828403121561532457600080fd5b611ae682614f1a565b60008060006060848603121561534257600080fd5b61534b84614f1a565b9250602084013561535b81614e47565b9150604084013561511281614e32565b6000806040838503121561537e57600080fd5b82359150602083013561518181614e47565b60008060008060008060a087890312156153a957600080fd5b86356153b481614e32565b95506153c260208801614f1a565b94506153d060408801614f1a565b93506153de60608801614f86565b9250608087013567ffffffffffffffff811115614efc57600080fd5b60008060006060848603121561540f57600080fd5b61541884614f1a565b925060208401359150604084013561511281614e47565b60008060006060848603121561544457600080fd5b833561541881614e32565b6020808252600990820152684e6f7420456e74727960b81b604082015260600190565b6020808252600b908201526a4552525f5245454e54525960a81b604082015260600190565b634e487b7160e01b600052601160045260246000fd5b600082198211156154c0576154c0615497565b500190565b600061ffff838116908316818110156154e0576154e0615497565b039392505050565b600061ffff80831681851680830382111561550557615505615497565b01949350505050565b60006001600160801b0380831681851680830382111561550557615505615497565b6000806000806080858703121561554657600080fd5b505082516020840151604085015160609095015191969095509092509050565b6000600160ff1b82141561557c5761557c615497565b5060000390565b60008083128015600160ff1b8501841216156155a1576155a1615497565b6001600160ff1b03840183138116156155bc576155bc615497565b50500390565b600080821280156001600160ff1b03849003851316156155e4576155e4615497565b600160ff1b83900384128116156155fd576155fd615497565b50500190565b600081600f0b83600f0b600082128260016001607f1b030382138115161561562d5761562d615497565b8260016001607f1b031903821281161561564957615649615497565b50019392505050565b600081600f0b60016001607f1b031981141561567057615670615497565b60000392915050565b6001600160a01b03929092168252602082015260400190565b6000602082840312156156a457600080fd5b8151611ae681614e47565b6000602082840312156156c157600080fd5b5051919050565b6000828210156156da576156da615497565b500390565b600080604083850312156156f257600080fd5b505080516020909101519092909150565b634e487b7160e01b600052601260045260246000fd5b60008261572857615728615703565b500490565b83815260406020820152816040820152818360608301376000818301606090810191909152601f909201601f1916010192915050565b600081600019048311821515161561577d5761577d615497565b500290565b60006001600160801b03838116908316818110156154e0576154e0615497565b6001600160a01b039384168152919092166020820152604081019190915260600190565b60208082526008908201526732b73a393ca2a92960c11b604082015260600190565b602080825260099082015268383934b1b29022a92960b91b604082015260600190565b60008261581a5761581a615703565b500690565b6000815180845260005b8181101561584557602081850181015186830182015201615829565b81811115615857576000602083870101525b50601f01601f19169290920160200192915050565b602081526000611ae6602083018461581f565b634e487b7160e01b600052600160045260246000fd5b6040815260006158a8604083018561581f565b90508260208301529392505050565b6060815260006158ca606083018661581f565b60208301949094525060400152919050565b60006001600160801b03808316818114156158f9576158f9615497565b600101939250505056fea26469706673582212205df39d00f814999ac63913012f71ddb3bb0a008f9e197cc8436e6b102a1032df64736f6c634300080c0033a264697066735822122007a740e815947da9043b7998d6711d27e25d64403e00e3f46cef16922d2a73a764736f6c634300080c0033",
  "libraries": {
    "LinearCurve": "0x0C578ca279f7ad3E64729f2679658F03cbb30DFe"
  },
  "devdoc": {
    "kind": "dev",
    "methods": {},
    "version": 1
  },
  "userdoc": {
    "kind": "user",
    "methods": {
      "newPool(address,address)": {
        "notice": "param base is the collateral used in pool "
      }
    },
    "version": 1
  },
  "storageLayout": {
    "storage": [],
    "types": null
  }
}