{
  "address": "0xB40E8b1468698cf308CD50e8DAD4Fe3e391C88e8",
  "abi": [
    {
      "inputs": [
        {
          "internalType": "address",
          "name": "_controller",
          "type": "address"
        }
      ],
      "stateMutability": "nonpayable",
      "type": "constructor"
    },
    {
      "inputs": [
        {
          "internalType": "address",
          "name": "v",
          "type": "address"
        }
      ],
      "name": "isVault",
      "outputs": [
        {
          "internalType": "bool",
          "name": "",
          "type": "bool"
        }
      ],
      "stateMutability": "view",
      "type": "function"
    },
    {
      "inputs": [
        {
          "internalType": "address",
          "name": "underlying",
          "type": "address"
        },
        {
          "internalType": "address",
          "name": "_controller",
          "type": "address"
        },
        {
          "internalType": "bool",
          "name": "_onlyVerified",
          "type": "bool"
        },
        {
          "internalType": "uint256",
          "name": "_r",
          "type": "uint256"
        },
        {
          "internalType": "uint256",
          "name": "_asset_limit",
          "type": "uint256"
        },
        {
          "internalType": "uint256",
          "name": "_total_asset_limit",
          "type": "uint256"
        },
        {
          "components": [
            {
              "internalType": "uint256",
              "name": "N",
              "type": "uint256"
            },
            {
              "internalType": "uint256",
              "name": "sigma",
              "type": "uint256"
            },
            {
              "internalType": "uint256",
              "name": "alpha",
              "type": "uint256"
            },
            {
              "internalType": "uint256",
              "name": "omega",
              "type": "uint256"
            },
            {
              "internalType": "uint256",
              "name": "delta",
              "type": "uint256"
            },
            {
              "internalType": "uint256",
              "name": "r",
              "type": "uint256"
            },
            {
              "internalType": "uint256",
              "name": "s",
              "type": "uint256"
            },
            {
              "internalType": "uint256",
              "name": "steak",
              "type": "uint256"
            }
          ],
          "internalType": "struct MarketManager.MarketParameters",
          "name": "default_params",
          "type": "tuple"
        }
      ],
      "name": "newVault",
      "outputs": [
        {
          "internalType": "contract Vault",
          "name": "",
          "type": "address"
        },
        {
          "internalType": "uint256",
          "name": "",
          "type": "uint256"
        }
      ],
      "stateMutability": "nonpayable",
      "type": "function"
    },
    {
      "inputs": [],
      "name": "numVaults",
      "outputs": [
        {
          "internalType": "uint256",
          "name": "",
          "type": "uint256"
        }
      ],
      "stateMutability": "view",
      "type": "function"
    }
  ],
  "transactionHash": "0xd81a0a72bcc9174eff3dc2224ef9c3a1e518fecf6d7e392ec7ca19a7497b559a",
  "args": [
    "0xda96D4256411235c2B61028c689169DcB95105Df"
  ],
  "numDeployments": 2,
  "solcInputHash": "069373f0b7cc8f3ecfd638e09a965759",
  "bytecode": "0x608060405234801561001057600080fd5b50604051615dc4380380615dc483398101604081905261002f91610062565b60008054336001600160a01b031991821617909155600380549091166001600160a01b0392909216919091179055610092565b60006020828403121561007457600080fd5b81516001600160a01b038116811461008b57600080fd5b9392505050565b615d23806100a16000396000f3fe60806040523480156200001157600080fd5b5060043610620000465760003560e01c8063264a6208146200004b578063652b9b411462000068578063da33133314620000a8575b600080fd5b6200005560025481565b6040519081526020015b60405180910390f35b62000097620000793660046200030a565b6001600160a01b031660009081526001602052604090205460ff1690565b60405190151581526020016200005f565b620000bf620000b93660046200032f565b620000df565b604080516001600160a01b0390931683526020830191909152016200005f565b60035460009081906001600160a01b03163314806200010857506000546001600160a01b031633145b806200011357503330145b620001595760405162461bcd60e51b815260206004820152601160248201527034b9903737ba1031b7b73a3937b63632b960791b60448201526064015b60405180910390fd5b662386f26fc1000083604001511015620001a85760405162461bcd60e51b815260206004820152600f60248201526e105b1c1a18481d1bdbc81cdb585b1b608a1b604482015260640162000150565b6000898960008054906101000a90046001600160a01b03168a8a8a8a8a604051620001d390620002df565b6001600160a01b0398891681529688166020808901919091529590971660408088019190915293151560608088019190915260808088019490945260a08088019390935260c080880192909252875160e0808901919091529588015161010088015284880151610120880152870151610140870152918601516101608601528501516101808501528401516101a08401529201516101c08201529051908190036101e001906000f0801580156200028e573d6000803e3d6000fd5b506001600160a01b03811660009081526001602081905260408220805460ff191690911790556002805492935090620002c78362000444565b9091555050600254909a909950975050505050505050565b61587f806200046f83390190565b80356001600160a01b03811681146200030557600080fd5b919050565b6000602082840312156200031d57600080fd5b6200032882620002ed565b9392505050565b60008060008060008060008789036101c08112156200034d57600080fd5b6200035889620002ed565b97506200036860208a01620002ed565b9650604089013580151581146200037e57600080fd5b9550606089013594506080890135935060a0890135925061010060bf198201811315620003aa57600080fd5b604051915080820182811067ffffffffffffffff82111715620003dd57634e487b7160e01b600052604160045260246000fd5b806040525060c08a0135825260e08a01356020830152808a01356040830152506101208901356060820152610140890135608082015261016089013560a082015261018089013560c08201526101a089013560e08201528091505092959891949750929550565b60006000198214156200046757634e487b7160e01b600052601160045260246000fd5b506001019056fe6101406040523480156200001257600080fd5b506040516200587f3803806200587f8339810160408190526200003591620005ab565b8588896001600160a01b03166306fdde036040518163ffffffff1660e01b8152600401600060405180830381865afa15801562000076573d6000803e3d6000fd5b505050506040513d6000823e601f3d908101601f19168201604052620000a09190810190620006dc565b604051602001620000b2919062000794565b6040516020818303038152906040528a6001600160a01b03166395d89b416040518163ffffffff1660e01b8152600401600060405180830381865afa15801562000100573d6000803e3d6000fd5b505050506040513d6000823e601f3d908101601f191682016040526200012a9190810190620006dc565b6040516020016200013c9190620007d5565b60405160208183030381529060405281816012826000908051906020019062000167929190620004a6565b5081516200017d906001906020850190620004a6565b5060ff81166080524660a052620001936200040a565b60c0525050506001600160a01b03831660e08190526040805163313ce56760e01b8152905163313ce567916004808201926020929091908290030181865afa158015620001e4573d6000803e3d6000fd5b505050506040513d601f19601f820116820180604052508101906200020a919062000801565b60ff166101008181525050601260ff16836001600160a01b031663313ce5676040518163ffffffff1660e01b8152600401602060405180830381865afa15801562000259573d6000803e3d6000fd5b505050506040513d601f19601f820116820180604052508101906200027f919062000801565b6006805460ff191660ff9283169390931415928317905516156200031a57601260ff16836001600160a01b031663313ce5676040518163ffffffff1660e01b8152600401602060405180830381865afa158015620002e1573d6000803e3d6000fd5b505050506040513d601f19601f8201168201806040525081019062000307919062000801565b60ff16106200031a576200031a6200082d565b505060068054610100600160a81b0319166101006001600160a01b0385169081029190911790915560405190915033907f8292fce18fa69edf4db7b94ea2e58241df0ae57f97e0a6c9b29067028bf92d7690600090a3506001600160a01b0388811661012052670de0b6b3a7640000600955600b80546001600160a01b0319169189169190911790556014805460ff19168615151790556015849055601683905560178290558051600c556020810151600d556040810151600e556060810151600f55608081015160105560a081015160115560c081015160125560e00151601355506200092495505050505050565b60007f8b73c3c69bb8fe3d512ecc4cf759cc79239f7b179b0ffacaa9a75d522b39400f60006040516200043e919062000880565b6040805191829003822060208301939093528101919091527fc89efdaa54c0f20c7adf612882df0950f5a951637e0307cdcb4c672f298b8bc660608201524660808201523060a082015260c00160405160208183030381529060405280519060200120905090565b828054620004b49062000843565b90600052602060002090601f016020900481019282620004d8576000855562000523565b82601f10620004f357805160ff191683800117855562000523565b8280016001018555821562000523579182015b828111156200052357825182559160200191906001019062000506565b506200053192915062000535565b5090565b5b8082111562000531576000815560010162000536565b80516001600160a01b03811681146200056457600080fd5b919050565b634e487b7160e01b600052604160045260246000fd5b60405161010081016001600160401b0381118282101715620005a557620005a562000569565b60405290565b600080600080600080600080888a036101e0811215620005ca57600080fd5b620005d58a6200054c565b9850620005e560208b016200054c565b9750620005f560408b016200054c565b965060608a015180151581146200060b57600080fd5b8096505060808a0151945060a08a0151935060c08a015192506101008060df19830112156200063957600080fd5b620006436200057f565b915060e08b01518252808b01516020830152506101208a015160408201526101408a015160608201526101608a015160808201526101808a015160a08201526101a08a015160c08201526101c08a015160e0820152809150509295985092959890939650565b60005b83811015620006c6578181015183820152602001620006ac565b83811115620006d6576000848401525b50505050565b600060208284031215620006ef57600080fd5b81516001600160401b03808211156200070757600080fd5b818401915084601f8301126200071c57600080fd5b81518181111562000731576200073162000569565b604051601f8201601f19908116603f011681019083821181831017156200075c576200075c62000569565b816040528281528760208487010111156200077657600080fd5b62000789836020830160208801620006a9565b979650505050505050565b6603232b134ba30960cd1b815260008251620007b8816007850160208701620006a9565b650815985d5b1d60d21b6007939091019283015250600d01919050565b61323160f11b815260008251620007f4816002850160208701620006a9565b9190910160020192915050565b6000602082840312156200081457600080fd5b815160ff811681146200082657600080fd5b9392505050565b634e487b7160e01b600052600160045260246000fd5b600181811c908216806200085857607f821691505b602082108114156200087a57634e487b7160e01b600052602260045260246000fd5b50919050565b600080835481600182811c9150808316806200089d57607f831692505b6020808410821415620008be57634e487b7160e01b86526022600452602486fd5b818015620008d55760018114620008e75762000916565b60ff1986168952848901965062000916565b60008a81526020902060005b868110156200090e5781548b820152908501908301620008f3565b505084890196505b509498975050505050505050565b60805160a05160c05160e0516101005161012051614eb7620009c8600039600081816109e20152818161116701528181612078015281816121f00152818161290f01528181612a3e0152818161362c0152613a9a01526000818161110a015261230601526000818161063701528181611ef00152818161227d01528181612ca60152612def015260006117b601526000611786015260006105f60152614eb76000f3fe608060405234801561001057600080fd5b50600436106104545760003560e01c80637ecebe0011610241578063c5d664c61161013b578063dc361a13116100c3578063edb53d3e11610087578063edb53d3e14610b4c578063ef8b30f714610b5f578063f05bcfb414610b72578063f7d070de14610b85578063fc173fc614610b9257600080fd5b8063dc361a1314610ab0578063dd62ed3e14610ac3578063e134cc8214610aee578063e3fac5bf14610b25578063e9a23d3a14610b3857600080fd5b8063ca13e4501161010a578063ca13e45014610a20578063ce96cb7714610a4e578063d505accf14610a61578063d746d3ef14610a74578063d905777e14610a8757600080fd5b8063c5d664c6146109dd578063c63d75b614610671578063c6e6f59214610a04578063c83baf4e14610a1757600080fd5b80639ec4d40e116101c9578063b3d7f6b91161018d578063b3d7f6b91461097e578063b460af9414610991578063ba087652146109a4578063bebf7a04146109b7578063bf7e214f146109ca57600080fd5b80639ec4d40e146108f9578063a9059cbb1461090c578063ab0c79d01461091f578063ab0fd37e14610932578063b19b1f911461096b57600080fd5b806395d89b411161021057806395d89b41146108a557806396ce9d5a146108ad57806396d64879146108c057806398d796e7146108d35780639d0eba61146108e657600080fd5b80637ecebe0014610852578063841219e5146108725780638da5cb5b1461087a57806394bf804d1461089257600080fd5b806338d52e0f1161035257806360d4efa4116102da5780636e553f651161029e5780636e553f651461079057806370a08231146107a35780637572cb1f146107c357806379e20bdc1461082c5780637a9e5e4b1461083f57600080fd5b806360d4efa414610724578063692eba091461074c5780636a9f1bdb1461076c5780636c321c8a1461077f5780636c8ae38c1461078757600080fd5b80634cdad506116103215780634cdad506146106ac5780634dc54a38146106bf57806350c6e6cf146106df57806359dc5c6f146107085780635f260bb81461071b57600080fd5b806338d52e0f14610632578063402d267d1461067157806342966c6814610686578063471e1cea1461069957600080fd5b8063139f4b6f116103e057806322f0e069116103a457806322f0e0691461059e57806323b872dd146105cb5780632b858734146105de578063313ce567146105f15780633644e5151461062a57600080fd5b8063139f4b6f1461054957806313af40351461055c57806316f6cb071461056f57806318160ddd14610582578063213a7d521461058b57600080fd5b8063095ea7b311610427578063095ea7b3146104d75780630a28a477146104fa5780630e5c011e1461050d5780630f65cbc4146105225780631316dbde1461053657600080fd5b806301e1d1141461045957806306fdde0314610474578063076125a91461048957806307a2d13a146104c4575b600080fd5b610461610b9f565b6040519081526020015b60405180910390f35b61047c610bbb565b60405161046b919061441b565b61049c61049736600461442e565b610c49565b604080519586526020860194909452928401919091526060830152608082015260a00161046b565b6104616104d236600461442e565b610e75565b6104ea6104e536600461446c565b610eb9565b604051901515815260200161046b565b61046161050836600461442e565b610f26565b61052061051b366004614498565b610f5f565b005b61046161053036600461442e565b50600090565b61046161054436600461442e565b611103565b6104ea61055736600461442e565b611145565b61052061056a366004614498565b6111da565b61052061057d3660046144b5565b61127f565b61046160025481565b6105206105993660046144f0565b611341565b6105b16105ac366004614498565b6113aa565b60405161046b9e9d9c9b9a999897969594939291906145a5565b6104ea6105d936600461463e565b6114f3565b6105206105ec36600461442e565b6115d3565b6106187f000000000000000000000000000000000000000000000000000000000000000081565b60405160ff909116815260200161046b565b610461611782565b6106597f000000000000000000000000000000000000000000000000000000000000000081565b6040516001600160a01b03909116815260200161046b565b61046161067f366004614498565b5060001990565b61052061069436600461442e565b6117d8565b6104ea6106a736600461442e565b6117e5565b6104616106ba36600461442e565b61185b565b6106d26106cd366004614498565b611866565b60405161046b919061467f565b6106596106ed36600461442e565b601a602052600090815260409020546001600160a01b031681565b61052061071636600461442e565b611a40565b61046160165481565b61073761073236600461442e565b611b04565b6040805192835260208301919091520161046b565b61046161075a366004614498565b60196020526000908152604090205481565b61052061077a3660046147a3565b611cfb565b610461611e74565b61046160155481565b61046161079e366004614823565b611e9b565b6104616107b1366004614498565b60036020526000908152604090205481565b6107cb611f6e565b60405161046b9190600061010082019050825182526020830151602083015260408301516040830152606083015160608301526080830151608083015260a083015160a083015260c083015160c083015260e083015160e083015292915050565b61052061083a36600461446c565b612004565b61052061084d366004614498565b6120e6565b610461610860366004614498565b60056020526000908152604090205481565b6104616121d8565b6006546106599061010090046001600160a01b031681565b6104616108a0366004614823565b612263565b61047c6122f2565b6104616108bb36600461442e565b6122ff565b6104ea6108ce366004614498565b612341565b6105206108e1366004614968565b612367565b6105206108f4366004614498565b612714565b6106d261090736600461442e565b612754565b6104ea61091a36600461446c565b612808565b61052061092d3660046144b5565b61286e565b61046161094036600461442e565b6000908152601a60209081526040808320546001600160a01b03168352601890915290206002015490565b610520610979366004614498565b612b2d565b61046161098c36600461442e565b612ba0565b61046161099f366004614a8e565b612bbf565b6104616109b2366004614a8e565b612ccd565b6105206109c5366004614823565b612e16565b600754610659906001600160a01b031681565b6106597f000000000000000000000000000000000000000000000000000000000000000081565b610461610a1236600461442e565b612e6e565b61046160175481565b610a33610a2e36600461442e565b612e8e565b6040805193845260208401929092529082015260600161046b565b610461610a5c366004614498565b6130e2565b610520610a6f366004614ac5565b613104565b610520610a8236600461442e565b613348565b610461610a95366004614498565b6001600160a01b031660009081526003602052604090205490565b610461610abe366004614498565b613479565b610461610ad1366004614b3c565b600460209081526000928352604080842090915290825290205481565b610b01610afc36600461442e565b61349b565b6040805194151585526020850193909352918301521515606082015260800161046b565b610520610b33366004614823565b613991565b6104ea610b46366004614498565b50600190565b610659610b5a36600461442e565b6139e9565b610461610b6d36600461442e565b613a04565b610520610b80366004614823565b613a0f565b6014546104ea9060ff1681565b6006546104ea9060ff1681565b6000610ba96121d8565b600a54610bb69190614b80565b905090565b60008054610bc890614b98565b80601f0160208091040260200160405190810160405280929190818152602001828054610bf490614b98565b8015610c415780601f10610c1657610100808354040283529160200191610c41565b820191906000526020600020905b815481529060010190602001808311610c2457829003601f168201915b505050505081565b6000818152601a60209081526040808320546001600160a01b031683526018825280832081516101c08101835281548152600182015460ff808216151595830195909552610100908190049094161515928101929092526002810154606083015260038101546080830152600481015460a0830152600581015460c0830152600681015460e08301526007810154928201929092526008820180548493849384938493849391610120840191610cfe90614b98565b80601f0160208091040260200160405190810160405280929190818152602001828054610d2a90614b98565b8015610d775780601f10610d4c57610100808354040283529160200191610d77565b820191906000526020600020905b815481529060010190602001808311610d5a57829003601f168201915b505050918352505060098201546001600160a01b0381166020830152604090910190600160a01b900460ff166003811115610db457610db4614529565b6003811115610dc557610dc5614529565b8152602001600a8201548152602001600b82016040518060e0016040529081600082015481526020016001820154815260200160028201548152602001600382015481526020016004820154815260200160058201548152602001600682015481525050815250509050806101a0015160400151816101a0015160600151826101a0015160800151836101a0015160a00151846101a0015160c00151955095509550955095505091939590929450565b6002546000908015610e9957610e94610e8c610b9f565b849083613ac9565b610eb2565b60065460ff16610ea95782610eb2565b610eb283611103565b9392505050565b3360008181526004602090815260408083206001600160a01b038716808552925280832085905551919290917f8c5be1e5ebec7d5bd14f71427d1e84f3dd0314c0f7b2291e5b200ac8c7c3b92590610f149086815260200190565b60405180910390a35060015b92915050565b6002546000908015610f4657610e9481610f3e610b9f565b859190613ae8565b60065460ff16610f565782610eb2565b610eb2836122ff565b6001600160a01b038116600090815260186020526040902060010154610100900460ff16610fcb5760405162461bcd60e51b8152602060048201526014602482015273155395149554d5115117d25b9cdd1c9d5b595b9d60621b60448201526064015b60405180910390fd5b6001600160a01b038116600081815260186020526040808220600a5460028201549251633af9e66960e01b8152600481018690529194909391633af9e66990602401602060405180830381865afa15801561102a573d6000803e3d6000fd5b505050506040513d601f19601f8201168201806040525081019061104e9190614bd3565b90508082141561105f575050505050565b60028401819055600082821015806110805761107b8385614bec565b61108a565b61108a8484614bec565b9150806110a05761109b8286614bec565b6110aa565b6110aa8286614b80565b600a5560408051848152602081018490528215158183015290516001600160a01b038916917f633a7d7c82bd537c647d654b96128a9b02a675bd73abe910b82f875ce4776391919081900360600190a250505050505050565b60006111307f00000000000000000000000000000000000000000000000000000000000000006012614bec565b61113b90600a614ce7565b610f209083614cf3565b6040516370a0823160e01b815230600482015260009082906001600160a01b037f000000000000000000000000000000000000000000000000000000000000000016906370a0823190602401602060405180830381865afa1580156111ae573d6000803e3d6000fd5b505050506040513d601f19601f820116820180604052508101906111d29190614bd3565b101592915050565b6111f0336000356001600160e01b031916613b16565b61122b5760405162461bcd60e51b815260206004820152600c60248201526b15539055551213d49256915160a21b6044820152606401610fc2565b60068054610100600160a81b0319166101006001600160a01b0384169081029190911790915560405133907f8292fce18fa69edf4db7b94ea2e58241df0ae57f97e0a6c9b29067028bf92d7690600090a350565b611288826139e9565b6001600160a01b031663537d9409826040518263ffffffff1660e01b81526004016112b591815260200190565b602060405180830381865afa1580156112d2573d6000803e3d6000fd5b505050506040513d601f19601f820116820180604052508101906112f69190614d15565b61132b5760405162461bcd60e51b8152600401610fc290602080825260049082015263216c697160e01b604082015260600190565b61133d611337836139e9565b82613b55565b5050565b336001600160a01b038316148061135c575061135c82612341565b61136557600080fd5b6001600160a01b03821660009081526018602052604090206004015461138a816115d3565b6000908152601b60205260409020805460ff191691151591909117905550565b601860205260009081526040902080546001820154600283015460038401546004850154600586015460068701546007880154600889018054989960ff808a169a610100909a0416989091906113ff90614b98565b80601f016020809104026020016040519081016040528092919081815260200182805461142b90614b98565b80156114785780601f1061144d57610100808354040283529160200191611478565b820191906000526020600020905b81548152906001019060200180831161145b57829003601f168201915b505050506009830154600a8401546040805160e081018252600b8701548152600c8701546020820152600d87015491810191909152600e8601546060820152600f8601546080820152601086015460a082015260119095015460c086015292936001600160a01b03821693600160a01b90920460ff1692508e565b6001600160a01b0383166000908152600460209081526040808320338452909152812054600019811461154f5761152a8382614bec565b6001600160a01b03861660009081526004602090815260408083203384529091529020555b6001600160a01b03851660009081526003602052604081208054859290611577908490614bec565b90915550506001600160a01b0380851660008181526003602052604090819020805487019055519091871690600080516020614e62833981519152906115c09087815260200190565b60405180910390a3506001949350505050565b6000818152601a60205260409020546001600160a01b0316338114806116035750600b546001600160a01b031633145b61163d5760405162461bcd60e51b815260206004820152600b60248201526a139bdd08185b1b1bddd95960aa1b6044820152606401610fc2565b61164681612341565b6116805760405162461bcd60e51b815260206004820152600b60248201526a139bdd081d1c9d5cdd195960aa1b6044820152606401610fc2565b806001600160a01b03166349dcf4ed6040518163ffffffff1660e01b81526004016060604051808303816000875af11580156116c0573d6000803e3d6000fd5b505050506040513d601f19601f820116820180604052508101906116e49190614d32565b5050506116f081610f5f565b806001600160a01b031663f3aa68d36040518163ffffffff1660e01b8152600401600060405180830381600087803b15801561172b57600080fd5b505af115801561173f573d6000803e3d6000fd5b5050604080518082018252438152600160208083018281526000988952601c909152929096209051815590519401805460ff191694151594909417909355505050565b60007f000000000000000000000000000000000000000000000000000000000000000046146117b357610bb6613d08565b507f000000000000000000000000000000000000000000000000000000000000000090565b6117e23382613da2565b50565b6000818152601a6020908152604080832054815163041f3aa560e51b815291516001600160a01b03909116926383e754a092600480820193918290030181865afa158015611837573d6000803e3d6000fd5b505050506040513d601f19601f82011682018060405250810190610f209190614d15565b6000610f2082610e75565b61186e614250565b6001600160a01b03821660009081526018602090815260409182902082516101c08101845281548152600182015460ff808216151594830194909452610100908190049093161515938101939093526002810154606084015260038101546080840152600481015460a0840152600581015460c0840152600681015460e08401526007810154918301919091526008810180546101208401919061191190614b98565b80601f016020809104026020016040519081016040528092919081815260200182805461193d90614b98565b801561198a5780601f1061195f5761010080835404028352916020019161198a565b820191906000526020600020905b81548152906001019060200180831161196d57829003601f168201915b505050918352505060098201546001600160a01b0381166020830152604090910190600160a01b900460ff1660038111156119c7576119c7614529565b60038111156119d8576119d8614529565b8152600a8201546020808301919091526040805160e081018252600b8501548152600c85015492810192909252600d84015482820152600e8401546060830152600f8401546080830152601084015460a083015260119093015460c082015291015292915050565b600b546001600160a01b0316331480611a68575060065461010090046001600160a01b031633145b80611a7257503033145b611a8e5760405162461bcd60e51b8152600401610fc290614d60565b6000611a99826139e9565b9050806001600160a01b03166350bb4beb6040518163ffffffff1660e01b81526004016020604051808303816000875af1158015611adb573d6000803e3d6000fd5b505050506040513d601f19601f82011682018060405250810190611aff9190614bd3565b505050565b6000818152601a60209081526040808320546001600160a01b031683526018825280832081516101c08101835281548152600182015460ff808216151595830195909552610100908190049094161515928101929092526002810154606083015260038101546080830152600481015460a0830152600581015460c0830152600681015460e08301526007810154928201929092526008820180548493849392909161012084019190611bb690614b98565b80601f0160208091040260200160405190810160405280929190818152602001828054611be290614b98565b8015611c2f5780601f10611c0457610100808354040283529160200191611c2f565b820191906000526020600020905b815481529060010190602001808311611c1257829003601f168201915b505050918352505060098201546001600160a01b0381166020830152604090910190600160a01b900460ff166003811115611c6c57611c6c614529565b6003811115611c7d57611c7d614529565b8152602001600a8201548152602001600b82016040518060e00160405290816000820154815260200160018201548152602001600282015481526020016003820154815260200160048201548152602001600582015481526020016006820154815250508152505090508060c001518160e001519250925050915091565b600b546001600160a01b0316331480611d23575060065461010090046001600160a01b031633145b80611d2d57503033145b611d495760405162461bcd60e51b8152600401610fc290614d60565b600160186000611d58866139e9565b6001600160a01b03168152602081019190915260400160002060010180549115156101000261ff001990921691909117905580611e66576000838152601a60209081526040808320546001600160a01b031683526018825290912083516005820181905591840151600682018190559091611dd39190614b80565b60038201558251611de590859061286e565b611dee84613e04565b611df7846139e9565b8351602085015160405163416288dd60e01b8152600481019290925260248201526001600160a01b03919091169063416288dd90604401600060405180830381600087803b158015611e4857600080fd5b505af1158015611e5c573d6000803e3d6000fd5b5050505050505050565b611aff83836000015161286e565b6000600a5460001415611e875750600090565b610bb6611e92610b9f565b600a5490613e6d565b6000611ea683613a04565b905080611ee35760405162461bcd60e51b815260206004820152600b60248201526a5a45524f5f53484152455360a81b6044820152606401610fc2565b611f186001600160a01b037f000000000000000000000000000000000000000000000000000000000000000016333086613e82565b611f228282613f0c565b60408051848152602081018390526001600160a01b0384169133917fdcbc1c05240f31ff3ad067ef1ee35ce4997762752e3a095284754544f4c709d791015b60405180910390a3610f20565b611fb660405180610100016040528060008152602001600081526020016000815260200160008152602001600081526020016000815260200160008152602001600081525090565b506040805161010081018252600c548152600d546020820152600e5491810191909152600f546060820152601054608082015260115460a082015260125460c082015260135460e082015290565b600b546001600160a01b031633148061202c575060065461010090046001600160a01b031633145b8061203657503033145b6120525760405162461bcd60e51b8152600401610fc290614d60565b60405163a9059cbb60e01b81526001600160a01b038381166004830152602482018390527f0000000000000000000000000000000000000000000000000000000000000000169063a9059cbb906044015b6020604051808303816000875af11580156120c2573d6000803e3d6000fd5b505050506040513d601f19601f82011682018060405250810190611aff9190614d15565b60065461010090046001600160a01b0316331480612183575060075460405163b700961360e01b81523360048201523060248201526000356001600160e01b03191660448201526001600160a01b039091169063b700961390606401602060405180830381865afa15801561215f573d6000803e3d6000fd5b505050506040513d601f19601f820116820180604052508101906121839190614d15565b61218c57600080fd5b600780546001600160a01b0319166001600160a01b03831690811790915560405133907fa3396fd7f6e0a21b50e5089d2da70d5ac0a3bbbd1f617a93f134b7638998019890600090a350565b6040516370a0823160e01b81523060048201526000907f00000000000000000000000000000000000000000000000000000000000000006001600160a01b0316906370a0823190602401602060405180830381865afa15801561223f573d6000803e3d6000fd5b505050506040513d601f19601f82011682018060405250810190610bb69190614bd3565b600061226e83612ba0565b90506122a56001600160a01b037f000000000000000000000000000000000000000000000000000000000000000016333084613e82565b6122af8284613f0c565b60408051828152602081018590526001600160a01b0384169133917fdcbc1c05240f31ff3ad067ef1ee35ce4997762752e3a095284754544f4c709d79101611f61565b60018054610bc890614b98565b600061232c7f00000000000000000000000000000000000000000000000000000000000000006012614bec565b61233790600a614ce7565b610f209083614d8b565b6001600160a01b0316600090815260186020526040902060010154610100900460ff1690565b600b546001600160a01b031633148061238f575060065461010090046001600160a01b031633145b8061239957503033145b6123b55760405162461bcd60e51b8152600401610fc290614d60565b80602001516125655760008160c00151116124125760405162461bcd60e51b815260206004820181905260248201527f7072696e636970616c206d7573742062652067726561746572207468616e20306044820152606401610fc2565b6000816101000151116124675760405162461bcd60e51b815260206004820152601f60248201527f6475726174696f6e206d7573742062652067726561746572207468616e2030006044820152606401610fc2565b60008160800151116124bb5760405162461bcd60e51b815260206004820181905260248201527f6661636556616c7565206d7573742062652067726561746572207468616e20306044820152606401610fc2565b6009548160c0015110156125115760405162461bcd60e51b815260206004820152601d60248201527f4e6565647320746f20626520696e20646563696d616c20666f726d61740000006044820152606401610fc2565b60008160a00151116125655760405162461bcd60e51b815260206004820152601860248201527f6d7573742062652076616c696420696e737472756d656e7400000000000000006044820152606401610fc2565b33600090815260196020526040812080549161258083614daa565b90915550506101408101516001600160a01b031660009081526018602090815260409182902083518155818401516001820180549486015161ffff1990951691151561ff001916919091176101009415158502179055606084015160028201556080840151600382015560a0840151600482015560c0840151600582015560e08401516006820155918301516007830155610120830151805184939261262d9260088501929101906142ff565b506101408201516009820180546001600160a01b039092166001600160a01b0319831681178255610160850151926001600160a81b03191617600160a01b83600381111561267d5761267d614529565b0217905550610180820151600a8201556101a0909101518051600b830155602080820151600c840155604080830151600d8501556060830151600e8501556080830151600f85015560a080840151601086015560c09093015160119094019390935561014084015193909101516000908152601a9091522080546001600160a01b0319166001600160a01b03909216919091179055565b60065461010090046001600160a01b0316331461273057600080fd5b6001600160a01b03166000908152600860205260409020805460ff19166001179055565b61275c614250565b6000828152601a60209081526040808320546001600160a01b03168352601882529182902082516101c08101845281548152600182015460ff808216151594830194909452610100908190049093161515938101939093526002810154606084015260038101546080840152600481015460a0840152600581015460c0840152600681015460e08401526007810154918301919091526008810180546101208401919061191190614b98565b33600090815260036020526040812080548391908390612829908490614bec565b90915550506001600160a01b03831660008181526003602052604090819020805485019055513390600080516020614e6283398151915290610f149086815260200190565b6000612879836139e9565b6001600160a01b038116600090815260186020526040902060010154909150610100900460ff166128e35760405162461bcd60e51b8152602060048201526014602482015273155395149554d5115108125b9cdd1c9d5b595b9d60621b6044820152606401610fc2565b60065460ff16156128fa576128f782611103565b91505b6040516370a0823160e01b81523060048201527f00000000000000000000000000000000000000000000000000000000000000006001600160a01b0316906370a0823190602401602060405180830381865afa15801561295e573d6000803e3d6000fd5b505050506040513d601f19601f820116820180604052508101906129829190614bd3565b8211156129d15760405162461bcd60e51b815260206004820152601760248201527f4e6f7420656e6f7567682062616c20696e207661756c740000000000000000006044820152606401610fc2565b81600a60008282546129e39190614b80565b90915550506001600160a01b03811660009081526018602052604081206002018054849290612a13908490614b80565b909155505060405163a9059cbb60e01b81526001600160a01b038281166004830152602482018490527f0000000000000000000000000000000000000000000000000000000000000000169063a9059cbb906044016020604051808303816000875af1158015612a87573d6000803e3d6000fd5b505050506040513d601f19601f82011682018060405250810190612aab9190614d15565b612ae85760405162461bcd60e51b815260206004820152600e60248201526d11115413d4d25517d1905253115160921b6044820152606401610fc2565b6040518281526001600160a01b0382169033907f05fb08df9fd3a3099b9b7c09d3b801273152c1bae4b64e818fa08e212e882f849060200160405180910390a3505050565b600b546001600160a01b0316331480612b55575060065461010090046001600160a01b031633145b80612b5f57503033145b612b7b5760405162461bcd60e51b8152600401610fc290614d60565b6001600160a01b03166000908152601860205260409020600101805461ff0019169055565b6002546000908015610e9957610e94612bb7610b9f565b849083613ae8565b6000612bca84610f26565b9050336001600160a01b03831614612c3a576001600160a01b03821660009081526004602090815260408083203384529091529020546000198114612c3857612c138282614bec565b6001600160a01b03841660009081526004602090815260408083203384529091529020555b505b612c448482613f5e565b612c4e8282613da2565b60408051858152602081018390526001600160a01b03808516929086169133917ffbde797d201c681b91056529119e0b02407c7bb96a4a2c75c01fc9667232c8db910160405180910390a4610eb26001600160a01b037f0000000000000000000000000000000000000000000000000000000000000000168486613fb3565b6000336001600160a01b03831614612d3d576001600160a01b03821660009081526004602090815260408083203384529091529020546000198114612d3b57612d168582614bec565b6001600160a01b03841660009081526004602090815260408083203384529091529020555b505b612d468461185b565b905080612d835760405162461bcd60e51b815260206004820152600b60248201526a5a45524f5f41535345545360a81b6044820152606401610fc2565b612d8d8185613f5e565b612d978285613da2565b60408051828152602081018690526001600160a01b03808516929086169133917ffbde797d201c681b91056529119e0b02407c7bb96a4a2c75c01fc9667232c8db910160405180910390a4610eb26001600160a01b037f0000000000000000000000000000000000000000000000000000000000000000168483613fb3565b600b546001600160a01b0316331480612e3e575060065461010090046001600160a01b031633145b80612e4857503033145b612e645760405162461bcd60e51b8152600401610fc290614d60565b61133d8183613f0c565b6002546000908015610f4657610e9481612e86610b9f565b859190613ac9565b6000806000612eeb6040518061014001604052806000815260200160008152602001600081526020016000815260200160008152602001600081526020016000815260200160008152602001600081526020016000151581525090565b612ef485610c49565b6080860152606085018190526040850182905260208501929092529183529250612f445760405162461bcd60e51b81526020600482015260016024820152600360fc1b6044820152606401610fc2565b612f7b612f70826020015142612f5a9190614bec565b6009548451612f699082614b80565b9190614031565b6040830151906140ef565b60a08201526000858152601a60209081526040808320546001600160a01b03168352601890915290206002015460c0820152600b54604051634955b91f60e11b8152600481018790526001600160a01b03909116906392ab723e90602401602060405180830381865afa158015612ff6573d6000803e3d6000fd5b505050506040513d601f19601f8201168201806040525081019061301a9190614bd3565b60e08201819052606082015161303091906140ef565b610100820181905261304a5760a0015192508291506130db565b61010081015160a082015161305e916140ef565b8160c0015110613074578060a001519350613093565b61010081015160c082015161308891613e6d565b600161012083015293505b8061012001516130d9576130d68160e001516130c18361010001518460a001516140ef90919063ffffffff16565b8360c001516130d09190614bec565b90613e6d565b92505b505b9193909250565b6001600160a01b038116600090815260036020526040812054610f2090610e75565b428410156131545760405162461bcd60e51b815260206004820152601760248201527f5045524d49545f444541444c494e455f455850495245440000000000000000006044820152606401610fc2565b60006001613160611782565b6001600160a01b038a811660008181526005602090815260409182902080546001810190915582517f6e71edae12b1b97f4d1f60370fef10105fa2faae0126114a169c64845d6126c98184015280840194909452938d166060840152608083018c905260a083019390935260c08083018b90528151808403909101815260e08301909152805192019190912061190160f01b6101008301526101028201929092526101228101919091526101420160408051601f198184030181528282528051602091820120600084529083018083525260ff871690820152606081018590526080810184905260a0016020604051602081039080840390855afa15801561326c573d6000803e3d6000fd5b5050604051601f1901519150506001600160a01b038116158015906132a25750876001600160a01b0316816001600160a01b0316145b6132df5760405162461bcd60e51b815260206004820152600e60248201526d24a72b20a624a22fa9a4a3a722a960911b6044820152606401610fc2565b6001600160a01b0390811660009081526004602090815260408083208a8516808552908352928190208990555188815291928a16917f8c5be1e5ebec7d5bd14f71427d1e84f3dd0314c0f7b2291e5b200ac8c7c3b925910160405180910390a350505050505050565b600b546001600160a01b0316331480613370575060065461010090046001600160a01b031633145b8061337a57503033145b6133965760405162461bcd60e51b8152600401610fc290614d60565b6000818152601a60209081526040808320546001600160a01b031683526018909152902081158015906133d5575060098101546001600160a01b031615155b6134165760405162461bcd60e51b81526020600482015260126024820152711a5b9d985b1a59081a5b9cdd1c9d5b595b9d60721b6044820152606401610fc2565b6001810154610100900460ff16156134705760405162461bcd60e51b815260206004820152601e60248201527f63616e27742064656e7920617070726f76656420696e737472756d656e7400006044820152606401610fc2565b61133d82614104565b6001600160a01b038116600090815260036020526040812054610f209061185b565b600b546000908190819081906001600160a01b03163314806134cc575060065461010090046001600160a01b031633145b806134d657503033145b6134f25760405162461bcd60e51b8152600401610fc290614d60565b6000858152601a6020908152604080832054601c835292819020815180830183528154815260019091015460ff161515818401528151632938b58d60e21b815291516001600160a01b03909416939092849263a4e2d63492600480830193928290030181865afa15801561356a573d6000803e3d6000fd5b505050506040513d601f19601f8201168201806040525081019061358e9190614d15565b6135c75760405162461bcd60e51b815260206004820152600a602482015269139bdd08131bd8dad95960b21b6044820152606401610fc2565b806020015180156135d85750805143115b6136145760405162461bcd60e51b815260206004820152600d60248201526c63616e2774207265736f6c766560981b6044820152606401610fc2565b6040516370a0823160e01b81523060048201526000907f00000000000000000000000000000000000000000000000000000000000000006001600160a01b0316906370a0823190602401602060405180830381865afa15801561367b573d6000803e3d6000fd5b505050506040513d601f19601f8201168201806040525081019061369f9190614bd3565b90506000836001600160a01b0316631104aafd6040518163ffffffff1660e01b8152600401602060405180830381865afa1580156136e1573d6000803e3d6000fd5b505050506040513d601f19601f820116820180604052508101906137059190614bd3565b6001600160a01b038516600090815260186020908152604080832081516101c08101835281548152600182015460ff808216151595830195909552610100908190049094161515928101929092526002810154606083015260038101546080830152600481015460a0830152600581015460c0830152600681015460e0830152600781015492820192909252600882018054949550929390926101208401916137ad90614b98565b80601f01602080910402602001604051908101604052809291908181526020018280546137d990614b98565b80156138265780601f106137fb57610100808354040283529160200191613826565b820191906000526020600020905b81548152906001019060200180831161380957829003601f168201915b505050918352505060098201546001600160a01b0381166020830152604090910190600160a01b900460ff16600381111561386357613863614529565b600381111561387457613874614529565b8152600a8201546020808301919091526040805160e081018252600b8501548152600c85015481840152600d85015481830152600e8501546060820152600f8501546080820152601085015460a082015260119094015460c08501529182019290925260008d8152601b90925281205491925060ff9091169080808361393e5784608001518610925082613909576000613919565b8585608001516139199190614bec565b91508215613928576000613937565b60808501516139379087614bec565b9050613966565b8460c001518610925082613953576000613963565b858560c001516139639190614bec565b91505b6139708987613b55565b61397d8560a00151614104565b919d919c509a509098509650505050505050565b600b546001600160a01b03163314806139b9575060065461010090046001600160a01b031633145b806139c357503033145b6139df5760405162461bcd60e51b8152600401610fc290614d60565b61133d8183613da2565b6000908152601a60205260409020546001600160a01b031690565b6000610f2082612e6e565b600b546001600160a01b0316331480613a37575060065461010090046001600160a01b031633145b80613a4157503033145b613a5d5760405162461bcd60e51b8152600401610fc290614d60565b60065460ff1615613a7457613a7182611103565b91505b60405163a9059cbb60e01b81526001600160a01b038281166004830152602482018490527f0000000000000000000000000000000000000000000000000000000000000000169063a9059cbb906044016120a3565b828202811515841585830485141716613ae157600080fd5b0492915050565b828202811515841585830485141716613b0057600080fd5b6001826001830304018115150290509392505050565b6006546000906001600160a01b03848116610100909204161480610eb2575050506001600160a01b031660009081526008602052604090205460ff1690565b6001600160a01b038216600090815260186020526040902060010154610100900460ff16613bbc5760405162461bcd60e51b8152602060048201526014602482015273155395149554d5115108125b9cdd1c9d5b595b9d60621b6044820152606401610fc2565b60065460ff1615613bd357613bd081611103565b90505b6001600160a01b03821660009081526018602052604081206002018054839290613bfe908490614bec565b9250508190555080600a6000828254613c179190614bec565b909155505060405163852a12e360e01b8152600481018290526001600160a01b0383169063852a12e3906024016020604051808303816000875af1158015613c63573d6000803e3d6000fd5b505050506040513d601f19601f82011682018060405250810190613c879190614d15565b613cc35760405162461bcd60e51b815260206004820152600d60248201526c14915111515357d19052531151609a1b6044820152606401610fc2565b6040518181526001600160a01b0383169033907fc8e1ada3e3428244364539f5fe21fa3bc368ed3634b0abc2355534eb12ca3524906020015b60405180910390a35050565b60007f8b73c3c69bb8fe3d512ecc4cf759cc79239f7b179b0ffacaa9a75d522b39400f6000604051613d3a9190614dc5565b6040805191829003822060208301939093528101919091527fc89efdaa54c0f20c7adf612882df0950f5a951637e0307cdcb4c672f298b8bc660608201524660808201523060a082015260c00160405160208183030381529060405280519060200120905090565b6001600160a01b03821660009081526003602052604081208054839290613dca908490614bec565b90915550506002805482900390556040518181526000906001600160a01b03841690600080516020614e6283398151915290602001613cfc565b4260186000613e12846139e9565b6001600160a01b03166001600160a01b0316815260200190815260200160002060070154613e409190614b80565b60186000613e4d846139e9565b6001600160a01b031681526020810191909152604001600020600a015550565b6000610eb283670de0b6b3a764000084613ac9565b60006040516323b872dd60e01b81528460048201528360248201528260448201526020600060648360008a5af13d15601f3d1160016000511416171691505080613f055760405162461bcd60e51b81526020600482015260146024820152731514905394d1915497d19493d357d1905253115160621b6044820152606401610fc2565b5050505050565b8060026000828254613f1e9190614b80565b90915550506001600160a01b038216600081815260036020908152604080832080548601905551848152600080516020614e628339815191529101613cfc565b613f6782611145565b61133d5760405162461bcd60e51b815260206004820152601c60248201527f4e6f7420656e6f756768206c6971756469747920696e207661756c74000000006044820152606401610fc2565b600060405163a9059cbb60e01b8152836004820152826024820152602060006044836000895af13d15601f3d116001600051141617169150508061402b5760405162461bcd60e51b815260206004820152600f60248201526e1514905394d1915497d19052531151608a1b6044820152606401610fc2565b50505050565b60008380156140d15760018416801561404c57859250614050565b8392505b508260011c8460011c94505b84156140cb578560801c1561407057600080fd5b8586028181018181101561408357600080fd5b85900496505060018516156140c05785830283878204146140a95786156140a957600080fd5b818101818110156140b957600080fd5b8590049350505b8460011c945061405c565b506140e7565b8380156140e157600092506140e5565b8392505b505b509392505050565b6000610eb28383670de0b6b3a7640000613ac9565b6000818152601a60209081526040808320546001600160a01b031683526018909152902060048101546141795760405162461bcd60e51b815260206004820152601860248201527f696e737472756d656e7420646f65736e277420657869737400000000000000006044820152606401610fc2565b6000828152601a60209081526040808320546001600160a01b031683526018909152812081815560018101805461ffff19169055600281018290556003810182905560048101829055600581018290556006810182905560078101829055906141e56008830182614383565b506009810180546001600160a81b03191690556000600a8201819055600b8201819055600c8201819055600d8201819055600e8201819055600f820181905560108201819055601190910181905591825250601a6020526040902080546001600160a01b0319169055565b604080516101c08101825260008082526020820181905291810182905260608082018390526080820183905260a0820183905260c0820183905260e0820183905261010082018390526101208201526101408101829052906101608201908152602001600081526020016142fa6040518060e00160405280600081526020016000815260200160008152602001600081526020016000815260200160008152602001600081525090565b905290565b82805461430b90614b98565b90600052602060002090601f01602090048101928261432d5760008555614373565b82601f1061434657805160ff1916838001178555614373565b82800160010185558215614373579182015b82811115614373578251825591602001919060010190614358565b5061437f9291506143b9565b5090565b50805461438f90614b98565b6000825580601f1061439f575050565b601f0160209004906000526020600020908101906117e291905b5b8082111561437f57600081556001016143ba565b6000815180845260005b818110156143f4576020818501810151868301820152016143d8565b81811115614406576000602083870101525b50601f01601f19169290920160200192915050565b602081526000610eb260208301846143ce565b60006020828403121561444057600080fd5b5035919050565b6001600160a01b03811681146117e257600080fd5b803561446781614447565b919050565b6000806040838503121561447f57600080fd5b823561448a81614447565b946020939093013593505050565b6000602082840312156144aa57600080fd5b8135610eb281614447565b600080604083850312156144c857600080fd5b50508035926020909101359150565b80151581146117e257600080fd5b8035614467816144d7565b6000806040838503121561450357600080fd5b823561450e81614447565b9150602083013561451e816144d7565b809150509250929050565b634e487b7160e01b600052602160045260246000fd5b6004811061455d57634e487b7160e01b600052602160045260246000fd5b9052565b805182526020810151602083015260408101516040830152606081015160608301526080810151608083015260a081015160a083015260c081015160c08301525050565b8e81528d151560208201528c151560408201528b60608201528a60808201528960a08201528860c08201528760e08201528661010082015261028061012082015260006145f66102808301886143ce565b6001600160a01b038716610140840152905061461661016083018661453f565b8361018083015261462b6101a0830184614561565b9f9e505050505050505050505050505050565b60008060006060848603121561465357600080fd5b833561465e81614447565b9250602084013561466e81614447565b929592945050506040919091013590565b60208152815160208201526000602083015161469f604084018215159052565b50604083015180151560608401525060608301516080830152608083015160a083015260a083015160c083015260c083015160e083015260e0830151610100818185015280850151915050610120818185015280850151915050610140610280818501526147116102a08501836143ce565b9085015190915061016061472f858201836001600160a01b03169052565b85015190506101806147438582018361453f565b8501516101a08581019190915285015190506140e76101c0850182614561565b634e487b7160e01b600052604160045260246000fd5b6040516101c0810167ffffffffffffffff8111828210171561479d5761479d614763565b60405290565b600080600083850360808112156147b957600080fd5b843593506040601f19820112156147cf57600080fd5b506040516040810181811067ffffffffffffffff821117156147f3576147f3614763565b60409081526020868101358352908601359082015291506060840135614818816144d7565b809150509250925092565b6000806040838503121561483657600080fd5b82359150602083013561451e81614447565b600082601f83011261485957600080fd5b813567ffffffffffffffff8082111561487457614874614763565b604051601f8301601f19908116603f0116810190828211818310171561489c5761489c614763565b816040528381528660208588010111156148b557600080fd5b836020870160208301376000602085830101528094505050505092915050565b80356004811061446757600080fd5b600060e082840312156148f657600080fd5b60405160e0810181811067ffffffffffffffff8211171561491957614919614763565b8060405250809150823581526020830135602082015260408301356040820152606083013560608201526080830135608082015260a083013560a082015260c083013560c08201525092915050565b60006020828403121561497a57600080fd5b813567ffffffffffffffff8082111561499257600080fd5b9083019061028082860312156149a757600080fd5b6149af614779565b823581526149bf602084016144e5565b60208201526149d0604084016144e5565b6040820152606083013560608201526080830135608082015260a083013560a082015260c083013560c082015260e083013560e08201526101008084013581830152506101208084013583811115614a2757600080fd5b614a3388828701614848565b8284015250506101409150614a4982840161445c565b828201526101609150614a5d8284016148d5565b82820152610180915081830135828201526101a09150614a7f868385016148e4565b91810191909152949350505050565b600080600060608486031215614aa357600080fd5b833592506020840135614ab581614447565b9150604084013561481881614447565b600080600080600080600060e0888a031215614ae057600080fd5b8735614aeb81614447565b96506020880135614afb81614447565b95506040880135945060608801359350608088013560ff81168114614b1f57600080fd5b9699959850939692959460a0840135945060c09093013592915050565b60008060408385031215614b4f57600080fd5b8235614b5a81614447565b9150602083013561451e81614447565b634e487b7160e01b600052601160045260246000fd5b60008219821115614b9357614b93614b6a565b500190565b600181811c90821680614bac57607f821691505b60208210811415614bcd57634e487b7160e01b600052602260045260246000fd5b50919050565b600060208284031215614be557600080fd5b5051919050565b600082821015614bfe57614bfe614b6a565b500390565b600181815b80851115614c3e578160001904821115614c2457614c24614b6a565b80851615614c3157918102915b93841c9390800290614c08565b509250929050565b600082614c5557506001610f20565b81614c6257506000610f20565b8160018114614c785760028114614c8257614c9e565b6001915050610f20565b60ff841115614c9357614c93614b6a565b50506001821b610f20565b5060208310610133831016604e8410600b8410161715614cc1575081810a610f20565b614ccb8383614c03565b8060001904821115614cdf57614cdf614b6a565b029392505050565b6000610eb28383614c46565b600082614d1057634e487b7160e01b600052601260045260246000fd5b500490565b600060208284031215614d2757600080fd5b8151610eb2816144d7565b600080600060608486031215614d4757600080fd5b8351925060208401519150604084015190509250925092565b60208082526011908201527034b9903737ba1031b7b73a3937b63632b960791b604082015260600190565b6000816000190483118215151615614da557614da5614b6a565b500290565b6000600019821415614dbe57614dbe614b6a565b5060010190565b600080835481600182811c915080831680614de157607f831692505b6020808410821415614e0157634e487b7160e01b86526022600452602486fd5b818015614e155760018114614e2657614e53565b60ff19861689528489019650614e53565b60008a81526020902060005b86811015614e4b5781548b820152908501908301614e32565b505084890196505b50949897505050505050505056feddf252ad1be2c89b69c2b068fc378daa952ba7f163c4a11628f55a4df523b3efa26469706673582212200ee0846f4685a973cd65fc45f61290180b29cc1dfc3fb7e00685e0d2498000af64736f6c634300080c0033a264697066735822122002688620e74023ac2e11f2786398c6b32fb9e42f42a2f02d0d6d7d659b63fe0764736f6c634300080c0033",
  "devdoc": {
    "details": "only need a vault factory since marketId can be global, and all marketId will have a vaultId as it's parent",
    "kind": "dev",
    "methods": {
      "newVault(address,address,bool,uint256,uint256,uint256,(uint256,uint256,uint256,uint256,uint256,uint256,uint256,uint256))": {
        "params": {
          "_asset_limit": ": max number of shares for a single address",
          "_controller": ": protocol controller",
          "_onlyVerified": ": only verified users can mint shares",
          "_r": ": minimum reputation score to mint shares",
          "_total_asset_limit": ": max number of shares for entire vault",
          "default_params": ": default params for markets created by vault",
          "underlying": ": underlying asset for vault"
        }
      }
    },
    "version": 1
  },
  "userdoc": {
    "kind": "user",
    "methods": {
      "newVault(address,address,bool,uint256,uint256,uint256,(uint256,uint256,uint256,uint256,uint256,uint256,uint256,uint256))": {
        "notice": "creates vault"
      }
    },
    "notice": "Anyone can create a vault. These can be users who   a) want exposure to specific instrument types(vault that focuses on uncollateralized RWA loans) b) are DAOs that want risk assessment/structuring for their treasuries that need management.(i.e almost all stablecoin issuers) c) a vault for any long-tailed assets  d) managers who wants leverage for yield opportunities on a specific asset  e) uncollateralized lending platforms that wants to delegate the risk underwriting  etc They need to specify  1. Vault mint conditions-> such as verified LPs(managers) only,  2. default parameters of the market(like alpha, which determines level of risk&profit separation between vault/managers) 3. Vault underlying ",
    "version": 1
  },
  "storageLayout": {
    "storage": [
      {
        "astId": 9227,
        "contract": "contracts/protocol/factories.sol:VaultFactory",
        "label": "owner",
        "offset": 0,
        "slot": "0",
        "type": "t_address"
      },
      {
        "astId": 9231,
        "contract": "contracts/protocol/factories.sol:VaultFactory",
        "label": "_isVault",
        "offset": 0,
        "slot": "1",
        "type": "t_mapping(t_address,t_bool)"
      },
      {
        "astId": 9233,
        "contract": "contracts/protocol/factories.sol:VaultFactory",
        "label": "numVaults",
        "offset": 0,
        "slot": "2",
        "type": "t_uint256"
      },
      {
        "astId": 9236,
        "contract": "contracts/protocol/factories.sol:VaultFactory",
        "label": "controller",
        "offset": 0,
        "slot": "3",
        "type": "t_contract(Controller)9216"
      }
    ],
    "types": {
      "t_address": {
        "encoding": "inplace",
        "label": "address",
        "numberOfBytes": "20"
      },
      "t_bool": {
        "encoding": "inplace",
        "label": "bool",
        "numberOfBytes": "1"
      },
      "t_contract(Controller)9216": {
        "encoding": "inplace",
        "label": "contract Controller",
        "numberOfBytes": "20"
      },
      "t_mapping(t_address,t_bool)": {
        "encoding": "mapping",
        "key": "t_address",
        "label": "mapping(address => bool)",
        "numberOfBytes": "32",
        "value": "t_bool"
      },
      "t_uint256": {
        "encoding": "inplace",
        "label": "uint256",
        "numberOfBytes": "32"
      }
    }
  }
}